{
  "address": "0x062086409cC067B1f7c2Af0038eB53D38B12Ab39",
  "abi": [
    {
      "inputs": [
        {
          "internalType": "string",
          "name": "_name",
          "type": "string"
        },
        {
          "internalType": "string",
          "name": "_symbol",
          "type": "string"
        },
        {
          "internalType": "string",
          "name": "_baseUri",
          "type": "string"
        },
        {
          "internalType": "uint96",
          "name": "_royaltyBasePoints",
          "type": "uint96"
        },
        {
          "internalType": "uint256",
          "name": "_minGasToTransfer",
          "type": "uint256"
        },
        {
          "internalType": "address",
          "name": "_lzEndpoint",
          "type": "address"
        }
      ],
      "stateMutability": "nonpayable",
      "type": "constructor"
    },
    {
      "anonymous": false,
      "inputs": [
        {
          "indexed": true,
          "internalType": "address",
          "name": "owner",
          "type": "address"
        },
        {
          "indexed": true,
          "internalType": "address",
          "name": "approved",
          "type": "address"
        },
        {
          "indexed": true,
          "internalType": "uint256",
          "name": "tokenId",
          "type": "uint256"
        }
      ],
      "name": "Approval",
      "type": "event"
    },
    {
      "anonymous": false,
      "inputs": [
        {
          "indexed": true,
          "internalType": "address",
          "name": "owner",
          "type": "address"
        },
        {
          "indexed": true,
          "internalType": "address",
          "name": "operator",
          "type": "address"
        },
        {
          "indexed": false,
          "internalType": "bool",
          "name": "approved",
          "type": "bool"
        }
      ],
      "name": "ApprovalForAll",
      "type": "event"
    },
    {
      "anonymous": false,
      "inputs": [
        {
          "indexed": false,
          "internalType": "uint256",
          "name": "_fromTokenId",
          "type": "uint256"
        },
        {
          "indexed": false,
          "internalType": "uint256",
          "name": "_toTokenId",
          "type": "uint256"
        }
      ],
      "name": "BatchMetadataUpdate",
      "type": "event"
    },
    {
      "anonymous": false,
      "inputs": [
        {
          "indexed": false,
          "internalType": "bytes32",
          "name": "_hashedPayload",
          "type": "bytes32"
        }
      ],
      "name": "CreditCleared",
      "type": "event"
    },
    {
      "anonymous": false,
      "inputs": [
        {
          "indexed": false,
          "internalType": "bytes32",
          "name": "_hashedPayload",
          "type": "bytes32"
        },
        {
          "indexed": false,
          "internalType": "bytes",
          "name": "_payload",
          "type": "bytes"
        }
      ],
      "name": "CreditStored",
      "type": "event"
    },
    {
      "anonymous": false,
      "inputs": [
        {
          "indexed": false,
          "internalType": "uint16",
          "name": "_srcChainId",
          "type": "uint16"
        },
        {
          "indexed": false,
          "internalType": "bytes",
          "name": "_srcAddress",
          "type": "bytes"
        },
        {
          "indexed": false,
          "internalType": "uint64",
          "name": "_nonce",
          "type": "uint64"
        },
        {
          "indexed": false,
          "internalType": "bytes",
          "name": "_payload",
          "type": "bytes"
        },
        {
          "indexed": false,
          "internalType": "bytes",
          "name": "_reason",
          "type": "bytes"
        }
      ],
      "name": "MessageFailed",
      "type": "event"
    },
    {
      "anonymous": false,
      "inputs": [
        {
          "indexed": false,
          "internalType": "uint256",
          "name": "_tokenId",
          "type": "uint256"
        }
      ],
      "name": "MetadataUpdate",
      "type": "event"
    },
    {
      "anonymous": false,
      "inputs": [
        {
          "indexed": true,
          "internalType": "address",
          "name": "previousOwner",
          "type": "address"
        },
        {
          "indexed": true,
          "internalType": "address",
          "name": "newOwner",
          "type": "address"
        }
      ],
      "name": "OwnershipTransferred",
      "type": "event"
    },
    {
      "anonymous": false,
      "inputs": [
        {
          "indexed": true,
          "internalType": "uint16",
          "name": "_srcChainId",
          "type": "uint16"
        },
        {
          "indexed": true,
          "internalType": "bytes",
          "name": "_srcAddress",
          "type": "bytes"
        },
        {
          "indexed": true,
          "internalType": "address",
          "name": "_toAddress",
          "type": "address"
        },
        {
          "indexed": false,
          "internalType": "uint256[]",
          "name": "_tokenIds",
          "type": "uint256[]"
        }
      ],
      "name": "ReceiveFromChain",
      "type": "event"
    },
    {
      "anonymous": false,
      "inputs": [
        {
          "indexed": false,
          "internalType": "uint16",
          "name": "_srcChainId",
          "type": "uint16"
        },
        {
          "indexed": false,
          "internalType": "bytes",
          "name": "_srcAddress",
          "type": "bytes"
        },
        {
          "indexed": false,
          "internalType": "uint64",
          "name": "_nonce",
          "type": "uint64"
        },
        {
          "indexed": false,
          "internalType": "bytes32",
          "name": "_payloadHash",
          "type": "bytes32"
        }
      ],
      "name": "RetryMessageSuccess",
      "type": "event"
    },
    {
      "anonymous": false,
      "inputs": [
        {
          "indexed": true,
          "internalType": "bytes32",
          "name": "role",
          "type": "bytes32"
        },
        {
          "indexed": true,
          "internalType": "bytes32",
          "name": "previousAdminRole",
          "type": "bytes32"
        },
        {
          "indexed": true,
          "internalType": "bytes32",
          "name": "newAdminRole",
          "type": "bytes32"
        }
      ],
      "name": "RoleAdminChanged",
      "type": "event"
    },
    {
      "anonymous": false,
      "inputs": [
        {
          "indexed": true,
          "internalType": "bytes32",
          "name": "role",
          "type": "bytes32"
        },
        {
          "indexed": true,
          "internalType": "address",
          "name": "account",
          "type": "address"
        },
        {
          "indexed": true,
          "internalType": "address",
          "name": "sender",
          "type": "address"
        }
      ],
      "name": "RoleGranted",
      "type": "event"
    },
    {
      "anonymous": false,
      "inputs": [
        {
          "indexed": true,
          "internalType": "bytes32",
          "name": "role",
          "type": "bytes32"
        },
        {
          "indexed": true,
          "internalType": "address",
          "name": "account",
          "type": "address"
        },
        {
          "indexed": true,
          "internalType": "address",
          "name": "sender",
          "type": "address"
        }
      ],
      "name": "RoleRevoked",
      "type": "event"
    },
    {
      "anonymous": false,
      "inputs": [
        {
          "indexed": true,
          "internalType": "uint16",
          "name": "_dstChainId",
          "type": "uint16"
        },
        {
          "indexed": true,
          "internalType": "address",
          "name": "_from",
          "type": "address"
        },
        {
          "indexed": true,
          "internalType": "bytes",
          "name": "_toAddress",
          "type": "bytes"
        },
        {
          "indexed": false,
          "internalType": "uint256[]",
          "name": "_tokenIds",
          "type": "uint256[]"
        }
      ],
      "name": "SendToChain",
      "type": "event"
    },
    {
      "anonymous": false,
      "inputs": [
        {
          "indexed": false,
          "internalType": "uint16",
          "name": "_dstChainId",
          "type": "uint16"
        },
        {
          "indexed": false,
          "internalType": "uint256",
          "name": "_dstChainIdToBatchLimit",
          "type": "uint256"
        }
      ],
      "name": "SetDstChainIdToBatchLimit",
      "type": "event"
    },
    {
      "anonymous": false,
      "inputs": [
        {
          "indexed": false,
          "internalType": "uint16",
          "name": "_dstChainId",
          "type": "uint16"
        },
        {
          "indexed": false,
          "internalType": "uint256",
          "name": "_dstChainIdToTransferGas",
          "type": "uint256"
        }
      ],
      "name": "SetDstChainIdToTransferGas",
      "type": "event"
    },
    {
      "anonymous": false,
      "inputs": [
        {
          "indexed": false,
          "internalType": "uint16",
          "name": "_dstChainId",
          "type": "uint16"
        },
        {
          "indexed": false,
          "internalType": "uint16",
          "name": "_type",
          "type": "uint16"
        },
        {
          "indexed": false,
          "internalType": "uint256",
          "name": "_minDstGas",
          "type": "uint256"
        }
      ],
      "name": "SetMinDstGas",
      "type": "event"
    },
    {
      "anonymous": false,
      "inputs": [
        {
          "indexed": false,
          "internalType": "uint256",
          "name": "_minGasToTransferAndStore",
          "type": "uint256"
        }
      ],
      "name": "SetMinGasToTransferAndStore",
      "type": "event"
    },
    {
      "anonymous": false,
      "inputs": [
        {
          "indexed": false,
          "internalType": "address",
          "name": "precrime",
          "type": "address"
        }
      ],
      "name": "SetPrecrime",
      "type": "event"
    },
    {
      "anonymous": false,
      "inputs": [
        {
          "indexed": false,
          "internalType": "uint16",
          "name": "_remoteChainId",
          "type": "uint16"
        },
        {
          "indexed": false,
          "internalType": "bytes",
          "name": "_path",
          "type": "bytes"
        }
      ],
      "name": "SetTrustedRemote",
      "type": "event"
    },
    {
      "anonymous": false,
      "inputs": [
        {
          "indexed": false,
          "internalType": "uint16",
          "name": "_remoteChainId",
          "type": "uint16"
        },
        {
          "indexed": false,
          "internalType": "bytes",
          "name": "_remoteAddress",
          "type": "bytes"
        }
      ],
      "name": "SetTrustedRemoteAddress",
      "type": "event"
    },
    {
      "anonymous": false,
      "inputs": [
        {
          "indexed": true,
          "internalType": "address",
          "name": "from",
          "type": "address"
        },
        {
          "indexed": true,
          "internalType": "address",
          "name": "to",
          "type": "address"
        },
        {
          "indexed": true,
          "internalType": "uint256",
          "name": "tokenId",
          "type": "uint256"
        }
      ],
      "name": "Transfer",
      "type": "event"
    },
    {
      "inputs": [],
      "name": "DEFAULT_ADMIN_ROLE",
      "outputs": [
        {
          "internalType": "bytes32",
          "name": "",
          "type": "bytes32"
        }
      ],
      "stateMutability": "view",
      "type": "function"
    },
    {
      "inputs": [],
      "name": "DEFAULT_PAYLOAD_SIZE_LIMIT",
      "outputs": [
        {
          "internalType": "uint256",
          "name": "",
          "type": "uint256"
        }
      ],
      "stateMutability": "view",
      "type": "function"
    },
    {
      "inputs": [],
      "name": "FUNCTION_TYPE_SEND",
      "outputs": [
        {
          "internalType": "uint16",
          "name": "",
          "type": "uint16"
        }
      ],
      "stateMutability": "view",
      "type": "function"
    },
    {
      "inputs": [],
      "name": "MINTER_ROLE",
      "outputs": [
        {
          "internalType": "bytes32",
          "name": "",
          "type": "bytes32"
        }
      ],
      "stateMutability": "view",
      "type": "function"
    },
    {
      "inputs": [
        {
          "internalType": "address",
          "name": "to",
          "type": "address"
        },
        {
          "internalType": "uint256",
          "name": "tokenId",
          "type": "uint256"
        }
      ],
      "name": "approve",
      "outputs": [],
      "stateMutability": "nonpayable",
      "type": "function"
    },
    {
      "inputs": [
        {
          "internalType": "address",
          "name": "owner",
          "type": "address"
        }
      ],
      "name": "balanceOf",
      "outputs": [
        {
          "internalType": "uint256",
          "name": "",
          "type": "uint256"
        }
      ],
      "stateMutability": "view",
      "type": "function"
    },
    {
      "inputs": [
        {
          "internalType": "uint256",
          "name": "tokenId",
          "type": "uint256"
        }
      ],
      "name": "burn",
      "outputs": [],
      "stateMutability": "nonpayable",
      "type": "function"
    },
    {
      "inputs": [
        {
          "internalType": "bytes",
          "name": "_payload",
          "type": "bytes"
        }
      ],
      "name": "clearCredits",
      "outputs": [],
      "stateMutability": "nonpayable",
      "type": "function"
    },
    {
      "inputs": [
        {
          "internalType": "uint16",
          "name": "",
          "type": "uint16"
        }
      ],
      "name": "dstChainIdToBatchLimit",
      "outputs": [
        {
          "internalType": "uint256",
          "name": "",
          "type": "uint256"
        }
      ],
      "stateMutability": "view",
      "type": "function"
    },
    {
      "inputs": [
        {
          "internalType": "uint16",
          "name": "",
          "type": "uint16"
        }
      ],
      "name": "dstChainIdToTransferGas",
      "outputs": [
        {
          "internalType": "uint256",
          "name": "",
          "type": "uint256"
        }
      ],
      "stateMutability": "view",
      "type": "function"
    },
    {
      "inputs": [
        {
          "internalType": "uint16",
          "name": "_dstChainId",
          "type": "uint16"
        },
        {
          "internalType": "bytes",
          "name": "_toAddress",
          "type": "bytes"
        },
        {
          "internalType": "uint256[]",
          "name": "_tokenIds",
          "type": "uint256[]"
        },
        {
          "internalType": "bool",
          "name": "_useZro",
          "type": "bool"
        },
        {
          "internalType": "bytes",
          "name": "_adapterParams",
          "type": "bytes"
        }
      ],
      "name": "estimateSendBatchFee",
      "outputs": [
        {
          "internalType": "uint256",
          "name": "nativeFee",
          "type": "uint256"
        },
        {
          "internalType": "uint256",
          "name": "zroFee",
          "type": "uint256"
        }
      ],
      "stateMutability": "view",
      "type": "function"
    },
    {
      "inputs": [
        {
          "internalType": "uint16",
          "name": "_dstChainId",
          "type": "uint16"
        },
        {
          "internalType": "bytes",
          "name": "_toAddress",
          "type": "bytes"
        },
        {
          "internalType": "uint256",
          "name": "_tokenId",
          "type": "uint256"
        },
        {
          "internalType": "bool",
          "name": "_useZro",
          "type": "bool"
        },
        {
          "internalType": "bytes",
          "name": "_adapterParams",
          "type": "bytes"
        }
      ],
      "name": "estimateSendFee",
      "outputs": [
        {
          "internalType": "uint256",
          "name": "nativeFee",
          "type": "uint256"
        },
        {
          "internalType": "uint256",
          "name": "zroFee",
          "type": "uint256"
        }
      ],
      "stateMutability": "view",
      "type": "function"
    },
    {
      "inputs": [
        {
          "internalType": "uint16",
          "name": "",
          "type": "uint16"
        },
        {
          "internalType": "bytes",
          "name": "",
          "type": "bytes"
        },
        {
          "internalType": "uint64",
          "name": "",
          "type": "uint64"
        }
      ],
      "name": "failedMessages",
      "outputs": [
        {
          "internalType": "bytes32",
          "name": "",
          "type": "bytes32"
        }
      ],
      "stateMutability": "view",
      "type": "function"
    },
    {
      "inputs": [
        {
          "internalType": "uint16",
          "name": "_srcChainId",
          "type": "uint16"
        },
        {
          "internalType": "bytes",
          "name": "_srcAddress",
          "type": "bytes"
        }
      ],
      "name": "forceResumeReceive",
      "outputs": [],
      "stateMutability": "nonpayable",
      "type": "function"
    },
    {
      "inputs": [
        {
          "internalType": "uint256",
          "name": "tokenId",
          "type": "uint256"
        }
      ],
      "name": "getApproved",
      "outputs": [
        {
          "internalType": "address",
          "name": "",
          "type": "address"
        }
      ],
      "stateMutability": "view",
      "type": "function"
    },
    {
      "inputs": [
        {
          "internalType": "uint16",
          "name": "_version",
          "type": "uint16"
        },
        {
          "internalType": "uint16",
          "name": "_chainId",
          "type": "uint16"
        },
        {
          "internalType": "address",
          "name": "",
          "type": "address"
        },
        {
          "internalType": "uint256",
          "name": "_configType",
          "type": "uint256"
        }
      ],
      "name": "getConfig",
      "outputs": [
        {
          "internalType": "bytes",
          "name": "",
          "type": "bytes"
        }
      ],
      "stateMutability": "view",
      "type": "function"
    },
    {
      "inputs": [
        {
          "internalType": "bytes32",
          "name": "role",
          "type": "bytes32"
        }
      ],
      "name": "getRoleAdmin",
      "outputs": [
        {
          "internalType": "bytes32",
          "name": "",
          "type": "bytes32"
        }
      ],
      "stateMutability": "view",
      "type": "function"
    },
    {
      "inputs": [
        {
          "internalType": "uint16",
          "name": "_remoteChainId",
          "type": "uint16"
        }
      ],
      "name": "getTrustedRemoteAddress",
      "outputs": [
        {
          "internalType": "bytes",
          "name": "",
          "type": "bytes"
        }
      ],
      "stateMutability": "view",
      "type": "function"
    },
    {
      "inputs": [
        {
          "internalType": "bytes32",
          "name": "role",
          "type": "bytes32"
        },
        {
          "internalType": "address",
          "name": "account",
          "type": "address"
        }
      ],
      "name": "grantRole",
      "outputs": [],
      "stateMutability": "nonpayable",
      "type": "function"
    },
    {
      "inputs": [
        {
          "internalType": "bytes32",
          "name": "role",
          "type": "bytes32"
        },
        {
          "internalType": "address",
          "name": "account",
          "type": "address"
        }
      ],
      "name": "hasRole",
      "outputs": [
        {
          "internalType": "bool",
          "name": "",
          "type": "bool"
        }
      ],
      "stateMutability": "view",
      "type": "function"
    },
    {
      "inputs": [
        {
          "internalType": "address",
          "name": "owner",
          "type": "address"
        },
        {
          "internalType": "address",
          "name": "operator",
          "type": "address"
        }
      ],
      "name": "isApprovedForAll",
      "outputs": [
        {
          "internalType": "bool",
          "name": "",
          "type": "bool"
        }
      ],
      "stateMutability": "view",
      "type": "function"
    },
    {
      "inputs": [
        {
          "internalType": "uint16",
          "name": "_srcChainId",
          "type": "uint16"
        },
        {
          "internalType": "bytes",
          "name": "_srcAddress",
          "type": "bytes"
        }
      ],
      "name": "isTrustedRemote",
      "outputs": [
        {
          "internalType": "bool",
          "name": "",
          "type": "bool"
        }
      ],
      "stateMutability": "view",
      "type": "function"
    },
    {
      "inputs": [],
      "name": "lzEndpoint",
      "outputs": [
        {
          "internalType": "contract ILayerZeroEndpoint",
          "name": "",
          "type": "address"
        }
      ],
      "stateMutability": "view",
      "type": "function"
    },
    {
      "inputs": [
        {
          "internalType": "uint16",
          "name": "_srcChainId",
          "type": "uint16"
        },
        {
          "internalType": "bytes",
          "name": "_srcAddress",
          "type": "bytes"
        },
        {
          "internalType": "uint64",
          "name": "_nonce",
          "type": "uint64"
        },
        {
          "internalType": "bytes",
          "name": "_payload",
          "type": "bytes"
        }
      ],
      "name": "lzReceive",
      "outputs": [],
      "stateMutability": "nonpayable",
      "type": "function"
    },
    {
      "inputs": [
        {
          "internalType": "uint16",
          "name": "",
          "type": "uint16"
        },
        {
          "internalType": "uint16",
          "name": "",
          "type": "uint16"
        }
      ],
      "name": "minDstGasLookup",
      "outputs": [
        {
          "internalType": "uint256",
          "name": "",
          "type": "uint256"
        }
      ],
      "stateMutability": "view",
      "type": "function"
    },
    {
      "inputs": [],
      "name": "minGasToTransferAndStore",
      "outputs": [
        {
          "internalType": "uint256",
          "name": "",
          "type": "uint256"
        }
      ],
      "stateMutability": "view",
      "type": "function"
    },
    {
      "inputs": [
        {
          "internalType": "address",
          "name": "to",
          "type": "address"
        },
        {
          "internalType": "uint256",
          "name": "tokenId",
          "type": "uint256"
        },
        {
          "internalType": "string",
          "name": "tokenURI",
          "type": "string"
        }
      ],
      "name": "mint",
      "outputs": [],
      "stateMutability": "nonpayable",
      "type": "function"
    },
    {
      "inputs": [
        {
          "internalType": "address",
          "name": "to",
          "type": "address"
        },
        {
          "internalType": "uint256[]",
          "name": "tokenIds",
          "type": "uint256[]"
        },
        {
          "internalType": "string[]",
          "name": "tokenURIs",
          "type": "string[]"
        }
      ],
      "name": "mintBatch",
      "outputs": [],
      "stateMutability": "nonpayable",
      "type": "function"
    },
    {
      "inputs": [
        {
          "internalType": "address[]",
          "name": "recipients",
          "type": "address[]"
        },
        {
          "internalType": "uint256[]",
          "name": "tokenIds",
          "type": "uint256[]"
        },
        {
          "internalType": "string[]",
          "name": "tokenURIs",
          "type": "string[]"
        }
      ],
      "name": "mintMulti",
      "outputs": [],
      "stateMutability": "nonpayable",
      "type": "function"
    },
    {
      "inputs": [],
      "name": "name",
      "outputs": [
        {
          "internalType": "string",
          "name": "",
          "type": "string"
        }
      ],
      "stateMutability": "view",
      "type": "function"
    },
    {
      "inputs": [
        {
          "internalType": "uint16",
          "name": "_srcChainId",
          "type": "uint16"
        },
        {
          "internalType": "bytes",
          "name": "_srcAddress",
          "type": "bytes"
        },
        {
          "internalType": "uint64",
          "name": "_nonce",
          "type": "uint64"
        },
        {
          "internalType": "bytes",
          "name": "_payload",
          "type": "bytes"
        }
      ],
      "name": "nonblockingLzReceive",
      "outputs": [],
      "stateMutability": "nonpayable",
      "type": "function"
    },
    {
      "inputs": [],
      "name": "owner",
      "outputs": [
        {
          "internalType": "address",
          "name": "",
          "type": "address"
        }
      ],
      "stateMutability": "view",
      "type": "function"
    },
    {
      "inputs": [
        {
          "internalType": "uint256",
          "name": "tokenId",
          "type": "uint256"
        }
      ],
      "name": "ownerOf",
      "outputs": [
        {
          "internalType": "address",
          "name": "",
          "type": "address"
        }
      ],
      "stateMutability": "view",
      "type": "function"
    },
    {
      "inputs": [
        {
          "internalType": "uint16",
          "name": "",
          "type": "uint16"
        }
      ],
      "name": "payloadSizeLimitLookup",
      "outputs": [
        {
          "internalType": "uint256",
          "name": "",
          "type": "uint256"
        }
      ],
      "stateMutability": "view",
      "type": "function"
    },
    {
      "inputs": [],
      "name": "precrime",
      "outputs": [
        {
          "internalType": "address",
          "name": "",
          "type": "address"
        }
      ],
      "stateMutability": "view",
      "type": "function"
    },
    {
      "inputs": [],
      "name": "renounceOwnership",
      "outputs": [],
      "stateMutability": "nonpayable",
      "type": "function"
    },
    {
      "inputs": [
        {
          "internalType": "bytes32",
          "name": "role",
          "type": "bytes32"
        },
        {
          "internalType": "address",
          "name": "account",
          "type": "address"
        }
      ],
      "name": "renounceRole",
      "outputs": [],
      "stateMutability": "nonpayable",
      "type": "function"
    },
    {
      "inputs": [
        {
          "internalType": "uint16",
          "name": "_srcChainId",
          "type": "uint16"
        },
        {
          "internalType": "bytes",
          "name": "_srcAddress",
          "type": "bytes"
        },
        {
          "internalType": "uint64",
          "name": "_nonce",
          "type": "uint64"
        },
        {
          "internalType": "bytes",
          "name": "_payload",
          "type": "bytes"
        }
      ],
      "name": "retryMessage",
      "outputs": [],
      "stateMutability": "payable",
      "type": "function"
    },
    {
      "inputs": [
        {
          "internalType": "bytes32",
          "name": "role",
          "type": "bytes32"
        },
        {
          "internalType": "address",
          "name": "account",
          "type": "address"
        }
      ],
      "name": "revokeRole",
      "outputs": [],
      "stateMutability": "nonpayable",
      "type": "function"
    },
    {
      "inputs": [
        {
          "internalType": "uint256",
          "name": "tokenId",
          "type": "uint256"
        },
        {
          "internalType": "uint256",
          "name": "salePrice",
          "type": "uint256"
        }
      ],
      "name": "royaltyInfo",
      "outputs": [
        {
          "internalType": "address",
          "name": "",
          "type": "address"
        },
        {
          "internalType": "uint256",
          "name": "",
          "type": "uint256"
        }
      ],
      "stateMutability": "view",
      "type": "function"
    },
    {
      "inputs": [
        {
          "internalType": "address",
          "name": "from",
          "type": "address"
        },
        {
          "internalType": "address",
          "name": "to",
          "type": "address"
        },
        {
          "internalType": "uint256",
          "name": "tokenId",
          "type": "uint256"
        }
      ],
      "name": "safeTransferFrom",
      "outputs": [],
      "stateMutability": "nonpayable",
      "type": "function"
    },
    {
      "inputs": [
        {
          "internalType": "address",
          "name": "from",
          "type": "address"
        },
        {
          "internalType": "address",
          "name": "to",
          "type": "address"
        },
        {
          "internalType": "uint256",
          "name": "tokenId",
          "type": "uint256"
        },
        {
          "internalType": "bytes",
          "name": "data",
          "type": "bytes"
        }
      ],
      "name": "safeTransferFrom",
      "outputs": [],
      "stateMutability": "nonpayable",
      "type": "function"
    },
    {
      "inputs": [
        {
          "internalType": "address",
          "name": "_from",
          "type": "address"
        },
        {
          "internalType": "uint16",
          "name": "_dstChainId",
          "type": "uint16"
        },
        {
          "internalType": "bytes",
          "name": "_toAddress",
          "type": "bytes"
        },
        {
          "internalType": "uint256[]",
          "name": "_tokenIds",
          "type": "uint256[]"
        },
        {
          "internalType": "address payable",
          "name": "_refundAddress",
          "type": "address"
        },
        {
          "internalType": "address",
          "name": "_zroPaymentAddress",
          "type": "address"
        },
        {
          "internalType": "bytes",
          "name": "_adapterParams",
          "type": "bytes"
        }
      ],
      "name": "sendBatchFrom",
      "outputs": [],
      "stateMutability": "payable",
      "type": "function"
    },
    {
      "inputs": [
        {
          "internalType": "address",
          "name": "_from",
          "type": "address"
        },
        {
          "internalType": "uint16",
          "name": "_dstChainId",
          "type": "uint16"
        },
        {
          "internalType": "bytes",
          "name": "_toAddress",
          "type": "bytes"
        },
        {
          "internalType": "uint256",
          "name": "_tokenId",
          "type": "uint256"
        },
        {
          "internalType": "address payable",
          "name": "_refundAddress",
          "type": "address"
        },
        {
          "internalType": "address",
          "name": "_zroPaymentAddress",
          "type": "address"
        },
        {
          "internalType": "bytes",
          "name": "_adapterParams",
          "type": "bytes"
        }
      ],
      "name": "sendFrom",
      "outputs": [],
      "stateMutability": "payable",
      "type": "function"
    },
    {
      "inputs": [
        {
          "internalType": "address",
          "name": "operator",
          "type": "address"
        },
        {
          "internalType": "bool",
          "name": "approved",
          "type": "bool"
        }
      ],
      "name": "setApprovalForAll",
      "outputs": [],
      "stateMutability": "nonpayable",
      "type": "function"
    },
    {
      "inputs": [
        {
          "internalType": "string",
          "name": "_baseUri",
          "type": "string"
        }
      ],
      "name": "setBaseURI",
      "outputs": [],
      "stateMutability": "nonpayable",
      "type": "function"
    },
    {
      "inputs": [
        {
          "internalType": "uint16",
          "name": "_version",
          "type": "uint16"
        },
        {
          "internalType": "uint16",
          "name": "_chainId",
          "type": "uint16"
        },
        {
          "internalType": "uint256",
          "name": "_configType",
          "type": "uint256"
        },
        {
          "internalType": "bytes",
          "name": "_config",
          "type": "bytes"
        }
      ],
      "name": "setConfig",
      "outputs": [],
      "stateMutability": "nonpayable",
      "type": "function"
    },
    {
      "inputs": [
        {
          "internalType": "uint16",
          "name": "_dstChainId",
          "type": "uint16"
        },
        {
          "internalType": "uint256",
          "name": "_dstChainIdToBatchLimit",
          "type": "uint256"
        }
      ],
      "name": "setDstChainIdToBatchLimit",
      "outputs": [],
      "stateMutability": "nonpayable",
      "type": "function"
    },
    {
      "inputs": [
        {
          "internalType": "uint16",
          "name": "_dstChainId",
          "type": "uint16"
        },
        {
          "internalType": "uint256",
          "name": "_dstChainIdToTransferGas",
          "type": "uint256"
        }
      ],
      "name": "setDstChainIdToTransferGas",
      "outputs": [],
      "stateMutability": "nonpayable",
      "type": "function"
    },
    {
      "inputs": [
        {
          "internalType": "uint16",
          "name": "_dstChainId",
          "type": "uint16"
        },
        {
          "internalType": "uint16",
          "name": "_packetType",
          "type": "uint16"
        },
        {
          "internalType": "uint256",
          "name": "_minGas",
          "type": "uint256"
        }
      ],
      "name": "setMinDstGas",
      "outputs": [],
      "stateMutability": "nonpayable",
      "type": "function"
    },
    {
      "inputs": [
        {
          "internalType": "uint256",
          "name": "_minGasToTransferAndStore",
          "type": "uint256"
        }
      ],
      "name": "setMinGasToTransferAndStore",
      "outputs": [],
      "stateMutability": "nonpayable",
      "type": "function"
    },
    {
      "inputs": [
        {
          "internalType": "uint16",
          "name": "_dstChainId",
          "type": "uint16"
        },
        {
          "internalType": "uint256",
          "name": "_size",
          "type": "uint256"
        }
      ],
      "name": "setPayloadSizeLimit",
      "outputs": [],
      "stateMutability": "nonpayable",
      "type": "function"
    },
    {
      "inputs": [
        {
          "internalType": "address",
          "name": "_precrime",
          "type": "address"
        }
      ],
      "name": "setPrecrime",
      "outputs": [],
      "stateMutability": "nonpayable",
      "type": "function"
    },
    {
      "inputs": [
        {
          "internalType": "uint16",
          "name": "_version",
          "type": "uint16"
        }
      ],
      "name": "setReceiveVersion",
      "outputs": [],
      "stateMutability": "nonpayable",
      "type": "function"
    },
    {
      "inputs": [
        {
          "internalType": "uint16",
          "name": "_version",
          "type": "uint16"
        }
      ],
      "name": "setSendVersion",
      "outputs": [],
      "stateMutability": "nonpayable",
      "type": "function"
    },
    {
      "inputs": [
        {
          "internalType": "uint16",
          "name": "_remoteChainId",
          "type": "uint16"
        },
        {
          "internalType": "bytes",
          "name": "_path",
          "type": "bytes"
        }
      ],
      "name": "setTrustedRemote",
      "outputs": [],
      "stateMutability": "nonpayable",
      "type": "function"
    },
    {
      "inputs": [
        {
          "internalType": "uint16",
          "name": "_remoteChainId",
          "type": "uint16"
        },
        {
          "internalType": "bytes",
          "name": "_remoteAddress",
          "type": "bytes"
        }
      ],
      "name": "setTrustedRemoteAddress",
      "outputs": [],
      "stateMutability": "nonpayable",
      "type": "function"
    },
    {
      "inputs": [
        {
          "internalType": "bytes32",
          "name": "",
          "type": "bytes32"
        }
      ],
      "name": "storedCredits",
      "outputs": [
        {
          "internalType": "uint16",
          "name": "srcChainId",
          "type": "uint16"
        },
        {
          "internalType": "address",
          "name": "toAddress",
          "type": "address"
        },
        {
          "internalType": "uint256",
          "name": "index",
          "type": "uint256"
        },
        {
          "internalType": "bool",
          "name": "creditsRemain",
          "type": "bool"
        }
      ],
      "stateMutability": "view",
      "type": "function"
    },
    {
      "inputs": [
        {
          "internalType": "bytes4",
          "name": "interfaceId",
          "type": "bytes4"
        }
      ],
      "name": "supportsInterface",
      "outputs": [
        {
          "internalType": "bool",
          "name": "",
          "type": "bool"
        }
      ],
      "stateMutability": "view",
      "type": "function"
    },
    {
      "inputs": [],
      "name": "symbol",
      "outputs": [
        {
          "internalType": "string",
          "name": "",
          "type": "string"
        }
      ],
      "stateMutability": "view",
      "type": "function"
    },
    {
      "inputs": [
        {
          "internalType": "uint256",
          "name": "index",
          "type": "uint256"
        }
      ],
      "name": "tokenByIndex",
      "outputs": [
        {
          "internalType": "uint256",
          "name": "",
          "type": "uint256"
        }
      ],
      "stateMutability": "view",
      "type": "function"
    },
    {
      "inputs": [
        {
          "internalType": "address",
          "name": "owner",
          "type": "address"
        },
        {
          "internalType": "uint256",
          "name": "index",
          "type": "uint256"
        }
      ],
      "name": "tokenOfOwnerByIndex",
      "outputs": [
        {
          "internalType": "uint256",
          "name": "",
          "type": "uint256"
        }
      ],
      "stateMutability": "view",
      "type": "function"
    },
    {
      "inputs": [
        {
          "internalType": "uint256",
          "name": "tokenId",
          "type": "uint256"
        }
      ],
      "name": "tokenURI",
      "outputs": [
        {
          "internalType": "string",
          "name": "",
          "type": "string"
        }
      ],
      "stateMutability": "view",
      "type": "function"
    },
    {
      "inputs": [],
      "name": "totalSupply",
      "outputs": [
        {
          "internalType": "uint256",
          "name": "",
          "type": "uint256"
        }
      ],
      "stateMutability": "view",
      "type": "function"
    },
    {
      "inputs": [
        {
          "internalType": "address",
          "name": "from",
          "type": "address"
        },
        {
          "internalType": "address",
          "name": "to",
          "type": "address"
        },
        {
          "internalType": "uint256[]",
          "name": "tokenIds",
          "type": "uint256[]"
        }
      ],
      "name": "transferBatch",
      "outputs": [],
      "stateMutability": "nonpayable",
      "type": "function"
    },
    {
      "inputs": [
        {
          "internalType": "address",
          "name": "from",
          "type": "address"
        },
        {
          "internalType": "address",
          "name": "to",
          "type": "address"
        },
        {
          "internalType": "uint256",
          "name": "tokenId",
          "type": "uint256"
        }
      ],
      "name": "transferFrom",
      "outputs": [],
      "stateMutability": "nonpayable",
      "type": "function"
    },
    {
      "inputs": [
        {
          "internalType": "address",
          "name": "from",
          "type": "address"
        },
        {
          "internalType": "address[]",
          "name": "recipients",
          "type": "address[]"
        },
        {
          "internalType": "uint256[]",
          "name": "tokenIds",
          "type": "uint256[]"
        }
      ],
      "name": "transferMulti",
      "outputs": [],
      "stateMutability": "nonpayable",
      "type": "function"
    },
    {
      "inputs": [
        {
          "internalType": "address",
          "name": "newOwner",
          "type": "address"
        }
      ],
      "name": "transferOwnership",
      "outputs": [],
      "stateMutability": "nonpayable",
      "type": "function"
    },
    {
      "inputs": [
        {
          "internalType": "uint16",
          "name": "",
          "type": "uint16"
        }
      ],
      "name": "trustedRemoteLookup",
      "outputs": [
        {
          "internalType": "bytes",
          "name": "",
          "type": "bytes"
        }
      ],
      "stateMutability": "view",
      "type": "function"
    }
  ],
  "transactionHash": "0xb08376d769288e43e578996523c943c4a8fbd7be99a392ab3a9a32175aac9b27",
  "args": [
    "ArmourX: Dog Tags",
    "AXDT",
    "https://placeholder.com",
    700,
    100000,
    "0x83c73Da98cf733B03315aFa8758834b36a195b87"
  ],
  "numDeployments": 1,
  "solcInputHash": "e850cd3ab621e654094ae9bb92f86989",
  "bytecode": "0x60a06040523480156200001157600080fd5b50604051620065c0380380620065c0833981016040819052620000349162000453565b858585858585858583838383838380806200004f336200016c565b6001600160a01b031660805250600160095581620000c05760405162461bcd60e51b8152602060048201526024808201527f6d696e476173546f5472616e73666572416e6453746f7265206d7573742062656044820152630203e20360e41b60648201526084015b60405180910390fd5b50600a55600e620000d28382620005b1565b50600f620000e18282620005b1565b50505050505050620001066000801b620001006200016860201b60201c565b620001bc565b620001123384620001cc565b6019620001208582620005b1565b505050505050506200015c7f9f2df0fed2c77648de5860a4cc508cd0818c85b8b8a1ab4ceeef8d981c8956a6620001006200016860201b60201c565b5050505050506200067d565b3390565b600080546001600160a01b038381166001600160a01b0319831681178455604051919092169283917f8be0079c531659141344cd1fd0a4f28419497f9722a3daafe3b4186f6b6457e09190a35050565b620001c88282620002cd565b5050565b6127106001600160601b03821611156200023c5760405162461bcd60e51b815260206004820152602a60248201527f455243323938313a20726f79616c7479206665652077696c6c206578636565646044820152692073616c65507269636560b01b6064820152608401620000b7565b6001600160a01b038216620002945760405162461bcd60e51b815260206004820152601960248201527f455243323938313a20696e76616c6964207265636569766572000000000000006044820152606401620000b7565b604080518082019091526001600160a01b039092168083526001600160601b039091166020909201829052600160a01b90910217600755565b60008281526006602090815260408083206001600160a01b038516845290915290205460ff16620001c85760008281526006602090815260408083206001600160a01b03851684529091529020805460ff191660011790556200032d3390565b6001600160a01b0316816001600160a01b0316837f2f8788117e7eff1d82e926ec794901d17c78024a50270940304540a733656f0d60405160405180910390a45050565b634e487b7160e01b600052604160045260246000fd5b600082601f8301126200039957600080fd5b81516001600160401b0380821115620003b657620003b662000371565b604051601f8301601f19908116603f01168101908282118183101715620003e157620003e162000371565b81604052838152602092508683858801011115620003fe57600080fd5b600091505b8382101562000422578582018301518183018401529082019062000403565b600093810190920192909252949350505050565b80516001600160a01b03811681146200044e57600080fd5b919050565b60008060008060008060c087890312156200046d57600080fd5b86516001600160401b03808211156200048557600080fd5b620004938a838b0162000387565b97506020890151915080821115620004aa57600080fd5b620004b88a838b0162000387565b96506040890151915080821115620004cf57600080fd5b50620004de89828a0162000387565b606089015190955090506001600160601b0381168114620004fe57600080fd5b608088015190935091506200051660a0880162000436565b90509295509295509295565b600181811c908216806200053757607f821691505b6020821081036200055857634e487b7160e01b600052602260045260246000fd5b50919050565b601f821115620005ac57600081815260208120601f850160051c81016020861015620005875750805b601f850160051c820191505b81811015620005a85782815560010162000593565b5050505b505050565b81516001600160401b03811115620005cd57620005cd62000371565b620005e581620005de845462000522565b846200055e565b602080601f8311600181146200061d5760008415620006045750858301515b600019600386901b1c1916600185901b178555620005a8565b600085815260208120601f198616915b828110156200064e578886015182559484019460019091019084016200062d565b50858210156200066d5787850151600019600388901b60f8161c191681555b5050505050600190811b01905550565b608051615eef620006d160003960008181610b2901528181610dcf015281816110c101528181611345015281816117f80152818161239501528181612835015281816129680152613f670152615eef6000f3fe6080604052600436106103f95760003560e01c80637533d78811610213578063baf3292d11610123578063d547741f116100ab578063f23536411161007a578063f235364114610d1f578063f2fde38b14610d3f578063f5ecbdbc14610d5f578063fa25f9b614610d7f578063ff927a8e14610dac57600080fd5b8063d547741f14610c76578063df2a5b3b14610c96578063e985e9c514610cb6578063eb8d72b714610cff57600080fd5b8063cbed8b9c116100f2578063cbed8b9c14610be1578063d12473a514610c01578063d1deba1f14610c21578063d3fc986414610c34578063d539139314610c5457600080fd5b8063baf3292d14610b6b578063c042314514610b8b578063c446183414610bab578063c87b56dd14610bc157600080fd5b80639ea5d6b1116101a6578063a6c3d16511610175578063a6c3d16514610abc578063ab3ffb9314610adc578063af3fb21c14610aef578063b353aaa714610b17578063b88d4fde14610b4b57600080fd5b80639ea5d6b114610a475780639f38369a14610a67578063a217fddf14610a87578063a22cb46514610a9c57600080fd5b806391d14854116101e257806391d14854146109d2578063950c8a74146109f257806395d89b4114610a1257806398d2fb5514610a2757600080fd5b80637533d7881461093c5780638cfd8f5c1461095c5780638da5cb5b146109945780638ffa1f2a146109b257600080fd5b80632f745c591161030e5780634ac3f4ff116102a15780635b8c41e6116102705780635b8c41e6146108785780636352211e146108c757806366ad5c8a146108e757806370a0823114610907578063715018a61461092757600080fd5b80634ac3f4ff146107f85780634f6ccce714610825578063519056361461084557806355f804b31461085857600080fd5b806342842e0e116102dd57806342842e0e1461078257806342966c68146107a257806342d65a8d146107c257806348288190146107e257600080fd5b80632f745c59146106f557806336568abe146107155780633d8b38f6146107355780633f1f4fa41461075557600080fd5b806310ddb1371161039157806323b872dd1161036057806323b872dd14610611578063248a9ca3146106315780632a205e3d146106615780632a55205a146106965780632f2ff15d146106d557600080fd5b806310ddb1371461052f578063146d9ddc1461054f57806318160ddd1461056f57806322a3ecf91461058e57600080fd5b8063081812fc116103cd578063081812fc14610497578063095ea7b3146104cf5780630b4cad4c146104ef5780630df374831461050f57600080fd5b80621d3567146103fe57806301ffc9a71461042057806306fdde031461045557806307e0db1714610477575b600080fd5b34801561040a57600080fd5b5061041e6104193660046149be565b610dcc565b005b34801561042c57600080fd5b5061044061043b366004614a67565b610ffd565b60405190151581526020015b60405180910390f35b34801561046157600080fd5b5061046a61100e565b60405161044c9190614ad4565b34801561048357600080fd5b5061041e610492366004614ae7565b6110a0565b3480156104a357600080fd5b506104b76104b2366004614b02565b611129565b6040516001600160a01b03909116815260200161044c565b3480156104db57600080fd5b5061041e6104ea366004614b3b565b611150565b3480156104fb57600080fd5b5061041e61050a366004614b02565b611265565b34801561051b57600080fd5b5061041e61052a366004614b67565b611305565b34801561053b57600080fd5b5061041e61054a366004614ae7565b611324565b34801561055b57600080fd5b5061041e61056a366004614d4e565b61137c565b34801561057b57600080fd5b506016545b60405190815260200161044c565b34801561059a57600080fd5b506105e26105a9366004614b02565b600d6020526000908152604090208054600182015460029092015461ffff821692620100009092046001600160a01b0316919060ff1684565b6040805161ffff90951685526001600160a01b039093166020850152918301521515606082015260800161044c565b34801561061d57600080fd5b5061041e61062c366004614dc3565b611482565b34801561063d57600080fd5b5061058061064c366004614b02565b60009081526006602052604090206001015490565b34801561066d57600080fd5b5061068161067c366004614e14565b6114b4565b6040805192835260208301919091520161044c565b3480156106a257600080fd5b506106b66106b1366004614ea2565b6114da565b604080516001600160a01b03909316835260208301919091520161044c565b3480156106e157600080fd5b5061041e6106f0366004614ec4565b611588565b34801561070157600080fd5b50610580610710366004614b3b565b6115ad565b34801561072157600080fd5b5061041e610730366004614ec4565b611643565b34801561074157600080fd5b50610440610750366004614ef4565b6116c1565b34801561076157600080fd5b50610580610770366004614ae7565b60036020526000908152604090205481565b34801561078e57600080fd5b5061041e61079d366004614dc3565b61178d565b3480156107ae57600080fd5b5061041e6107bd366004614b02565b6117a8565b3480156107ce57600080fd5b5061041e6107dd366004614ef4565b6117d9565b3480156107ee57600080fd5b50610580600a5481565b34801561080457600080fd5b50610580610813366004614ae7565b600b6020526000908152604090205481565b34801561083157600080fd5b50610580610840366004614b02565b61185f565b61041e610853366004614f46565b6118f2565b34801561086457600080fd5b5061041e610873366004614fff565b611909565b34801561088457600080fd5b50610580610893366004615033565b6005602090815260009384526040808520845180860184018051928152908401958401959095209452929052825290205481565b3480156108d357600080fd5b506104b76108e2366004614b02565b611920565b3480156108f357600080fd5b5061041e6109023660046149be565b611980565b34801561091357600080fd5b50610580610922366004615090565b611a5c565b34801561093357600080fd5b5061041e611ae2565b34801561094857600080fd5b5061046a610957366004614ae7565b611af6565b34801561096857600080fd5b506105806109773660046150ad565b600260209081526000928352604080842090915290825290205481565b3480156109a057600080fd5b506000546001600160a01b03166104b7565b3480156109be57600080fd5b5061041e6109cd366004614fff565b611b90565b3480156109de57600080fd5b506104406109ed366004614ec4565b611dd8565b3480156109fe57600080fd5b506004546104b7906001600160a01b031681565b348015610a1e57600080fd5b5061046a611e03565b348015610a3357600080fd5b5061041e610a42366004615144565b611e12565b348015610a5357600080fd5b5061041e610a62366004614b67565b611eed565b348015610a7357600080fd5b5061046a610a82366004614ae7565b611fa4565b348015610a9357600080fd5b50610580600081565b348015610aa857600080fd5b5061041e610ab73660046151af565b6120ba565b348015610ac857600080fd5b5061041e610ad7366004614ef4565b6120c5565b61041e610aea3660046151db565b61214e565b348015610afb57600080fd5b50610b04600181565b60405161ffff909116815260200161044c565b348015610b2357600080fd5b506104b77f000000000000000000000000000000000000000000000000000000000000000081565b348015610b5757600080fd5b5061041e610b66366004615290565b61215d565b348015610b7757600080fd5b5061041e610b86366004615090565b61218f565b348015610b9757600080fd5b5061041e610ba63660046152fb565b6121e5565b348015610bb757600080fd5b5061058061271081565b348015610bcd57600080fd5b5061046a610bdc366004614b02565b612273565b348015610bed57600080fd5b5061041e610bfc366004615352565b612376565b348015610c0d57600080fd5b5061041e610c1c366004614b67565b61240b565b61041e610c2f3660046149be565b6124bb565b348015610c4057600080fd5b5061041e610c4f3660046153c0565b6126d1565b348015610c6057600080fd5b50610580600080516020615e9a83398151915281565b348015610c8257600080fd5b5061041e610c91366004614ec4565b61270d565b348015610ca257600080fd5b5061041e610cb136600461540e565b612732565b348015610cc257600080fd5b50610440610cd136600461544a565b6001600160a01b03918216600090815260136020908152604080832093909416825291909152205460ff1690565b348015610d0b57600080fd5b5061041e610d1a366004614ef4565b61279c565b348015610d2b57600080fd5b50610681610d3a366004615478565b6127f6565b348015610d4b57600080fd5b5061041e610d5a366004615090565b6128c1565b348015610d6b57600080fd5b5061046a610d7a3660046154f1565b612937565b348015610d8b57600080fd5b50610580610d9a366004614ae7565b600c6020526000908152604090205481565b348015610db857600080fd5b5061041e610dc736600461553e565b6129e8565b337f00000000000000000000000000000000000000000000000000000000000000006001600160a01b031614610e495760405162461bcd60e51b815260206004820152601e60248201527f4c7a4170703a20696e76616c696420656e64706f696e742063616c6c6572000060448201526064015b60405180910390fd5b61ffff861660009081526001602052604081208054610e679061558c565b80601f0160208091040260200160405190810160405280929190818152602001828054610e939061558c565b8015610ee05780601f10610eb557610100808354040283529160200191610ee0565b820191906000526020600020905b815481529060010190602001808311610ec357829003601f168201915b50505050509050805186869050148015610efb575060008151115b8015610f23575080516020820120604051610f1990889088906155c6565b6040518091039020145b610f7e5760405162461bcd60e51b815260206004820152602660248201527f4c7a4170703a20696e76616c696420736f757263652073656e64696e6720636f6044820152651b9d1c9858dd60d21b6064820152608401610e40565b610ff48787878080601f01602080910402602001604051908101604052809392919081815260200183838082843760009201919091525050604080516020601f8a018190048102820181019092528881528a935091508890889081908401838280828437600092019190915250612ad092505050565b50505050505050565b600061100882612b49565b92915050565b6060600e805461101d9061558c565b80601f01602080910402602001604051908101604052809291908181526020018280546110499061558c565b80156110965780601f1061106b57610100808354040283529160200191611096565b820191906000526020600020905b81548152906001019060200180831161107957829003601f168201915b5050505050905090565b6110a8612b66565b6040516307e0db1760e01b815261ffff821660048201527f00000000000000000000000000000000000000000000000000000000000000006001600160a01b0316906307e0db17906024015b600060405180830381600087803b15801561110e57600080fd5b505af1158015611122573d6000803e3d6000fd5b5050505050565b600061113482612bc0565b506000908152601260205260409020546001600160a01b031690565b600061115b82611920565b9050806001600160a01b0316836001600160a01b0316036111c85760405162461bcd60e51b815260206004820152602160248201527f4552433732313a20617070726f76616c20746f2063757272656e74206f776e656044820152603960f91b6064820152608401610e40565b336001600160a01b03821614806111e457506111e48133610cd1565b6112565760405162461bcd60e51b815260206004820152603d60248201527f4552433732313a20617070726f76652063616c6c6572206973206e6f7420746f60448201527f6b656e206f776e6572206f7220617070726f76656420666f7220616c6c0000006064820152608401610e40565b6112608383612c10565b505050565b61126d612b66565b600081116112c95760405162461bcd60e51b8152602060048201526024808201527f6d696e476173546f5472616e73666572416e6453746f7265206d7573742062656044820152630203e20360e41b6064820152608401610e40565b600a8190556040518181527ffebbc4f8bb9ec2313950c718d43123124b15778efda4c1f1d529de2995b4f34d906020015b60405180910390a150565b61130d612b66565b61ffff909116600090815260036020526040902055565b61132c612b66565b6040516310ddb13760e01b815261ffff821660048201527f00000000000000000000000000000000000000000000000000000000000000006001600160a01b0316906310ddb137906024016110f4565b600080516020615e9a83398151915261139481612c7e565b60008351116113e55760405162461bcd60e51b815260206004820152601f60248201527f4552433732313a20746f6b656e4964732063616e277420626520656d707479006044820152606401610e40565b60005b83518161ffff1610156111225761142c85858361ffff168151811061140f5761140f6155d6565b602002602001015160405180602001604052806000815250612c88565b611470848261ffff1681518110611445576114456155d6565b6020026020010151848361ffff1681518110611463576114636155d6565b6020026020010151612cbb565b8061147a81615602565b9150506113e8565b61148d335b82612d70565b6114a95760405162461bcd60e51b8152600401610e4090615623565b611260838383612dee565b6000806114cc87876114c588612f5f565b87876127f6565b915091509550959350505050565b60008281526008602090815260408083208151808301909252546001600160a01b038116808352600160a01b9091046001600160601b031692820192909252829161154f5750604080518082019091526007546001600160a01b0381168252600160a01b90046001600160601b031660208201525b60208101516000906127109061156e906001600160601b031687615670565b6115789190615687565b91519350909150505b9250929050565b6000828152600660205260409020600101546115a381612c7e565b6112608383612faa565b60006115b883611a5c565b821061161a5760405162461bcd60e51b815260206004820152602b60248201527f455243373231456e756d657261626c653a206f776e657220696e646578206f7560448201526a74206f6620626f756e647360a81b6064820152608401610e40565b506001600160a01b03919091166000908152601460209081526040808320938352929052205490565b6001600160a01b03811633146116b35760405162461bcd60e51b815260206004820152602f60248201527f416363657373436f6e74726f6c3a2063616e206f6e6c792072656e6f756e636560448201526e103937b632b9903337b91039b2b63360891b6064820152608401610e40565b6116bd8282613030565b5050565b61ffff8316600090815260016020526040812080548291906116e29061558c565b80601f016020809104026020016040519081016040528092919081815260200182805461170e9061558c565b801561175b5780601f106117305761010080835404028352916020019161175b565b820191906000526020600020905b81548152906001019060200180831161173e57829003601f168201915b5050505050905083836040516117729291906155c6565b60405180910390208180519060200120149150509392505050565b6112608383836040518060200160405280600081525061215d565b6117b133611487565b6117cd5760405162461bcd60e51b8152600401610e4090615623565b6117d681613097565b50565b6117e1612b66565b6040516342d65a8d60e01b81526001600160a01b037f000000000000000000000000000000000000000000000000000000000000000016906342d65a8d90611831908690869086906004016156d2565b600060405180830381600087803b15801561184b57600080fd5b505af1158015610ff4573d6000803e3d6000fd5b600061186a60165490565b82106118cd5760405162461bcd60e51b815260206004820152602c60248201527f455243373231456e756d657261626c653a20676c6f62616c20696e646578206f60448201526b7574206f6620626f756e647360a01b6064820152608401610e40565b601682815481106118e0576118e06155d6565b90600052602060002001549050919050565b610ff487878761190188612f5f565b8787876130d7565b600061191481612c7e565b60196112608382615736565b6000818152601060205260408120546001600160a01b0316806110085760405162461bcd60e51b8152602060048201526018602482015277115490cdcc8c4e881a5b9d985b1a59081d1bdad95b88125160421b6044820152606401610e40565b3330146119de5760405162461bcd60e51b815260206004820152602660248201527f4e6f6e626c6f636b696e674c7a4170703a2063616c6c6572206d7573742062656044820152650204c7a4170760d41b6064820152608401610e40565b611a548686868080601f01602080910402602001604051908101604052809392919081815260200183838082843760009201919091525050604080516020601f8901819004810282018101909252878152899350915087908790819084018382808284376000920191909152506132ab92505050565b505050505050565b60006001600160a01b038216611ac65760405162461bcd60e51b815260206004820152602960248201527f4552433732313a2061646472657373207a65726f206973206e6f7420612076616044820152683634b21037bbb732b960b91b6064820152608401610e40565b506001600160a01b031660009081526011602052604090205490565b611aea612b66565b611af46000613402565b565b60016020526000908152604090208054611b0f9061558c565b80601f0160208091040260200160405190810160405280929190818152602001828054611b3b9061558c565b8015611b885780601f10611b5d57610100808354040283529160200191611b88565b820191906000526020600020905b815481529060010190602001808311611b6b57829003601f168201915b505050505081565b611b98613452565b80516020808301919091206000818152600d90925260409091206002015460ff16611bf95760405162461bcd60e51b81526020600482015260116024820152701b9bc818dc99591a5d1cc81cdd1bdc9959607a1b6044820152606401610e40565b600082806020019051810190611c0f919061583a565b6000848152600d602052604081208054600190910154929450909250611c4b9161ffff8216916201000090046001600160a01b031690856134ab565b6000848152600d60205260409020600101549091508111611cc05760405162461bcd60e51b815260206004820152602960248201527f6e6f7420656e6f7567682067617320746f2070726f6365737320637265646974604482015268103a3930b739b332b960b91b6064820152608401610e40565b81518103611d37576000838152600d602052604080822080546001600160b01b031916815560018101929092556002909101805460ff19169055517fd7be02b8dd0d27bd0517a9cb4d7469ce27df4313821ae5ec1ff69acc594ba23390611d2a9085815260200190565b60405180910390a1611dcb565b604080516080810182526000858152600d6020818152848320805461ffff80821687526001600160a01b03620100008084048216868a019081529989018b8152600160608b01818152998f90529790965297519851169096026001600160b01b03199091169690951695909517939093178455915191830191909155516002909101805491151560ff199092169190911790555b5050506117d66001600955565b60009182526006602090815260408084206001600160a01b0393909316845291905290205460ff1690565b6060600f805461101d9061558c565b60008251118015611e24575080518251145b611e705760405162461bcd60e51b815260206004820152601d60248201527f4552433732313a20696e707574206c656e677468206d69736d617463680000006044820152606401610e40565b60005b81518161ffff161015611ee757611ed584848361ffff1681518110611e9a57611e9a6155d6565b6020026020010151848461ffff1681518110611eb857611eb86155d6565b60200260200101516040518060200160405280600081525061215d565b80611edf81615602565b915050611e73565b50505050565b611ef5612b66565b60008111611f505760405162461bcd60e51b815260206004820152602260248201527f647374436861696e4964546f42617463684c696d6974206d757374206265203e604482015261020360f41b6064820152608401610e40565b61ffff82166000818152600b6020908152604091829020849055815192835282018390527f7315f7654d594ead24a30160ed9ba2d23247f543016b918343591e93d7afdb6d91015b60405180910390a15050565b61ffff8116600090815260016020526040812080546060929190611fc79061558c565b80601f0160208091040260200160405190810160405280929190818152602001828054611ff39061558c565b80156120405780601f1061201557610100808354040283529160200191612040565b820191906000526020600020905b81548152906001019060200180831161202357829003601f168201915b5050505050905080516000036120985760405162461bcd60e51b815260206004820152601d60248201527f4c7a4170703a206e6f20747275737465642070617468207265636f72640000006044820152606401610e40565b6120b36000601483516120ab91906158f4565b8391906134f7565b9392505050565b6116bd338383613604565b6120cd612b66565b8181306040516020016120e293929190615907565b60408051601f1981840301815291815261ffff851660009081526001602052209061210d9082615736565b507f8c0400cfe2d1199b1a725c78960bcc2a344d869b80590d0f2bd005db15a572ce838383604051612141939291906156d2565b60405180910390a1505050565b610ff4878787878787876130d7565b6121673383612d70565b6121835760405162461bcd60e51b8152600401610e4090615623565b611ee7848484846136d2565b612197612b66565b600480546001600160a01b0319166001600160a01b0383169081179091556040519081527f5db758e995a17ec1ad84bdef7e8c3293a0bd6179bcce400dff5d4c3d87db726b906020016112fa565b60008151116122365760405162461bcd60e51b815260206004820152601f60248201527f4552433732313a20746f6b656e4964732063616e277420626520656d707479006044820152606401610e40565b60005b81518161ffff161015611ee7576122618484848461ffff1681518110611eb857611eb86155d6565b8061226b81615602565b915050612239565b606061227e82612bc0565b6000828152601a6020526040812080546122979061558c565b80601f01602080910402602001604051908101604052809291908181526020018280546122c39061558c565b80156123105780601f106122e557610100808354040283529160200191612310565b820191906000526020600020905b8154815290600101906020018083116122f357829003601f168201915b505050505090506000612321613705565b90508051600003612333575092915050565b81511561236557808260405160200161234d92919061592d565b60405160208183030381529060405292505050919050565b61236e84613714565b949350505050565b61237e612b66565b6040516332fb62e760e21b81526001600160a01b037f0000000000000000000000000000000000000000000000000000000000000000169063cbed8b9c906123d2908890889088908890889060040161595c565b600060405180830381600087803b1580156123ec57600080fd5b505af1158015612400573d6000803e3d6000fd5b505050505050505050565b612413612b66565b6000811161246f5760405162461bcd60e51b815260206004820152602360248201527f647374436861696e4964546f5472616e73666572476173206d7573742062652060448201526203e20360ec1b6064820152608401610e40565b61ffff82166000818152600c6020908152604091829020849055815192835282018390527fc46df2983228ac2d9754e94a0d565e6671665dc8ad38602bc8e544f0685a29fb9101611f98565b61ffff861660009081526005602052604080822090516124de90889088906155c6565b90815260408051602092819003830190206001600160401b0387166000908152925290205490508061255e5760405162461bcd60e51b815260206004820152602360248201527f4e6f6e626c6f636b696e674c7a4170703a206e6f2073746f726564206d65737360448201526261676560e81b6064820152608401610e40565b80838360405161256f9291906155c6565b6040518091039020146125ce5760405162461bcd60e51b815260206004820152602160248201527f4e6f6e626c6f636b696e674c7a4170703a20696e76616c6964207061796c6f616044820152601960fa1b6064820152608401610e40565b61ffff871660009081526005602052604080822090516125f190899089906155c6565b90815260408051602092819003830181206001600160401b038916600090815290845282902093909355601f88018290048202830182019052868252612689918991899089908190840183828082843760009201919091525050604080516020601f8a018190048102820181019092528881528a9350915088908890819084018382808284376000920191909152506132ab92505050565b7fc264d91f3adc5588250e1551f547752ca0cfa8f6b530d243b9f9f4cab10ea8e587878787856040516126c0959493929190615995565b60405180910390a150505050505050565b600080516020615e9a8339815191526126e981612c7e565b612703848460405180602001604052806000815250612c88565b611ee78383612cbb565b60008281526006602052604090206001015461272881612c7e565b6112608383613030565b61273a612b66565b61ffff83811660008181526002602090815260408083209487168084529482529182902085905581519283528201929092529081018290527f9d5c7c0b934da8fefa9c7760c98383778a12dfbfc0c3b3106518f43fb9508ac090606001612141565b6127a4612b66565b61ffff831660009081526001602052604090206127c28284836159d0565b507ffa41487ad5d6728f0b19276fa1eddc16558578f5109fc39d2dc33c3230470dab838383604051612141939291906156d2565b6000806000868660405160200161280e929190615aca565b60408051601f198184030181529082905263040a7bb160e41b825291506001600160a01b037f000000000000000000000000000000000000000000000000000000000000000016906340a7bb1090612872908b90309086908b908b90600401615aef565b6040805180830381865afa15801561288e573d6000803e3d6000fd5b505050506040513d601f19601f820116820180604052508101906128b29190615b43565b92509250509550959350505050565b6128c9612b66565b6001600160a01b03811661292e5760405162461bcd60e51b815260206004820152602660248201527f4f776e61626c653a206e6577206f776e657220697320746865207a65726f206160448201526564647265737360d01b6064820152608401610e40565b6117d681613402565b604051633d7b2f6f60e21b815261ffff808616600483015284166024820152306044820152606481018290526060907f00000000000000000000000000000000000000000000000000000000000000006001600160a01b03169063f5ecbdbc90608401600060405180830381865afa1580156129b7573d6000803e3d6000fd5b505050506040513d6000823e601f3d908101601f191682016040526129df9190810190615b67565b95945050505050565b600080516020615e9a833981519152612a0081612c7e565b60008451118015612a12575082518451145b612a5e5760405162461bcd60e51b815260206004820152601d60248201527f4552433732313a20696e707574206c656e677468206d69736d617463680000006044820152606401610e40565b60005b83518161ffff16101561112257612aa5858261ffff1681518110612a8757612a876155d6565b6020026020010151858361ffff168151811061140f5761140f6155d6565b612abe848261ffff1681518110611445576114456155d6565b80612ac881615602565b915050612a61565b600080612b335a60966366ad5c8a60e01b89898989604051602401612af89493929190615b9b565b60408051601f198184030181529190526020810180516001600160e01b03166001600160e01b031990931692909217909152309291906137f7565b9150915081611a5457611a548686868685613881565b60006001600160e01b03198216158061100857506110088261391e565b6000546001600160a01b03163314611af45760405162461bcd60e51b815260206004820181905260248201527f4f776e61626c653a2063616c6c6572206973206e6f7420746865206f776e65726044820152606401610e40565b612bc981613943565b6117d65760405162461bcd60e51b8152602060048201526018602482015277115490cdcc8c4e881a5b9d985b1a59081d1bdad95b88125160421b6044820152606401610e40565b600081815260126020526040902080546001600160a01b0319166001600160a01b0384169081179091558190612c4582611920565b6001600160a01b03167f8c5be1e5ebec7d5bd14f71427d1e84f3dd0314c0f7b2291e5b200ac8c7c3b92560405160405180910390a45050565b6117d68133613960565b612c9283836139b9565b612c9f6000848484613b34565b6112605760405162461bcd60e51b8152600401610e4090615bd9565b612cc482613943565b612d275760405162461bcd60e51b815260206004820152602e60248201527f45524337323155524953746f726167653a2055524920736574206f66206e6f6e60448201526d32bc34b9ba32b73a103a37b5b2b760911b6064820152608401610e40565b6000828152601860205260409020612d3f8282615736565b506040518281527ff8e1a15aba9398e019f0b49df1a4fde98ee17ae345cb5f6b5e2c27f5033e8ce790602001611f98565b600080612d7c83611920565b9050806001600160a01b0316846001600160a01b03161480612dc357506001600160a01b0380821660009081526013602090815260408083209388168352929052205460ff165b8061236e5750836001600160a01b0316612ddc84611129565b6001600160a01b031614949350505050565b826001600160a01b0316612e0182611920565b6001600160a01b031614612e275760405162461bcd60e51b8152600401610e4090615c2b565b6001600160a01b038216612e895760405162461bcd60e51b8152602060048201526024808201527f4552433732313a207472616e7366657220746f20746865207a65726f206164646044820152637265737360e01b6064820152608401610e40565b612e968383836001613c32565b826001600160a01b0316612ea982611920565b6001600160a01b031614612ecf5760405162461bcd60e51b8152600401610e4090615c2b565b600081815260126020908152604080832080546001600160a01b03199081169091556001600160a01b0387811680865260118552838620805460001901905590871680865283862080546001019055868652601090945282852080549092168417909155905184937fddf252ad1be2c89b69c2b068fc378daa952ba7f163c4a11628f55a4df523b3ef91a4505050565b60408051600180825281830190925260609160009190602080830190803683370190505090508281600081518110612f9957612f996155d6565b602090810291909101015292915050565b612fb48282611dd8565b6116bd5760008281526006602090815260408083206001600160a01b03851684529091529020805460ff19166001179055612fec3390565b6001600160a01b0316816001600160a01b0316837f2f8788117e7eff1d82e926ec794901d17c78024a50270940304540a733656f0d60405160405180910390a45050565b61303a8282611dd8565b156116bd5760008281526006602090815260408083206001600160a01b0385168085529252808320805460ff1916905551339285917ff6391f5c32d9c69d2a47ea670b442974b53935d1edc7fd64eb21e047a839171b9190a45050565b6130a081613c3e565b6000818152601a6020526040902080546130b99061558c565b1590506117d6576000818152601a602052604081206117d691614901565b600084511161311e5760405162461bcd60e51b8152602060048201526013602482015272746f6b656e4964735b5d20697320656d70747960681b6044820152606401610e40565b835160011480613142575061ffff86166000908152600b6020526040902054845111155b6131995760405162461bcd60e51b815260206004820152602260248201527f62617463682073697a65206578636565647320647374206261746368206c696d6044820152611a5d60f21b6064820152608401610e40565b60005b84518110156131dc576131ca8888888885815181106131bd576131bd6155d6565b6020026020010151613c7e565b806131d481615c70565b91505061319c565b50600085856040516020016131f2929190615aca565b6040516020818303038152906040529050613237876001848851600c60008d61ffff1661ffff168152602001908152602001600020546132329190615670565b613d69565b613245878286868634613e3e565b856040516132539190615c89565b6040518091039020886001600160a01b03168861ffff167fe1b87c47fdeb4f9cbadbca9df3af7aba453bb6e501075d0440d88125b711522a886040516132999190615ca5565b60405180910390a45050505050505050565b600080828060200190518101906132c2919061583a565b6014820151919350915060006132da888383866134ab565b905082518110156133ae5784516020808701919091206040805160808101825261ffff808d1682526001600160a01b038088168387019081528385018881526001606086018181526000898152600d909a529887902095518654935190941662010000026001600160b01b03199093169390941692909217178355519082015592516002909301805493151560ff199094169390931790925590517f10e0b70d256bccc84b7027506978bd8b68984a870788b93b479def144c839ad7906133a49083908990615cb8565b60405180910390a1505b816001600160a01b0316876040516133c69190615c89565b60405180910390208961ffff167f5b821db8a46f8ecbe1941ba2f51cfeea9643268b56631f70d45e2a745d990265866040516132999190615ca5565b600080546001600160a01b038381166001600160a01b0319831681178455604051919092169283917f8be0079c531659141344cd1fd0a4f28419497f9722a3daafe3b4186f6b6457e09190a35050565b6002600954036134a45760405162461bcd60e51b815260206004820152601f60248201527f5265656e7472616e637947756172643a207265656e7472616e742063616c6c006044820152606401610e40565b6002600955565b6000825b82518110156129df57600a545a106129df576134e586868584815181106134d8576134d86155d6565b6020026020010151613fe3565b806134ef81615c70565b9150506134af565b60608161350581601f615cd1565b10156135445760405162461bcd60e51b815260206004820152600e60248201526d736c6963655f6f766572666c6f7760901b6044820152606401610e40565b61354e8284615cd1565b845110156135925760405162461bcd60e51b8152602060048201526011602482015270736c6963655f6f75744f66426f756e647360781b6044820152606401610e40565b6060821580156135b157604051915060008252602082016040526135fb565b6040519150601f8416801560200281840101858101878315602002848b0101015b818310156135ea5780518352602092830192016135d2565b5050858452601f01601f1916604052505b50949350505050565b816001600160a01b0316836001600160a01b0316036136655760405162461bcd60e51b815260206004820152601960248201527f4552433732313a20617070726f766520746f2063616c6c6572000000000000006044820152606401610e40565b6001600160a01b03838116600081815260136020908152604080832094871680845294825291829020805460ff191686151590811790915591519182527f17307eab39ab6107e8899845ad3d59bd9653f200f220920489ca2b5937696c31910160405180910390a3505050565b6136dd848484612dee565b6136e984848484613b34565b611ee75760405162461bcd60e51b8152600401610e4090615bd9565b60606019805461101d9061558c565b606061371f82612bc0565b600082815260186020526040812080546137389061558c565b80601f01602080910402602001604051908101604052809291908181526020018280546137649061558c565b80156137b15780601f10613786576101008083540402835291602001916137b1565b820191906000526020600020905b81548152906001019060200180831161379457829003601f168201915b5050505050905060006137c2613705565b905080516000036137d4575092915050565b8151156137ee57808260405160200161234d92919061592d565b61236e84614043565b6000606060008060008661ffff166001600160401b0381111561381c5761381c614b83565b6040519080825280601f01601f191660200182016040528015613846576020820181803683370190505b50905060008087516020890160008d8df191503d925086831115613868578692505b828152826000602083013e909890975095505050505050565b8180519060200120600560008761ffff1661ffff168152602001908152602001600020856040516138b29190615c89565b9081526040805191829003602090810183206001600160401b0388166000908152915220919091557fe183f33de2837795525b4792ca4cd60535bd77c53b7e7030060bfcf5734d6b0c9061390f9087908790879087908790615ce4565b60405180910390a15050505050565b60006001600160e01b03198216632483248360e11b14806110085750611008826140a9565b6000908152601060205260409020546001600160a01b0316151590565b61396a8282611dd8565b6116bd57613977816140ce565b6139828360206140e0565b604051602001613993929190615d36565b60408051601f198184030181529082905262461bcd60e51b8252610e4091600401614ad4565b6001600160a01b038216613a0f5760405162461bcd60e51b815260206004820181905260248201527f4552433732313a206d696e7420746f20746865207a65726f20616464726573736044820152606401610e40565b613a1881613943565b15613a655760405162461bcd60e51b815260206004820152601c60248201527f4552433732313a20746f6b656e20616c7265616479206d696e746564000000006044820152606401610e40565b613a73600083836001613c32565b613a7c81613943565b15613ac95760405162461bcd60e51b815260206004820152601c60248201527f4552433732313a20746f6b656e20616c7265616479206d696e746564000000006044820152606401610e40565b6001600160a01b038216600081815260116020908152604080832080546001019055848352601090915280822080546001600160a01b0319168417905551839291907fddf252ad1be2c89b69c2b068fc378daa952ba7f163c4a11628f55a4df523b3ef908290a45050565b60006001600160a01b0384163b15613c2a57604051630a85bd0160e11b81526001600160a01b0385169063150b7a0290613b78903390899088908890600401615dab565b6020604051808303816000875af1925050508015613bb3575060408051601f3d908101601f19168201909252613bb091810190615de8565b60015b613c10573d808015613be1576040519150601f19603f3d011682016040523d82523d6000602084013e613be6565b606091505b508051600003613c085760405162461bcd60e51b8152600401610e4090615bd9565b805181602001fd5b6001600160e01b031916630a85bd0160e11b14905061236e565b50600161236e565b611ee78484848461427b565b613c47816143a8565b60008181526018602052604090208054613c609061558c565b1590506117d65760008181526018602052604081206117d691614901565b613c8733611487565b613cea5760405162461bcd60e51b815260206004820152602e60248201527f4f4e46543732313a2073656e642063616c6c6572206973206e6f74206f776e6560448201526d1c881b9bdc88185c1c1c9bdd995960921b6064820152608401610e40565b836001600160a01b0316613cfd82611920565b6001600160a01b031614613d5e5760405162461bcd60e51b815260206004820152602260248201527f4f4e46543732313a2073656e642066726f6d20696e636f7272656374206f776e60448201526132b960f11b6064820152608401610e40565b611ee7843083612dee565b6000613d74836143c2565b61ffff80871660009081526002602090815260408083209389168352929052205490915080613de55760405162461bcd60e51b815260206004820152601a60248201527f4c7a4170703a206d696e4761734c696d6974206e6f74207365740000000000006044820152606401610e40565b613def8382615cd1565b821015611a545760405162461bcd60e51b815260206004820152601b60248201527f4c7a4170703a20676173206c696d697420697320746f6f206c6f7700000000006044820152606401610e40565b61ffff861660009081526001602052604081208054613e5c9061558c565b80601f0160208091040260200160405190810160405280929190818152602001828054613e889061558c565b8015613ed55780601f10613eaa57610100808354040283529160200191613ed5565b820191906000526020600020905b815481529060010190602001808311613eb857829003601f168201915b505050505090508051600003613f465760405162461bcd60e51b815260206004820152603060248201527f4c7a4170703a2064657374696e6174696f6e20636861696e206973206e6f742060448201526f61207472757374656420736f7572636560801b6064820152608401610e40565b613f5187875161441e565b60405162c5803160e81b81526001600160a01b037f0000000000000000000000000000000000000000000000000000000000000000169063c5803100908490613fa8908b9086908c908c908c908c90600401615e05565b6000604051808303818588803b158015613fc157600080fd5b505af1158015613fd5573d6000803e3d6000fd5b505050505050505050505050565b613fec81613943565b15806140185750613ffc81613943565b801561401857503061400d82611920565b6001600160a01b0316145b61402157600080fd5b61402a81613943565b61403857611260828261448f565b611260308383612dee565b606061404e82612bc0565b6000614058613705565b9050600081511161407857604051806020016040528060008152506120b3565b80614082846144a9565b60405160200161409392919061592d565b6040516020818303038152906040529392505050565b60006001600160e01b0319821663780e9d6360e01b148061100857506110088261453b565b60606110086001600160a01b03831660145b606060006140ef836002615670565b6140fa906002615cd1565b6001600160401b0381111561411157614111614b83565b6040519080825280601f01601f19166020018201604052801561413b576020820181803683370190505b509050600360fc1b81600081518110614156576141566155d6565b60200101906001600160f81b031916908160001a905350600f60fb1b81600181518110614185576141856155d6565b60200101906001600160f81b031916908160001a90535060006141a9846002615670565b6141b4906001615cd1565b90505b600181111561422c576f181899199a1a9b1b9c1cb0b131b232b360811b85600f16601081106141e8576141e86155d6565b1a60f81b8282815181106141fe576141fe6155d6565b60200101906001600160f81b031916908160001a90535060049490941c9361422581615e6c565b90506141b7565b5083156120b35760405162461bcd60e51b815260206004820181905260248201527f537472696e67733a20686578206c656e67746820696e73756666696369656e746044820152606401610e40565b60018111156142ea5760405162461bcd60e51b815260206004820152603560248201527f455243373231456e756d657261626c653a20636f6e7365637574697665207472604482015274185b9cd9995c9cc81b9bdd081cdd5c1c1bdc9d1959605a1b6064820152608401610e40565b816001600160a01b0385166143465761434181601680546000838152601760205260408120829055600182018355919091527fd833147d7dc355ba459fc788f669e58cfaf9dc25ddcd0702e87d69c7b51242890155565b614369565b836001600160a01b0316856001600160a01b031614614369576143698582614546565b6001600160a01b03841661438557614380816145e3565b611122565b846001600160a01b0316846001600160a01b031614611122576111228482614692565b6143b1816146d6565b600090815260086020526040812055565b60006022825110156144165760405162461bcd60e51b815260206004820152601c60248201527f4c7a4170703a20696e76616c69642061646170746572506172616d73000000006044820152606401610e40565b506022015190565b61ffff82166000908152600360205260408120549081900361443f57506127105b808211156112605760405162461bcd60e51b815260206004820181905260248201527f4c7a4170703a207061796c6f61642073697a6520697320746f6f206c617267656044820152606401610e40565b6116bd828260405180602001604052806000815250612c88565b606060006144b683614779565b60010190506000816001600160401b038111156144d5576144d5614b83565b6040519080825280601f01601f1916602001820160405280156144ff576020820181803683370190505b5090508181016020015b600019016f181899199a1a9b1b9c1cb0b131b232b360811b600a86061a8153600a850494508461450957509392505050565b600061100882614851565b6000600161455384611a5c565b61455d91906158f4565b6000838152601560205260409020549091508082146145b0576001600160a01b03841660009081526014602090815260408083208584528252808320548484528184208190558352601590915290208190555b5060009182526015602090815260408084208490556001600160a01b039094168352601481528383209183525290812055565b6016546000906145f5906001906158f4565b6000838152601760205260408120546016805493945090928490811061461d5761461d6155d6565b90600052602060002001549050806016838154811061463e5761463e6155d6565b600091825260208083209091019290925582815260179091526040808220849055858252812055601680548061467657614676615e83565b6001900381819060005260206000200160009055905550505050565b600061469d83611a5c565b6001600160a01b039093166000908152601460209081526040808320868452825280832085905593825260159052919091209190915550565b60006146e182611920565b90506146f1816000846001613c32565b6146fa82611920565b600083815260126020908152604080832080546001600160a01b03199081169091556001600160a01b0385168085526011845282852080546000190190558785526010909352818420805490911690555192935084927fddf252ad1be2c89b69c2b068fc378daa952ba7f163c4a11628f55a4df523b3ef908390a45050565b60008072184f03e93ff9f4daa797ed6e38ed64bf6a1f0160401b83106147b85772184f03e93ff9f4daa797ed6e38ed64bf6a1f0160401b830492506040015b6d04ee2d6d415b85acef810000000083106147e4576d04ee2d6d415b85acef8100000000830492506020015b662386f26fc10000831061480257662386f26fc10000830492506010015b6305f5e100831061481a576305f5e100830492506008015b612710831061482e57612710830492506004015b60648310614840576064830492506002015b600a83106110085760010192915050565b60006001600160e01b031982166380ac58cd60e01b148061488257506001600160e01b03198216635b5e139f60e01b145b8061100857506110088260006001600160e01b031982166322bac5d960e01b148061100857506110088260006001600160e01b0319821663152a902d60e11b148061100857506110088260006001600160e01b03198216637965db0b60e01b148061100857506301ffc9a760e01b6001600160e01b0319831614611008565b50805461490d9061558c565b6000825580601f1061491d575050565b601f0160209004906000526020600020908101906117d691905b8082111561494b5760008155600101614937565b5090565b803561ffff8116811461496157600080fd5b919050565b60008083601f84011261497857600080fd5b5081356001600160401b0381111561498f57600080fd5b60208301915083602082850101111561158157600080fd5b80356001600160401b038116811461496157600080fd5b600080600080600080608087890312156149d757600080fd5b6149e08761494f565b955060208701356001600160401b03808211156149fc57600080fd5b614a088a838b01614966565b9097509550859150614a1c60408a016149a7565b94506060890135915080821115614a3257600080fd5b50614a3f89828a01614966565b979a9699509497509295939492505050565b6001600160e01b0319811681146117d657600080fd5b600060208284031215614a7957600080fd5b81356120b381614a51565b60005b83811015614a9f578181015183820152602001614a87565b50506000910152565b60008151808452614ac0816020860160208601614a84565b601f01601f19169290920160200192915050565b6020815260006120b36020830184614aa8565b600060208284031215614af957600080fd5b6120b38261494f565b600060208284031215614b1457600080fd5b5035919050565b6001600160a01b03811681146117d657600080fd5b803561496181614b1b565b60008060408385031215614b4e57600080fd5b8235614b5981614b1b565b946020939093013593505050565b60008060408385031215614b7a57600080fd5b614b598361494f565b634e487b7160e01b600052604160045260246000fd5b604051601f8201601f191681016001600160401b0381118282101715614bc157614bc1614b83565b604052919050565b60006001600160401b03821115614be257614be2614b83565b5060051b60200190565b600082601f830112614bfd57600080fd5b81356020614c12614c0d83614bc9565b614b99565b82815260059290921b84018101918181019086841115614c3157600080fd5b8286015b84811015614c4c5780358352918301918301614c35565b509695505050505050565b60006001600160401b03821115614c7057614c70614b83565b50601f01601f191660200190565b600082601f830112614c8f57600080fd5b8135614c9d614c0d82614c57565b818152846020838601011115614cb257600080fd5b816020850160208301376000918101602001919091529392505050565b600082601f830112614ce057600080fd5b81356020614cf0614c0d83614bc9565b82815260059290921b84018101918181019086841115614d0f57600080fd5b8286015b84811015614c4c5780356001600160401b03811115614d325760008081fd5b614d408986838b0101614c7e565b845250918301918301614d13565b600080600060608486031215614d6357600080fd5b8335614d6e81614b1b565b925060208401356001600160401b0380821115614d8a57600080fd5b614d9687838801614bec565b93506040860135915080821115614dac57600080fd5b50614db986828701614ccf565b9150509250925092565b600080600060608486031215614dd857600080fd5b8335614de381614b1b565b92506020840135614df381614b1b565b929592945050506040919091013590565b8035801515811461496157600080fd5b600080600080600060a08688031215614e2c57600080fd5b614e358661494f565b945060208601356001600160401b0380821115614e5157600080fd5b614e5d89838a01614c7e565b955060408801359450614e7260608901614e04565b93506080880135915080821115614e8857600080fd5b50614e9588828901614c7e565b9150509295509295909350565b60008060408385031215614eb557600080fd5b50508035926020909101359150565b60008060408385031215614ed757600080fd5b823591506020830135614ee981614b1b565b809150509250929050565b600080600060408486031215614f0957600080fd5b614f128461494f565b925060208401356001600160401b03811115614f2d57600080fd5b614f3986828701614966565b9497909650939450505050565b600080600080600080600060e0888a031215614f6157600080fd5b8735614f6c81614b1b565b9650614f7a6020890161494f565b955060408801356001600160401b0380821115614f9657600080fd5b614fa28b838c01614c7e565b965060608a0135955060808a01359150614fbb82614b1b565b90935060a089013590614fcd82614b1b565b90925060c08901359080821115614fe357600080fd5b50614ff08a828b01614c7e565b91505092959891949750929550565b60006020828403121561501157600080fd5b81356001600160401b0381111561502757600080fd5b61236e84828501614c7e565b60008060006060848603121561504857600080fd5b6150518461494f565b925060208401356001600160401b0381111561506c57600080fd5b61507886828701614c7e565b925050615087604085016149a7565b90509250925092565b6000602082840312156150a257600080fd5b81356120b381614b1b565b600080604083850312156150c057600080fd5b6150c98361494f565b91506150d76020840161494f565b90509250929050565b600082601f8301126150f157600080fd5b81356020615101614c0d83614bc9565b82815260059290921b8401810191818101908684111561512057600080fd5b8286015b84811015614c4c57803561513781614b1b565b8352918301918301615124565b60008060006060848603121561515957600080fd5b833561516481614b1b565b925060208401356001600160401b038082111561518057600080fd5b61518c878388016150e0565b935060408601359150808211156151a257600080fd5b50614db986828701614bec565b600080604083850312156151c257600080fd5b82356151cd81614b1b565b91506150d760208401614e04565b600080600080600080600060e0888a0312156151f657600080fd5b873561520181614b1b565b965061520f6020890161494f565b955060408801356001600160401b038082111561522b57600080fd5b6152378b838c01614c7e565b965060608a013591508082111561524d57600080fd5b6152598b838c01614bec565b955060808a0135915061526b82614b1b565b81945061527a60a08b01614b30565b935060c08a0135915080821115614fe357600080fd5b600080600080608085870312156152a657600080fd5b84356152b181614b1b565b935060208501356152c181614b1b565b92506040850135915060608501356001600160401b038111156152e357600080fd5b6152ef87828801614c7e565b91505092959194509250565b60008060006060848603121561531057600080fd5b833561531b81614b1b565b9250602084013561532b81614b1b565b915060408401356001600160401b0381111561534657600080fd5b614db986828701614bec565b60008060008060006080868803121561536a57600080fd5b6153738661494f565b94506153816020870161494f565b93506040860135925060608601356001600160401b038111156153a357600080fd5b6153af88828901614966565b969995985093965092949392505050565b6000806000606084860312156153d557600080fd5b83356153e081614b1b565b92506020840135915060408401356001600160401b0381111561540257600080fd5b614db986828701614c7e565b60008060006060848603121561542357600080fd5b61542c8461494f565b925061543a6020850161494f565b9150604084013590509250925092565b6000806040838503121561545d57600080fd5b823561546881614b1b565b91506020830135614ee981614b1b565b600080600080600060a0868803121561549057600080fd5b6154998661494f565b945060208601356001600160401b03808211156154b557600080fd5b6154c189838a01614c7e565b955060408801359150808211156154d757600080fd5b6154e389838a01614bec565b9450614e7260608901614e04565b6000806000806080858703121561550757600080fd5b6155108561494f565b935061551e6020860161494f565b9250604085013561552e81614b1b565b9396929550929360600135925050565b60008060006060848603121561555357600080fd5b83356001600160401b038082111561556a57600080fd5b615576878388016150e0565b94506020860135915080821115614d8a57600080fd5b600181811c908216806155a057607f821691505b6020821081036155c057634e487b7160e01b600052602260045260246000fd5b50919050565b8183823760009101908152919050565b634e487b7160e01b600052603260045260246000fd5b634e487b7160e01b600052601160045260246000fd5b600061ffff808316818103615619576156196155ec565b6001019392505050565b6020808252602d908201527f4552433732313a2063616c6c6572206973206e6f7420746f6b656e206f776e6560408201526c1c881bdc88185c1c1c9bdd9959609a1b606082015260800190565b8082028115828204841417611008576110086155ec565b6000826156a457634e487b7160e01b600052601260045260246000fd5b500490565b81835281816020850137506000828201602090810191909152601f909101601f19169091010190565b61ffff841681526040602082015260006129df6040830184866156a9565b601f82111561126057600081815260208120601f850160051c810160208610156157175750805b601f850160051c820191505b81811015611a5457828155600101615723565b81516001600160401b0381111561574f5761574f614b83565b6157638161575d845461558c565b846156f0565b602080601f83116001811461579857600084156157805750858301515b600019600386901b1c1916600185901b178555611a54565b600085815260208120601f198616915b828110156157c7578886015182559484019460019091019084016157a8565b50858210156157e55787850151600019600388901b60f8161c191681555b5050505050600190811b01905550565b600082601f83011261580657600080fd5b8151615814614c0d82614c57565b81815284602083860101111561582957600080fd5b61236e826020830160208701614a84565b6000806040838503121561584d57600080fd5b82516001600160401b038082111561586457600080fd5b615870868387016157f5565b935060209150818501518181111561588757600080fd5b85019050601f8101861361589a57600080fd5b80516158a8614c0d82614bc9565b81815260059190911b820183019083810190888311156158c757600080fd5b928401925b828410156158e5578351825292840192908401906158cc565b80955050505050509250929050565b81810381811115611008576110086155ec565b8284823760609190911b6bffffffffffffffffffffffff19169101908152601401919050565b6000835161593f818460208801614a84565b835190830190615953818360208801614a84565b01949350505050565b600061ffff80881683528087166020840152508460408301526080606083015261598a6080830184866156a9565b979650505050505050565b61ffff861681526080602082015260006159b36080830186886156a9565b6001600160401b0394909416604083015250606001529392505050565b6001600160401b038311156159e7576159e7614b83565b6159fb836159f5835461558c565b836156f0565b6000601f841160018114615a2f5760008515615a175750838201355b600019600387901b1c1916600186901b178355611122565b600083815260209020601f19861690835b82811015615a605786850135825560209485019460019092019101615a40565b5086821015615a7d5760001960f88860031b161c19848701351681555b505060018560011b0183555050505050565b600081518084526020808501945080840160005b83811015615abf57815187529582019590820190600101615aa3565b509495945050505050565b604081526000615add6040830185614aa8565b82810360208401526129df8185615a8f565b61ffff861681526001600160a01b038516602082015260a060408201819052600090615b1d90830186614aa8565b84151560608401528281036080840152615b378185614aa8565b98975050505050505050565b60008060408385031215615b5657600080fd5b505080516020909101519092909150565b600060208284031215615b7957600080fd5b81516001600160401b03811115615b8f57600080fd5b61236e848285016157f5565b61ffff85168152608060208201526000615bb86080830186614aa8565b6001600160401b0385166040840152828103606084015261598a8185614aa8565b60208082526032908201527f4552433732313a207472616e7366657220746f206e6f6e20455243373231526560408201527131b2b4bb32b91034b6b83632b6b2b73a32b960711b606082015260800190565b60208082526025908201527f4552433732313a207472616e736665722066726f6d20696e636f72726563742060408201526437bbb732b960d91b606082015260800190565b600060018201615c8257615c826155ec565b5060010190565b60008251615c9b818460208701614a84565b9190910192915050565b6020815260006120b36020830184615a8f565b82815260406020820152600061236e6040830184614aa8565b80820180821115611008576110086155ec565b61ffff8616815260a060208201526000615d0160a0830187614aa8565b6001600160401b03861660408401528281036060840152615d228186614aa8565b90508281036080840152615b378185614aa8565b7f416363657373436f6e74726f6c3a206163636f756e7420000000000000000000815260008351615d6e816017850160208801614a84565b7001034b99036b4b9b9b4b733903937b6329607d1b6017918401918201528351615d9f816028840160208801614a84565b01602801949350505050565b6001600160a01b0385811682528416602082015260408101839052608060608201819052600090615dde90830184614aa8565b9695505050505050565b600060208284031215615dfa57600080fd5b81516120b381614a51565b61ffff8716815260c060208201526000615e2260c0830188614aa8565b8281036040840152615e348188614aa8565b6001600160a01b0387811660608601528616608085015283810360a08501529050615e5f8185614aa8565b9998505050505050505050565b600081615e7b57615e7b6155ec565b506000190190565b634e487b7160e01b600052603160045260246000fdfe9f2df0fed2c77648de5860a4cc508cd0818c85b8b8a1ab4ceeef8d981c8956a6a26469706673582212208a6be2873ec40533d200246d6e894f3cf76aa7d612d6579854e8b92977ce1dd064736f6c63430008120033",
  "devdoc": {
    "events": {
      "Approval(address,address,uint256)": {
        "details": "Emitted when `owner` enables `approved` to manage the `tokenId` token."
      },
      "ApprovalForAll(address,address,bool)": {
        "details": "Emitted when `owner` enables or disables (`approved`) `operator` to manage all of its assets."
      },
      "BatchMetadataUpdate(uint256,uint256)": {
        "details": "This event emits when the metadata of a range of tokens is changed. So that the third-party platforms such as NFT market could timely update the images and related attributes of the NFTs."
      },
      "CreditCleared(bytes32)": {
        "details": "Emitted when `_hashedPayload` has been completely delivered"
      },
      "CreditStored(bytes32,bytes)": {
        "details": "Emitted when `_payload` was received from lz, but not enough gas to deliver all tokenIds"
      },
      "MetadataUpdate(uint256)": {
        "details": "This event emits when the metadata of a token is changed. So that the third-party platforms such as NFT market could timely update the images and related attributes of the NFT."
      },
      "RoleAdminChanged(bytes32,bytes32,bytes32)": {
        "details": "Emitted when `newAdminRole` is set as ``role``'s admin role, replacing `previousAdminRole` `DEFAULT_ADMIN_ROLE` is the starting admin for all roles, despite {RoleAdminChanged} not being emitted signaling this. _Available since v3.1._"
      },
      "RoleGranted(bytes32,address,address)": {
        "details": "Emitted when `account` is granted `role`. `sender` is the account that originated the contract call, an admin role bearer except when using {AccessControl-_setupRole}."
      },
      "RoleRevoked(bytes32,address,address)": {
        "details": "Emitted when `account` is revoked `role`. `sender` is the account that originated the contract call:   - if using `revokeRole`, it is the admin role bearer   - if using `renounceRole`, it is the role bearer (i.e. `account`)"
      },
      "SendToChain(uint16,address,bytes,uint256[])": {
        "details": "Emitted when `_tokenIds[]` are moved from the `_sender` to (`_dstChainId`, `_toAddress`) `_nonce` is the outbound nonce from"
      },
      "Transfer(address,address,uint256)": {
        "details": "Emitted when `tokenId` token is transferred from `from` to `to`."
      }
    },
    "kind": "dev",
    "methods": {
      "approve(address,uint256)": {
        "details": "See {IERC721-approve}."
      },
      "balanceOf(address)": {
        "details": "See {IERC721-balanceOf}."
      },
      "burn(uint256)": {
        "details": "Burns `tokenId`. See {ERC721-_burn}. Requirements: - The caller must own `tokenId` or be an approved operator."
      },
      "estimateSendBatchFee(uint16,bytes,uint256[],bool,bytes)": {
        "details": "estimate send token `_tokenId` to (`_dstChainId`, `_toAddress`) _dstChainId - L0 defined chain id to send tokens too _toAddress - dynamic bytes array which contains the address to whom you are sending tokens to on the dstChain _tokenIds[] - token Ids to transfer _useZro - indicates to use zro to pay L0 fees _adapterParams - flexible bytes array to indicate messaging adapter services in L0"
      },
      "estimateSendFee(uint16,bytes,uint256,bool,bytes)": {
        "details": "estimate send token `_tokenId` to (`_dstChainId`, `_toAddress`) _dstChainId - L0 defined chain id to send tokens too _toAddress - dynamic bytes array which contains the address to whom you are sending tokens to on the dstChain _tokenId - token Id to transfer _useZro - indicates to use zro to pay L0 fees _adapterParams - flexible bytes array to indicate messaging adapter services in L0"
      },
      "getApproved(uint256)": {
        "details": "See {IERC721-getApproved}."
      },
      "getRoleAdmin(bytes32)": {
        "details": "Returns the admin role that controls `role`. See {grantRole} and {revokeRole}. To change a role's admin, use {_setRoleAdmin}."
      },
      "grantRole(bytes32,address)": {
        "details": "Grants `role` to `account`. If `account` had not been already granted `role`, emits a {RoleGranted} event. Requirements: - the caller must have ``role``'s admin role. May emit a {RoleGranted} event."
      },
      "hasRole(bytes32,address)": {
        "details": "Returns `true` if `account` has been granted `role`."
      },
      "isApprovedForAll(address,address)": {
        "details": "See {IERC721-isApprovedForAll}."
      },
      "mint(address,uint256,string)": {
        "details": "Public minting method, Minter-role only."
      },
      "mintBatch(address,uint256[],string[])": {
        "details": "Batch-Mint (same recipient)."
      },
      "mintMulti(address[],uint256[],string[])": {
        "details": "Multi-recipient minting."
      },
      "name()": {
        "details": "See {IERC721Metadata-name}."
      },
      "owner()": {
        "details": "Returns the address of the current owner."
      },
      "ownerOf(uint256)": {
        "details": "See {IERC721-ownerOf}."
      },
      "renounceOwnership()": {
        "details": "Leaves the contract without owner. It will not be possible to call `onlyOwner` functions. Can only be called by the current owner. NOTE: Renouncing ownership will leave the contract without an owner, thereby disabling any functionality that is only available to the owner."
      },
      "renounceRole(bytes32,address)": {
        "details": "Revokes `role` from the calling account. Roles are often managed via {grantRole} and {revokeRole}: this function's purpose is to provide a mechanism for accounts to lose their privileges if they are compromised (such as when a trusted device is misplaced). If the calling account had been revoked `role`, emits a {RoleRevoked} event. Requirements: - the caller must be `account`. May emit a {RoleRevoked} event."
      },
      "revokeRole(bytes32,address)": {
        "details": "Revokes `role` from `account`. If `account` had been granted `role`, emits a {RoleRevoked} event. Requirements: - the caller must have ``role``'s admin role. May emit a {RoleRevoked} event."
      },
      "royaltyInfo(uint256,uint256)": {
        "details": "Returns how much royalty is owed and to whom, based on a sale price that may be denominated in any unit of exchange. The royalty amount is denominated and should be paid in that same unit of exchange."
      },
      "safeTransferFrom(address,address,uint256)": {
        "details": "See {IERC721-safeTransferFrom}."
      },
      "safeTransferFrom(address,address,uint256,bytes)": {
        "details": "See {IERC721-safeTransferFrom}."
      },
      "sendBatchFrom(address,uint16,bytes,uint256[],address,address,bytes)": {
        "details": "send tokens `_tokenIds[]` to (`_dstChainId`, `_toAddress`) from `_from` `_toAddress` can be any size depending on the `dstChainId`. `_zroPaymentAddress` set to address(0x0) if not paying in ZRO (LayerZero Token) `_adapterParams` is a flexible bytes array to indicate messaging adapter services"
      },
      "sendFrom(address,uint16,bytes,uint256,address,address,bytes)": {
        "details": "send token `_tokenId` to (`_dstChainId`, `_toAddress`) from `_from` `_toAddress` can be any size depending on the `dstChainId`. `_zroPaymentAddress` set to address(0x0) if not paying in ZRO (LayerZero Token) `_adapterParams` is a flexible bytes array to indicate messaging adapter services"
      },
      "setApprovalForAll(address,bool)": {
        "details": "See {IERC721-setApprovalForAll}."
      },
      "setBaseURI(string)": {
        "details": "Set new token metadata base URI."
      },
      "supportsInterface(bytes4)": {
        "details": "See {IERC165-supportsInterface}."
      },
      "symbol()": {
        "details": "See {IERC721Metadata-symbol}."
      },
      "tokenByIndex(uint256)": {
        "details": "See {IERC721Enumerable-tokenByIndex}."
      },
      "tokenOfOwnerByIndex(address,uint256)": {
        "details": "See {IERC721Enumerable-tokenOfOwnerByIndex}."
      },
      "tokenURI(uint256)": {
        "details": "See {IERC721Metadata-tokenURI}."
      },
      "totalSupply()": {
        "details": "See {IERC721Enumerable-totalSupply}."
      },
      "transferBatch(address,address,uint256[])": {
        "details": "Batch-Transfer (same recipient)."
      },
      "transferFrom(address,address,uint256)": {
        "details": "See {IERC721-transferFrom}."
      },
      "transferMulti(address,address[],uint256[])": {
        "details": "Multi-recipient transfer."
      },
      "transferOwnership(address)": {
        "details": "Transfers ownership of the contract to a new account (`newOwner`). Can only be called by the current owner."
      }
    },
    "version": 1
  },
  "userdoc": {
    "kind": "user",
    "methods": {},
    "version": 1
  },
  "storageLayout": {
    "storage": [
      {
        "astId": 8766,
        "contract": "contracts/token/onft721/extensions/AXDogTags.sol:AXDogTags",
        "label": "_owner",
        "offset": 0,
        "slot": "0",
        "type": "t_address"
      },
      {
        "astId": 25702,
        "contract": "contracts/token/onft721/extensions/AXDogTags.sol:AXDogTags",
        "label": "trustedRemoteLookup",
        "offset": 0,
        "slot": "1",
        "type": "t_mapping(t_uint16,t_bytes_storage)"
      },
      {
        "astId": 25708,
        "contract": "contracts/token/onft721/extensions/AXDogTags.sol:AXDogTags",
        "label": "minDstGasLookup",
        "offset": 0,
        "slot": "2",
        "type": "t_mapping(t_uint16,t_mapping(t_uint16,t_uint256))"
      },
      {
        "astId": 25712,
        "contract": "contracts/token/onft721/extensions/AXDogTags.sol:AXDogTags",
        "label": "payloadSizeLimitLookup",
        "offset": 0,
        "slot": "3",
        "type": "t_mapping(t_uint16,t_uint256)"
      },
      {
        "astId": 25714,
        "contract": "contracts/token/onft721/extensions/AXDogTags.sol:AXDogTags",
        "label": "precrime",
        "offset": 0,
        "slot": "4",
        "type": "t_address"
      },
      {
        "astId": 26244,
        "contract": "contracts/token/onft721/extensions/AXDogTags.sol:AXDogTags",
        "label": "failedMessages",
        "offset": 0,
        "slot": "5",
        "type": "t_mapping(t_uint16,t_mapping(t_bytes_memory_ptr,t_mapping(t_uint64,t_bytes32)))"
      },
      {
        "astId": 8394,
        "contract": "contracts/token/onft721/extensions/AXDogTags.sol:AXDogTags",
        "label": "_roles",
        "offset": 0,
        "slot": "6",
        "type": "t_mapping(t_bytes32,t_struct(RoleData)8389_storage)"
      },
      {
        "astId": 13437,
        "contract": "contracts/token/onft721/extensions/AXDogTags.sol:AXDogTags",
        "label": "_defaultRoyaltyInfo",
        "offset": 0,
        "slot": "7",
        "type": "t_struct(RoyaltyInfo)13434_storage"
      },
      {
        "astId": 13442,
        "contract": "contracts/token/onft721/extensions/AXDogTags.sol:AXDogTags",
        "label": "_tokenRoyaltyInfo",
        "offset": 0,
        "slot": "8",
        "type": "t_mapping(t_uint256,t_struct(RoyaltyInfo)13434_storage)"
      },
      {
        "astId": 8932,
        "contract": "contracts/token/onft721/extensions/AXDogTags.sol:AXDogTags",
        "label": "_status",
        "offset": 0,
        "slot": "9",
        "type": "t_uint256"
      },
      {
        "astId": 35329,
        "contract": "contracts/token/onft721/extensions/AXDogTags.sol:AXDogTags",
        "label": "minGasToTransferAndStore",
        "offset": 0,
        "slot": "10",
        "type": "t_uint256"
      },
      {
        "astId": 35333,
        "contract": "contracts/token/onft721/extensions/AXDogTags.sol:AXDogTags",
        "label": "dstChainIdToBatchLimit",
        "offset": 0,
        "slot": "11",
        "type": "t_mapping(t_uint16,t_uint256)"
      },
      {
        "astId": 35337,
        "contract": "contracts/token/onft721/extensions/AXDogTags.sol:AXDogTags",
        "label": "dstChainIdToTransferGas",
        "offset": 0,
        "slot": "12",
        "type": "t_mapping(t_uint16,t_uint256)"
      },
      {
        "astId": 35342,
        "contract": "contracts/token/onft721/extensions/AXDogTags.sol:AXDogTags",
        "label": "storedCredits",
        "offset": 0,
        "slot": "13",
        "type": "t_mapping(t_bytes32,t_struct(StoredCredit)35327_storage)"
      },
      {
        "astId": 11741,
        "contract": "contracts/token/onft721/extensions/AXDogTags.sol:AXDogTags",
        "label": "_name",
        "offset": 0,
        "slot": "14",
        "type": "t_string_storage"
      },
      {
        "astId": 11743,
        "contract": "contracts/token/onft721/extensions/AXDogTags.sol:AXDogTags",
        "label": "_symbol",
        "offset": 0,
        "slot": "15",
        "type": "t_string_storage"
      },
      {
        "astId": 11747,
        "contract": "contracts/token/onft721/extensions/AXDogTags.sol:AXDogTags",
        "label": "_owners",
        "offset": 0,
        "slot": "16",
        "type": "t_mapping(t_uint256,t_address)"
      },
      {
        "astId": 11751,
        "contract": "contracts/token/onft721/extensions/AXDogTags.sol:AXDogTags",
        "label": "_balances",
        "offset": 0,
        "slot": "17",
        "type": "t_mapping(t_address,t_uint256)"
      },
      {
        "astId": 11755,
        "contract": "contracts/token/onft721/extensions/AXDogTags.sol:AXDogTags",
        "label": "_tokenApprovals",
        "offset": 0,
        "slot": "18",
        "type": "t_mapping(t_uint256,t_address)"
      },
      {
        "astId": 11761,
        "contract": "contracts/token/onft721/extensions/AXDogTags.sol:AXDogTags",
        "label": "_operatorApprovals",
        "offset": 0,
        "slot": "19",
        "type": "t_mapping(t_address,t_mapping(t_address,t_bool))"
      },
      {
        "astId": 12821,
        "contract": "contracts/token/onft721/extensions/AXDogTags.sol:AXDogTags",
        "label": "_ownedTokens",
        "offset": 0,
        "slot": "20",
        "type": "t_mapping(t_address,t_mapping(t_uint256,t_uint256))"
      },
      {
        "astId": 12825,
        "contract": "contracts/token/onft721/extensions/AXDogTags.sol:AXDogTags",
        "label": "_ownedTokensIndex",
        "offset": 0,
        "slot": "21",
        "type": "t_mapping(t_uint256,t_uint256)"
      },
      {
        "astId": 12828,
        "contract": "contracts/token/onft721/extensions/AXDogTags.sol:AXDogTags",
        "label": "_allTokens",
        "offset": 0,
        "slot": "22",
        "type": "t_array(t_uint256)dyn_storage"
      },
      {
        "astId": 12832,
        "contract": "contracts/token/onft721/extensions/AXDogTags.sol:AXDogTags",
        "label": "_allTokensIndex",
        "offset": 0,
        "slot": "23",
        "type": "t_mapping(t_uint256,t_uint256)"
      },
      {
        "astId": 13222,
        "contract": "contracts/token/onft721/extensions/AXDogTags.sol:AXDogTags",
        "label": "_tokenURIs",
        "offset": 0,
        "slot": "24",
        "type": "t_mapping(t_uint256,t_string_storage)"
      },
      {
        "astId": 36333,
        "contract": "contracts/token/onft721/extensions/AXDogTags.sol:AXDogTags",
        "label": "baseTokenURI",
        "offset": 0,
        "slot": "25",
        "type": "t_string_storage"
      },
      {
        "astId": 36337,
        "contract": "contracts/token/onft721/extensions/AXDogTags.sol:AXDogTags",
        "label": "_tokenURIs",
        "offset": 0,
        "slot": "26",
        "type": "t_mapping(t_uint256,t_string_storage)"
      }
    ],
    "types": {
      "t_address": {
        "encoding": "inplace",
        "label": "address",
        "numberOfBytes": "20"
      },
      "t_array(t_uint256)dyn_storage": {
        "base": "t_uint256",
        "encoding": "dynamic_array",
        "label": "uint256[]",
        "numberOfBytes": "32"
      },
      "t_bool": {
        "encoding": "inplace",
        "label": "bool",
        "numberOfBytes": "1"
      },
      "t_bytes32": {
        "encoding": "inplace",
        "label": "bytes32",
        "numberOfBytes": "32"
      },
      "t_bytes_memory_ptr": {
        "encoding": "bytes",
        "label": "bytes",
        "numberOfBytes": "32"
      },
      "t_bytes_storage": {
        "encoding": "bytes",
        "label": "bytes",
        "numberOfBytes": "32"
      },
      "t_mapping(t_address,t_bool)": {
        "encoding": "mapping",
        "key": "t_address",
        "label": "mapping(address => bool)",
        "numberOfBytes": "32",
        "value": "t_bool"
      },
      "t_mapping(t_address,t_mapping(t_address,t_bool))": {
        "encoding": "mapping",
        "key": "t_address",
        "label": "mapping(address => mapping(address => bool))",
        "numberOfBytes": "32",
        "value": "t_mapping(t_address,t_bool)"
      },
      "t_mapping(t_address,t_mapping(t_uint256,t_uint256))": {
        "encoding": "mapping",
        "key": "t_address",
        "label": "mapping(address => mapping(uint256 => uint256))",
        "numberOfBytes": "32",
        "value": "t_mapping(t_uint256,t_uint256)"
      },
      "t_mapping(t_address,t_uint256)": {
        "encoding": "mapping",
        "key": "t_address",
        "label": "mapping(address => uint256)",
        "numberOfBytes": "32",
        "value": "t_uint256"
      },
      "t_mapping(t_bytes32,t_struct(RoleData)8389_storage)": {
        "encoding": "mapping",
        "key": "t_bytes32",
        "label": "mapping(bytes32 => struct AccessControl.RoleData)",
        "numberOfBytes": "32",
        "value": "t_struct(RoleData)8389_storage"
      },
      "t_mapping(t_bytes32,t_struct(StoredCredit)35327_storage)": {
        "encoding": "mapping",
        "key": "t_bytes32",
        "label": "mapping(bytes32 => struct ONFT721Core.StoredCredit)",
        "numberOfBytes": "32",
        "value": "t_struct(StoredCredit)35327_storage"
      },
      "t_mapping(t_bytes_memory_ptr,t_mapping(t_uint64,t_bytes32))": {
        "encoding": "mapping",
        "key": "t_bytes_memory_ptr",
        "label": "mapping(bytes => mapping(uint64 => bytes32))",
        "numberOfBytes": "32",
        "value": "t_mapping(t_uint64,t_bytes32)"
      },
      "t_mapping(t_uint16,t_bytes_storage)": {
        "encoding": "mapping",
        "key": "t_uint16",
        "label": "mapping(uint16 => bytes)",
        "numberOfBytes": "32",
        "value": "t_bytes_storage"
      },
      "t_mapping(t_uint16,t_mapping(t_bytes_memory_ptr,t_mapping(t_uint64,t_bytes32)))": {
        "encoding": "mapping",
        "key": "t_uint16",
        "label": "mapping(uint16 => mapping(bytes => mapping(uint64 => bytes32)))",
        "numberOfBytes": "32",
        "value": "t_mapping(t_bytes_memory_ptr,t_mapping(t_uint64,t_bytes32))"
      },
      "t_mapping(t_uint16,t_mapping(t_uint16,t_uint256))": {
        "encoding": "mapping",
        "key": "t_uint16",
        "label": "mapping(uint16 => mapping(uint16 => uint256))",
        "numberOfBytes": "32",
        "value": "t_mapping(t_uint16,t_uint256)"
      },
      "t_mapping(t_uint16,t_uint256)": {
        "encoding": "mapping",
        "key": "t_uint16",
        "label": "mapping(uint16 => uint256)",
        "numberOfBytes": "32",
        "value": "t_uint256"
      },
      "t_mapping(t_uint256,t_address)": {
        "encoding": "mapping",
        "key": "t_uint256",
        "label": "mapping(uint256 => address)",
        "numberOfBytes": "32",
        "value": "t_address"
      },
      "t_mapping(t_uint256,t_string_storage)": {
        "encoding": "mapping",
        "key": "t_uint256",
        "label": "mapping(uint256 => string)",
        "numberOfBytes": "32",
        "value": "t_string_storage"
      },
      "t_mapping(t_uint256,t_struct(RoyaltyInfo)13434_storage)": {
        "encoding": "mapping",
        "key": "t_uint256",
        "label": "mapping(uint256 => struct ERC2981.RoyaltyInfo)",
        "numberOfBytes": "32",
        "value": "t_struct(RoyaltyInfo)13434_storage"
      },
      "t_mapping(t_uint256,t_uint256)": {
        "encoding": "mapping",
        "key": "t_uint256",
        "label": "mapping(uint256 => uint256)",
        "numberOfBytes": "32",
        "value": "t_uint256"
      },
      "t_mapping(t_uint64,t_bytes32)": {
        "encoding": "mapping",
        "key": "t_uint64",
        "label": "mapping(uint64 => bytes32)",
        "numberOfBytes": "32",
        "value": "t_bytes32"
      },
      "t_string_storage": {
        "encoding": "bytes",
        "label": "string",
        "numberOfBytes": "32"
      },
      "t_struct(RoleData)8389_storage": {
        "encoding": "inplace",
        "label": "struct AccessControl.RoleData",
        "members": [
          {
            "astId": 8386,
            "contract": "contracts/token/onft721/extensions/AXDogTags.sol:AXDogTags",
            "label": "members",
            "offset": 0,
            "slot": "0",
            "type": "t_mapping(t_address,t_bool)"
          },
          {
            "astId": 8388,
            "contract": "contracts/token/onft721/extensions/AXDogTags.sol:AXDogTags",
            "label": "adminRole",
            "offset": 0,
            "slot": "1",
            "type": "t_bytes32"
          }
        ],
        "numberOfBytes": "64"
      },
      "t_struct(RoyaltyInfo)13434_storage": {
        "encoding": "inplace",
        "label": "struct ERC2981.RoyaltyInfo",
        "members": [
          {
            "astId": 13431,
            "contract": "contracts/token/onft721/extensions/AXDogTags.sol:AXDogTags",
            "label": "receiver",
            "offset": 0,
            "slot": "0",
            "type": "t_address"
          },
          {
            "astId": 13433,
            "contract": "contracts/token/onft721/extensions/AXDogTags.sol:AXDogTags",
            "label": "royaltyFraction",
            "offset": 20,
            "slot": "0",
            "type": "t_uint96"
          }
        ],
        "numberOfBytes": "32"
      },
      "t_struct(StoredCredit)35327_storage": {
        "encoding": "inplace",
        "label": "struct ONFT721Core.StoredCredit",
        "members": [
          {
            "astId": 35320,
            "contract": "contracts/token/onft721/extensions/AXDogTags.sol:AXDogTags",
            "label": "srcChainId",
            "offset": 0,
            "slot": "0",
            "type": "t_uint16"
          },
          {
            "astId": 35322,
            "contract": "contracts/token/onft721/extensions/AXDogTags.sol:AXDogTags",
            "label": "toAddress",
            "offset": 2,
            "slot": "0",
            "type": "t_address"
          },
          {
            "astId": 35324,
            "contract": "contracts/token/onft721/extensions/AXDogTags.sol:AXDogTags",
            "label": "index",
            "offset": 0,
            "slot": "1",
            "type": "t_uint256"
          },
          {
            "astId": 35326,
            "contract": "contracts/token/onft721/extensions/AXDogTags.sol:AXDogTags",
            "label": "creditsRemain",
            "offset": 0,
            "slot": "2",
            "type": "t_bool"
          }
        ],
        "numberOfBytes": "96"
      },
      "t_uint16": {
        "encoding": "inplace",
        "label": "uint16",
        "numberOfBytes": "2"
      },
      "t_uint256": {
        "encoding": "inplace",
        "label": "uint256",
        "numberOfBytes": "32"
      },
      "t_uint64": {
        "encoding": "inplace",
        "label": "uint64",
        "numberOfBytes": "8"
      },
      "t_uint96": {
        "encoding": "inplace",
        "label": "uint96",
        "numberOfBytes": "12"
      }
    }
  }
}