{
  "address": "0xB093E38414778057223D267fA96A4edC1E7638C1",
  "abi": [
    {
      "inputs": [
        {
          "internalType": "uint96",
          "name": "_royaltyBasePoints",
          "type": "uint96"
        },
        {
          "internalType": "string",
          "name": "_uri",
          "type": "string"
        },
        {
          "internalType": "address",
          "name": "_lzEndpoint",
          "type": "address"
        }
      ],
      "stateMutability": "nonpayable",
      "type": "constructor"
    },
    {
      "anonymous": false,
      "inputs": [
        {
          "indexed": true,
          "internalType": "address",
          "name": "account",
          "type": "address"
        },
        {
          "indexed": true,
          "internalType": "address",
          "name": "operator",
          "type": "address"
        },
        {
          "indexed": false,
          "internalType": "bool",
          "name": "approved",
          "type": "bool"
        }
      ],
      "name": "ApprovalForAll",
      "type": "event"
    },
    {
      "anonymous": false,
      "inputs": [
        {
          "indexed": false,
          "internalType": "uint16",
          "name": "_srcChainId",
          "type": "uint16"
        },
        {
          "indexed": false,
          "internalType": "bytes",
          "name": "_srcAddress",
          "type": "bytes"
        },
        {
          "indexed": false,
          "internalType": "uint64",
          "name": "_nonce",
          "type": "uint64"
        },
        {
          "indexed": false,
          "internalType": "bytes",
          "name": "_payload",
          "type": "bytes"
        },
        {
          "indexed": false,
          "internalType": "bytes",
          "name": "_reason",
          "type": "bytes"
        }
      ],
      "name": "MessageFailed",
      "type": "event"
    },
    {
      "anonymous": false,
      "inputs": [
        {
          "indexed": true,
          "internalType": "address",
          "name": "previousOwner",
          "type": "address"
        },
        {
          "indexed": true,
          "internalType": "address",
          "name": "newOwner",
          "type": "address"
        }
      ],
      "name": "OwnershipTransferred",
      "type": "event"
    },
    {
      "anonymous": false,
      "inputs": [
        {
          "indexed": true,
          "internalType": "uint16",
          "name": "_srcChainId",
          "type": "uint16"
        },
        {
          "indexed": true,
          "internalType": "bytes",
          "name": "_srcAddress",
          "type": "bytes"
        },
        {
          "indexed": true,
          "internalType": "address",
          "name": "_toAddress",
          "type": "address"
        },
        {
          "indexed": false,
          "internalType": "uint256[]",
          "name": "_tokenIds",
          "type": "uint256[]"
        },
        {
          "indexed": false,
          "internalType": "uint256[]",
          "name": "_amounts",
          "type": "uint256[]"
        }
      ],
      "name": "ReceiveBatchFromChain",
      "type": "event"
    },
    {
      "anonymous": false,
      "inputs": [
        {
          "indexed": true,
          "internalType": "uint16",
          "name": "_srcChainId",
          "type": "uint16"
        },
        {
          "indexed": true,
          "internalType": "bytes",
          "name": "_srcAddress",
          "type": "bytes"
        },
        {
          "indexed": true,
          "internalType": "address",
          "name": "_toAddress",
          "type": "address"
        },
        {
          "indexed": false,
          "internalType": "uint256",
          "name": "_tokenId",
          "type": "uint256"
        },
        {
          "indexed": false,
          "internalType": "uint256",
          "name": "_amount",
          "type": "uint256"
        }
      ],
      "name": "ReceiveFromChain",
      "type": "event"
    },
    {
      "anonymous": false,
      "inputs": [
        {
          "indexed": false,
          "internalType": "uint16",
          "name": "_srcChainId",
          "type": "uint16"
        },
        {
          "indexed": false,
          "internalType": "bytes",
          "name": "_srcAddress",
          "type": "bytes"
        },
        {
          "indexed": false,
          "internalType": "uint64",
          "name": "_nonce",
          "type": "uint64"
        },
        {
          "indexed": false,
          "internalType": "bytes32",
          "name": "_payloadHash",
          "type": "bytes32"
        }
      ],
      "name": "RetryMessageSuccess",
      "type": "event"
    },
    {
      "anonymous": false,
      "inputs": [
        {
          "indexed": true,
          "internalType": "bytes32",
          "name": "role",
          "type": "bytes32"
        },
        {
          "indexed": true,
          "internalType": "bytes32",
          "name": "previousAdminRole",
          "type": "bytes32"
        },
        {
          "indexed": true,
          "internalType": "bytes32",
          "name": "newAdminRole",
          "type": "bytes32"
        }
      ],
      "name": "RoleAdminChanged",
      "type": "event"
    },
    {
      "anonymous": false,
      "inputs": [
        {
          "indexed": true,
          "internalType": "bytes32",
          "name": "role",
          "type": "bytes32"
        },
        {
          "indexed": true,
          "internalType": "address",
          "name": "account",
          "type": "address"
        },
        {
          "indexed": true,
          "internalType": "address",
          "name": "sender",
          "type": "address"
        }
      ],
      "name": "RoleGranted",
      "type": "event"
    },
    {
      "anonymous": false,
      "inputs": [
        {
          "indexed": true,
          "internalType": "bytes32",
          "name": "role",
          "type": "bytes32"
        },
        {
          "indexed": true,
          "internalType": "address",
          "name": "account",
          "type": "address"
        },
        {
          "indexed": true,
          "internalType": "address",
          "name": "sender",
          "type": "address"
        }
      ],
      "name": "RoleRevoked",
      "type": "event"
    },
    {
      "anonymous": false,
      "inputs": [
        {
          "indexed": true,
          "internalType": "uint16",
          "name": "_dstChainId",
          "type": "uint16"
        },
        {
          "indexed": true,
          "internalType": "address",
          "name": "_from",
          "type": "address"
        },
        {
          "indexed": true,
          "internalType": "bytes",
          "name": "_toAddress",
          "type": "bytes"
        },
        {
          "indexed": false,
          "internalType": "uint256[]",
          "name": "_tokenIds",
          "type": "uint256[]"
        },
        {
          "indexed": false,
          "internalType": "uint256[]",
          "name": "_amounts",
          "type": "uint256[]"
        }
      ],
      "name": "SendBatchToChain",
      "type": "event"
    },
    {
      "anonymous": false,
      "inputs": [
        {
          "indexed": true,
          "internalType": "uint16",
          "name": "_dstChainId",
          "type": "uint16"
        },
        {
          "indexed": true,
          "internalType": "address",
          "name": "_from",
          "type": "address"
        },
        {
          "indexed": true,
          "internalType": "bytes",
          "name": "_toAddress",
          "type": "bytes"
        },
        {
          "indexed": false,
          "internalType": "uint256",
          "name": "_tokenId",
          "type": "uint256"
        },
        {
          "indexed": false,
          "internalType": "uint256",
          "name": "_amount",
          "type": "uint256"
        }
      ],
      "name": "SendToChain",
      "type": "event"
    },
    {
      "anonymous": false,
      "inputs": [
        {
          "indexed": false,
          "internalType": "uint16",
          "name": "_dstChainId",
          "type": "uint16"
        },
        {
          "indexed": false,
          "internalType": "uint16",
          "name": "_type",
          "type": "uint16"
        },
        {
          "indexed": false,
          "internalType": "uint256",
          "name": "_minDstGas",
          "type": "uint256"
        }
      ],
      "name": "SetMinDstGas",
      "type": "event"
    },
    {
      "anonymous": false,
      "inputs": [
        {
          "indexed": false,
          "internalType": "address",
          "name": "precrime",
          "type": "address"
        }
      ],
      "name": "SetPrecrime",
      "type": "event"
    },
    {
      "anonymous": false,
      "inputs": [
        {
          "indexed": false,
          "internalType": "uint16",
          "name": "_remoteChainId",
          "type": "uint16"
        },
        {
          "indexed": false,
          "internalType": "bytes",
          "name": "_path",
          "type": "bytes"
        }
      ],
      "name": "SetTrustedRemote",
      "type": "event"
    },
    {
      "anonymous": false,
      "inputs": [
        {
          "indexed": false,
          "internalType": "uint16",
          "name": "_remoteChainId",
          "type": "uint16"
        },
        {
          "indexed": false,
          "internalType": "bytes",
          "name": "_remoteAddress",
          "type": "bytes"
        }
      ],
      "name": "SetTrustedRemoteAddress",
      "type": "event"
    },
    {
      "anonymous": false,
      "inputs": [
        {
          "indexed": false,
          "internalType": "bool",
          "name": "_useCustomAdapterParams",
          "type": "bool"
        }
      ],
      "name": "SetUseCustomAdapterParams",
      "type": "event"
    },
    {
      "anonymous": false,
      "inputs": [
        {
          "indexed": true,
          "internalType": "address",
          "name": "operator",
          "type": "address"
        },
        {
          "indexed": true,
          "internalType": "address",
          "name": "from",
          "type": "address"
        },
        {
          "indexed": true,
          "internalType": "address",
          "name": "to",
          "type": "address"
        },
        {
          "indexed": false,
          "internalType": "uint256[]",
          "name": "ids",
          "type": "uint256[]"
        },
        {
          "indexed": false,
          "internalType": "uint256[]",
          "name": "values",
          "type": "uint256[]"
        }
      ],
      "name": "TransferBatch",
      "type": "event"
    },
    {
      "anonymous": false,
      "inputs": [
        {
          "indexed": true,
          "internalType": "address",
          "name": "operator",
          "type": "address"
        },
        {
          "indexed": true,
          "internalType": "address",
          "name": "from",
          "type": "address"
        },
        {
          "indexed": true,
          "internalType": "address",
          "name": "to",
          "type": "address"
        },
        {
          "indexed": false,
          "internalType": "uint256",
          "name": "id",
          "type": "uint256"
        },
        {
          "indexed": false,
          "internalType": "uint256",
          "name": "value",
          "type": "uint256"
        }
      ],
      "name": "TransferSingle",
      "type": "event"
    },
    {
      "anonymous": false,
      "inputs": [
        {
          "indexed": false,
          "internalType": "string",
          "name": "value",
          "type": "string"
        },
        {
          "indexed": true,
          "internalType": "uint256",
          "name": "id",
          "type": "uint256"
        }
      ],
      "name": "URI",
      "type": "event"
    },
    {
      "inputs": [],
      "name": "DEFAULT_ADMIN_ROLE",
      "outputs": [
        {
          "internalType": "bytes32",
          "name": "",
          "type": "bytes32"
        }
      ],
      "stateMutability": "view",
      "type": "function"
    },
    {
      "inputs": [],
      "name": "DEFAULT_PAYLOAD_SIZE_LIMIT",
      "outputs": [
        {
          "internalType": "uint256",
          "name": "",
          "type": "uint256"
        }
      ],
      "stateMutability": "view",
      "type": "function"
    },
    {
      "inputs": [],
      "name": "FUNCTION_TYPE_SEND",
      "outputs": [
        {
          "internalType": "uint16",
          "name": "",
          "type": "uint16"
        }
      ],
      "stateMutability": "view",
      "type": "function"
    },
    {
      "inputs": [],
      "name": "FUNCTION_TYPE_SEND_BATCH",
      "outputs": [
        {
          "internalType": "uint16",
          "name": "",
          "type": "uint16"
        }
      ],
      "stateMutability": "view",
      "type": "function"
    },
    {
      "inputs": [],
      "name": "NO_EXTRA_GAS",
      "outputs": [
        {
          "internalType": "uint256",
          "name": "",
          "type": "uint256"
        }
      ],
      "stateMutability": "view",
      "type": "function"
    },
    {
      "inputs": [
        {
          "internalType": "address",
          "name": "account",
          "type": "address"
        },
        {
          "internalType": "uint256",
          "name": "id",
          "type": "uint256"
        }
      ],
      "name": "balanceOf",
      "outputs": [
        {
          "internalType": "uint256",
          "name": "",
          "type": "uint256"
        }
      ],
      "stateMutability": "view",
      "type": "function"
    },
    {
      "inputs": [
        {
          "internalType": "address[]",
          "name": "accounts",
          "type": "address[]"
        },
        {
          "internalType": "uint256[]",
          "name": "ids",
          "type": "uint256[]"
        }
      ],
      "name": "balanceOfBatch",
      "outputs": [
        {
          "internalType": "uint256[]",
          "name": "",
          "type": "uint256[]"
        }
      ],
      "stateMutability": "view",
      "type": "function"
    },
    {
      "inputs": [
        {
          "internalType": "address",
          "name": "account",
          "type": "address"
        },
        {
          "internalType": "uint256",
          "name": "id",
          "type": "uint256"
        },
        {
          "internalType": "uint256",
          "name": "value",
          "type": "uint256"
        }
      ],
      "name": "burn",
      "outputs": [],
      "stateMutability": "nonpayable",
      "type": "function"
    },
    {
      "inputs": [
        {
          "internalType": "address",
          "name": "account",
          "type": "address"
        },
        {
          "internalType": "uint256[]",
          "name": "ids",
          "type": "uint256[]"
        },
        {
          "internalType": "uint256[]",
          "name": "values",
          "type": "uint256[]"
        }
      ],
      "name": "burnBatch",
      "outputs": [],
      "stateMutability": "nonpayable",
      "type": "function"
    },
    {
      "inputs": [
        {
          "internalType": "uint16",
          "name": "_dstChainId",
          "type": "uint16"
        },
        {
          "internalType": "bytes",
          "name": "_toAddress",
          "type": "bytes"
        },
        {
          "internalType": "uint256[]",
          "name": "_tokenIds",
          "type": "uint256[]"
        },
        {
          "internalType": "uint256[]",
          "name": "_amounts",
          "type": "uint256[]"
        },
        {
          "internalType": "bool",
          "name": "_useZro",
          "type": "bool"
        },
        {
          "internalType": "bytes",
          "name": "_adapterParams",
          "type": "bytes"
        }
      ],
      "name": "estimateSendBatchFee",
      "outputs": [
        {
          "internalType": "uint256",
          "name": "nativeFee",
          "type": "uint256"
        },
        {
          "internalType": "uint256",
          "name": "zroFee",
          "type": "uint256"
        }
      ],
      "stateMutability": "view",
      "type": "function"
    },
    {
      "inputs": [
        {
          "internalType": "uint16",
          "name": "_dstChainId",
          "type": "uint16"
        },
        {
          "internalType": "bytes",
          "name": "_toAddress",
          "type": "bytes"
        },
        {
          "internalType": "uint256",
          "name": "_tokenId",
          "type": "uint256"
        },
        {
          "internalType": "uint256",
          "name": "_amount",
          "type": "uint256"
        },
        {
          "internalType": "bool",
          "name": "_useZro",
          "type": "bool"
        },
        {
          "internalType": "bytes",
          "name": "_adapterParams",
          "type": "bytes"
        }
      ],
      "name": "estimateSendFee",
      "outputs": [
        {
          "internalType": "uint256",
          "name": "nativeFee",
          "type": "uint256"
        },
        {
          "internalType": "uint256",
          "name": "zroFee",
          "type": "uint256"
        }
      ],
      "stateMutability": "view",
      "type": "function"
    },
    {
      "inputs": [
        {
          "internalType": "uint256",
          "name": "id",
          "type": "uint256"
        }
      ],
      "name": "exists",
      "outputs": [
        {
          "internalType": "bool",
          "name": "",
          "type": "bool"
        }
      ],
      "stateMutability": "view",
      "type": "function"
    },
    {
      "inputs": [
        {
          "internalType": "uint16",
          "name": "",
          "type": "uint16"
        },
        {
          "internalType": "bytes",
          "name": "",
          "type": "bytes"
        },
        {
          "internalType": "uint64",
          "name": "",
          "type": "uint64"
        }
      ],
      "name": "failedMessages",
      "outputs": [
        {
          "internalType": "bytes32",
          "name": "",
          "type": "bytes32"
        }
      ],
      "stateMutability": "view",
      "type": "function"
    },
    {
      "inputs": [
        {
          "internalType": "uint16",
          "name": "_srcChainId",
          "type": "uint16"
        },
        {
          "internalType": "bytes",
          "name": "_srcAddress",
          "type": "bytes"
        }
      ],
      "name": "forceResumeReceive",
      "outputs": [],
      "stateMutability": "nonpayable",
      "type": "function"
    },
    {
      "inputs": [
        {
          "internalType": "uint16",
          "name": "_version",
          "type": "uint16"
        },
        {
          "internalType": "uint16",
          "name": "_chainId",
          "type": "uint16"
        },
        {
          "internalType": "address",
          "name": "",
          "type": "address"
        },
        {
          "internalType": "uint256",
          "name": "_configType",
          "type": "uint256"
        }
      ],
      "name": "getConfig",
      "outputs": [
        {
          "internalType": "bytes",
          "name": "",
          "type": "bytes"
        }
      ],
      "stateMutability": "view",
      "type": "function"
    },
    {
      "inputs": [
        {
          "internalType": "bytes32",
          "name": "role",
          "type": "bytes32"
        }
      ],
      "name": "getRoleAdmin",
      "outputs": [
        {
          "internalType": "bytes32",
          "name": "",
          "type": "bytes32"
        }
      ],
      "stateMutability": "view",
      "type": "function"
    },
    {
      "inputs": [
        {
          "internalType": "uint16",
          "name": "_remoteChainId",
          "type": "uint16"
        }
      ],
      "name": "getTrustedRemoteAddress",
      "outputs": [
        {
          "internalType": "bytes",
          "name": "",
          "type": "bytes"
        }
      ],
      "stateMutability": "view",
      "type": "function"
    },
    {
      "inputs": [
        {
          "internalType": "bytes32",
          "name": "role",
          "type": "bytes32"
        },
        {
          "internalType": "address",
          "name": "account",
          "type": "address"
        }
      ],
      "name": "grantRole",
      "outputs": [],
      "stateMutability": "nonpayable",
      "type": "function"
    },
    {
      "inputs": [
        {
          "internalType": "bytes32",
          "name": "role",
          "type": "bytes32"
        },
        {
          "internalType": "address",
          "name": "account",
          "type": "address"
        }
      ],
      "name": "hasRole",
      "outputs": [
        {
          "internalType": "bool",
          "name": "",
          "type": "bool"
        }
      ],
      "stateMutability": "view",
      "type": "function"
    },
    {
      "inputs": [
        {
          "internalType": "address",
          "name": "account",
          "type": "address"
        },
        {
          "internalType": "address",
          "name": "operator",
          "type": "address"
        }
      ],
      "name": "isApprovedForAll",
      "outputs": [
        {
          "internalType": "bool",
          "name": "",
          "type": "bool"
        }
      ],
      "stateMutability": "view",
      "type": "function"
    },
    {
      "inputs": [
        {
          "internalType": "uint16",
          "name": "_srcChainId",
          "type": "uint16"
        },
        {
          "internalType": "bytes",
          "name": "_srcAddress",
          "type": "bytes"
        }
      ],
      "name": "isTrustedRemote",
      "outputs": [
        {
          "internalType": "bool",
          "name": "",
          "type": "bool"
        }
      ],
      "stateMutability": "view",
      "type": "function"
    },
    {
      "inputs": [],
      "name": "lzEndpoint",
      "outputs": [
        {
          "internalType": "contract ILayerZeroEndpoint",
          "name": "",
          "type": "address"
        }
      ],
      "stateMutability": "view",
      "type": "function"
    },
    {
      "inputs": [
        {
          "internalType": "uint16",
          "name": "_srcChainId",
          "type": "uint16"
        },
        {
          "internalType": "bytes",
          "name": "_srcAddress",
          "type": "bytes"
        },
        {
          "internalType": "uint64",
          "name": "_nonce",
          "type": "uint64"
        },
        {
          "internalType": "bytes",
          "name": "_payload",
          "type": "bytes"
        }
      ],
      "name": "lzReceive",
      "outputs": [],
      "stateMutability": "nonpayable",
      "type": "function"
    },
    {
      "inputs": [
        {
          "internalType": "uint16",
          "name": "",
          "type": "uint16"
        },
        {
          "internalType": "uint16",
          "name": "",
          "type": "uint16"
        }
      ],
      "name": "minDstGasLookup",
      "outputs": [
        {
          "internalType": "uint256",
          "name": "",
          "type": "uint256"
        }
      ],
      "stateMutability": "view",
      "type": "function"
    },
    {
      "inputs": [
        {
          "internalType": "address",
          "name": "_to",
          "type": "address"
        },
        {
          "internalType": "uint256",
          "name": "_id",
          "type": "uint256"
        },
        {
          "internalType": "uint256",
          "name": "_amount",
          "type": "uint256"
        }
      ],
      "name": "mint",
      "outputs": [],
      "stateMutability": "nonpayable",
      "type": "function"
    },
    {
      "inputs": [
        {
          "internalType": "address",
          "name": "_to",
          "type": "address"
        },
        {
          "internalType": "uint256[]",
          "name": "_ids",
          "type": "uint256[]"
        },
        {
          "internalType": "uint256[]",
          "name": "_amounts",
          "type": "uint256[]"
        }
      ],
      "name": "mintBatch",
      "outputs": [],
      "stateMutability": "nonpayable",
      "type": "function"
    },
    {
      "inputs": [
        {
          "internalType": "address",
          "name": "from",
          "type": "address"
        },
        {
          "internalType": "address[]",
          "name": "tos",
          "type": "address[]"
        },
        {
          "internalType": "uint256[]",
          "name": "ids",
          "type": "uint256[]"
        },
        {
          "internalType": "uint256[]",
          "name": "amounts",
          "type": "uint256[]"
        },
        {
          "internalType": "bytes",
          "name": "data",
          "type": "bytes"
        }
      ],
      "name": "multiBatchTransferFrom",
      "outputs": [],
      "stateMutability": "nonpayable",
      "type": "function"
    },
    {
      "inputs": [
        {
          "internalType": "address",
          "name": "from",
          "type": "address"
        },
        {
          "internalType": "address[]",
          "name": "tos",
          "type": "address[]"
        },
        {
          "internalType": "uint256",
          "name": "id",
          "type": "uint256"
        },
        {
          "internalType": "uint256",
          "name": "amount",
          "type": "uint256"
        },
        {
          "internalType": "bytes",
          "name": "data",
          "type": "bytes"
        }
      ],
      "name": "multiTransferFrom",
      "outputs": [],
      "stateMutability": "nonpayable",
      "type": "function"
    },
    {
      "inputs": [],
      "name": "name",
      "outputs": [
        {
          "internalType": "string",
          "name": "",
          "type": "string"
        }
      ],
      "stateMutability": "view",
      "type": "function"
    },
    {
      "inputs": [
        {
          "internalType": "uint16",
          "name": "_srcChainId",
          "type": "uint16"
        },
        {
          "internalType": "bytes",
          "name": "_srcAddress",
          "type": "bytes"
        },
        {
          "internalType": "uint64",
          "name": "_nonce",
          "type": "uint64"
        },
        {
          "internalType": "bytes",
          "name": "_payload",
          "type": "bytes"
        }
      ],
      "name": "nonblockingLzReceive",
      "outputs": [],
      "stateMutability": "nonpayable",
      "type": "function"
    },
    {
      "inputs": [],
      "name": "owner",
      "outputs": [
        {
          "internalType": "address",
          "name": "",
          "type": "address"
        }
      ],
      "stateMutability": "view",
      "type": "function"
    },
    {
      "inputs": [
        {
          "internalType": "uint16",
          "name": "",
          "type": "uint16"
        }
      ],
      "name": "payloadSizeLimitLookup",
      "outputs": [
        {
          "internalType": "uint256",
          "name": "",
          "type": "uint256"
        }
      ],
      "stateMutability": "view",
      "type": "function"
    },
    {
      "inputs": [],
      "name": "precrime",
      "outputs": [
        {
          "internalType": "address",
          "name": "",
          "type": "address"
        }
      ],
      "stateMutability": "view",
      "type": "function"
    },
    {
      "inputs": [],
      "name": "renounceOwnership",
      "outputs": [],
      "stateMutability": "nonpayable",
      "type": "function"
    },
    {
      "inputs": [
        {
          "internalType": "bytes32",
          "name": "role",
          "type": "bytes32"
        },
        {
          "internalType": "address",
          "name": "account",
          "type": "address"
        }
      ],
      "name": "renounceRole",
      "outputs": [],
      "stateMutability": "nonpayable",
      "type": "function"
    },
    {
      "inputs": [
        {
          "internalType": "uint16",
          "name": "_srcChainId",
          "type": "uint16"
        },
        {
          "internalType": "bytes",
          "name": "_srcAddress",
          "type": "bytes"
        },
        {
          "internalType": "uint64",
          "name": "_nonce",
          "type": "uint64"
        },
        {
          "internalType": "bytes",
          "name": "_payload",
          "type": "bytes"
        }
      ],
      "name": "retryMessage",
      "outputs": [],
      "stateMutability": "payable",
      "type": "function"
    },
    {
      "inputs": [
        {
          "internalType": "bytes32",
          "name": "role",
          "type": "bytes32"
        },
        {
          "internalType": "address",
          "name": "account",
          "type": "address"
        }
      ],
      "name": "revokeRole",
      "outputs": [],
      "stateMutability": "nonpayable",
      "type": "function"
    },
    {
      "inputs": [
        {
          "internalType": "uint256",
          "name": "tokenId",
          "type": "uint256"
        },
        {
          "internalType": "uint256",
          "name": "salePrice",
          "type": "uint256"
        }
      ],
      "name": "royaltyInfo",
      "outputs": [
        {
          "internalType": "address",
          "name": "",
          "type": "address"
        },
        {
          "internalType": "uint256",
          "name": "",
          "type": "uint256"
        }
      ],
      "stateMutability": "view",
      "type": "function"
    },
    {
      "inputs": [
        {
          "internalType": "address",
          "name": "from",
          "type": "address"
        },
        {
          "internalType": "address",
          "name": "to",
          "type": "address"
        },
        {
          "internalType": "uint256[]",
          "name": "ids",
          "type": "uint256[]"
        },
        {
          "internalType": "uint256[]",
          "name": "amounts",
          "type": "uint256[]"
        },
        {
          "internalType": "bytes",
          "name": "data",
          "type": "bytes"
        }
      ],
      "name": "safeBatchTransferFrom",
      "outputs": [],
      "stateMutability": "nonpayable",
      "type": "function"
    },
    {
      "inputs": [
        {
          "internalType": "address",
          "name": "from",
          "type": "address"
        },
        {
          "internalType": "address",
          "name": "to",
          "type": "address"
        },
        {
          "internalType": "uint256",
          "name": "id",
          "type": "uint256"
        },
        {
          "internalType": "uint256",
          "name": "amount",
          "type": "uint256"
        },
        {
          "internalType": "bytes",
          "name": "data",
          "type": "bytes"
        }
      ],
      "name": "safeTransferFrom",
      "outputs": [],
      "stateMutability": "nonpayable",
      "type": "function"
    },
    {
      "inputs": [
        {
          "internalType": "address",
          "name": "_from",
          "type": "address"
        },
        {
          "internalType": "uint16",
          "name": "_dstChainId",
          "type": "uint16"
        },
        {
          "internalType": "bytes",
          "name": "_toAddress",
          "type": "bytes"
        },
        {
          "internalType": "uint256[]",
          "name": "_tokenIds",
          "type": "uint256[]"
        },
        {
          "internalType": "uint256[]",
          "name": "_amounts",
          "type": "uint256[]"
        },
        {
          "internalType": "address payable",
          "name": "_refundAddress",
          "type": "address"
        },
        {
          "internalType": "address",
          "name": "_zroPaymentAddress",
          "type": "address"
        },
        {
          "internalType": "bytes",
          "name": "_adapterParams",
          "type": "bytes"
        }
      ],
      "name": "sendBatchFrom",
      "outputs": [],
      "stateMutability": "payable",
      "type": "function"
    },
    {
      "inputs": [
        {
          "internalType": "address",
          "name": "_from",
          "type": "address"
        },
        {
          "internalType": "uint16",
          "name": "_dstChainId",
          "type": "uint16"
        },
        {
          "internalType": "bytes",
          "name": "_toAddress",
          "type": "bytes"
        },
        {
          "internalType": "uint256",
          "name": "_tokenId",
          "type": "uint256"
        },
        {
          "internalType": "uint256",
          "name": "_amount",
          "type": "uint256"
        },
        {
          "internalType": "address payable",
          "name": "_refundAddress",
          "type": "address"
        },
        {
          "internalType": "address",
          "name": "_zroPaymentAddress",
          "type": "address"
        },
        {
          "internalType": "bytes",
          "name": "_adapterParams",
          "type": "bytes"
        }
      ],
      "name": "sendFrom",
      "outputs": [],
      "stateMutability": "payable",
      "type": "function"
    },
    {
      "inputs": [
        {
          "internalType": "address",
          "name": "operator",
          "type": "address"
        },
        {
          "internalType": "bool",
          "name": "approved",
          "type": "bool"
        }
      ],
      "name": "setApprovalForAll",
      "outputs": [],
      "stateMutability": "nonpayable",
      "type": "function"
    },
    {
      "inputs": [
        {
          "internalType": "uint16",
          "name": "_version",
          "type": "uint16"
        },
        {
          "internalType": "uint16",
          "name": "_chainId",
          "type": "uint16"
        },
        {
          "internalType": "uint256",
          "name": "_configType",
          "type": "uint256"
        },
        {
          "internalType": "bytes",
          "name": "_config",
          "type": "bytes"
        }
      ],
      "name": "setConfig",
      "outputs": [],
      "stateMutability": "nonpayable",
      "type": "function"
    },
    {
      "inputs": [
        {
          "internalType": "address",
          "name": "receiver",
          "type": "address"
        },
        {
          "internalType": "uint96",
          "name": "feeNumerator",
          "type": "uint96"
        }
      ],
      "name": "setDefaultRoyalty",
      "outputs": [],
      "stateMutability": "nonpayable",
      "type": "function"
    },
    {
      "inputs": [
        {
          "internalType": "uint16",
          "name": "_dstChainId",
          "type": "uint16"
        },
        {
          "internalType": "uint16",
          "name": "_packetType",
          "type": "uint16"
        },
        {
          "internalType": "uint256",
          "name": "_minGas",
          "type": "uint256"
        }
      ],
      "name": "setMinDstGas",
      "outputs": [],
      "stateMutability": "nonpayable",
      "type": "function"
    },
    {
      "inputs": [
        {
          "internalType": "uint16",
          "name": "_dstChainId",
          "type": "uint16"
        },
        {
          "internalType": "uint256",
          "name": "_size",
          "type": "uint256"
        }
      ],
      "name": "setPayloadSizeLimit",
      "outputs": [],
      "stateMutability": "nonpayable",
      "type": "function"
    },
    {
      "inputs": [
        {
          "internalType": "address",
          "name": "_precrime",
          "type": "address"
        }
      ],
      "name": "setPrecrime",
      "outputs": [],
      "stateMutability": "nonpayable",
      "type": "function"
    },
    {
      "inputs": [
        {
          "internalType": "uint16",
          "name": "_version",
          "type": "uint16"
        }
      ],
      "name": "setReceiveVersion",
      "outputs": [],
      "stateMutability": "nonpayable",
      "type": "function"
    },
    {
      "inputs": [
        {
          "internalType": "uint16",
          "name": "_version",
          "type": "uint16"
        }
      ],
      "name": "setSendVersion",
      "outputs": [],
      "stateMutability": "nonpayable",
      "type": "function"
    },
    {
      "inputs": [
        {
          "internalType": "uint256",
          "name": "tokenId",
          "type": "uint256"
        },
        {
          "internalType": "address",
          "name": "receiver",
          "type": "address"
        },
        {
          "internalType": "uint96",
          "name": "feeNumerator",
          "type": "uint96"
        }
      ],
      "name": "setTokenRoyalty",
      "outputs": [],
      "stateMutability": "nonpayable",
      "type": "function"
    },
    {
      "inputs": [
        {
          "internalType": "uint16",
          "name": "_remoteChainId",
          "type": "uint16"
        },
        {
          "internalType": "bytes",
          "name": "_path",
          "type": "bytes"
        }
      ],
      "name": "setTrustedRemote",
      "outputs": [],
      "stateMutability": "nonpayable",
      "type": "function"
    },
    {
      "inputs": [
        {
          "internalType": "uint16",
          "name": "_remoteChainId",
          "type": "uint16"
        },
        {
          "internalType": "bytes",
          "name": "_remoteAddress",
          "type": "bytes"
        }
      ],
      "name": "setTrustedRemoteAddress",
      "outputs": [],
      "stateMutability": "nonpayable",
      "type": "function"
    },
    {
      "inputs": [
        {
          "internalType": "string",
          "name": "_uri",
          "type": "string"
        }
      ],
      "name": "setURI",
      "outputs": [],
      "stateMutability": "nonpayable",
      "type": "function"
    },
    {
      "inputs": [
        {
          "internalType": "bool",
          "name": "_useCustomAdapterParams",
          "type": "bool"
        }
      ],
      "name": "setUseCustomAdapterParams",
      "outputs": [],
      "stateMutability": "nonpayable",
      "type": "function"
    },
    {
      "inputs": [
        {
          "internalType": "bytes4",
          "name": "interfaceId",
          "type": "bytes4"
        }
      ],
      "name": "supportsInterface",
      "outputs": [
        {
          "internalType": "bool",
          "name": "",
          "type": "bool"
        }
      ],
      "stateMutability": "view",
      "type": "function"
    },
    {
      "inputs": [],
      "name": "symbol",
      "outputs": [
        {
          "internalType": "string",
          "name": "",
          "type": "string"
        }
      ],
      "stateMutability": "view",
      "type": "function"
    },
    {
      "inputs": [
        {
          "internalType": "uint256",
          "name": "id",
          "type": "uint256"
        }
      ],
      "name": "totalSupply",
      "outputs": [
        {
          "internalType": "uint256",
          "name": "",
          "type": "uint256"
        }
      ],
      "stateMutability": "view",
      "type": "function"
    },
    {
      "inputs": [
        {
          "internalType": "address",
          "name": "newOwner",
          "type": "address"
        }
      ],
      "name": "transferOwnership",
      "outputs": [],
      "stateMutability": "nonpayable",
      "type": "function"
    },
    {
      "inputs": [
        {
          "internalType": "uint16",
          "name": "",
          "type": "uint16"
        }
      ],
      "name": "trustedRemoteLookup",
      "outputs": [
        {
          "internalType": "bytes",
          "name": "",
          "type": "bytes"
        }
      ],
      "stateMutability": "view",
      "type": "function"
    },
    {
      "inputs": [
        {
          "internalType": "uint256",
          "name": "id",
          "type": "uint256"
        }
      ],
      "name": "uri",
      "outputs": [
        {
          "internalType": "string",
          "name": "",
          "type": "string"
        }
      ],
      "stateMutability": "view",
      "type": "function"
    },
    {
      "inputs": [],
      "name": "useCustomAdapterParams",
      "outputs": [
        {
          "internalType": "bool",
          "name": "",
          "type": "bool"
        }
      ],
      "stateMutability": "view",
      "type": "function"
    },
    {
      "inputs": [],
      "name": "withdraw",
      "outputs": [],
      "stateMutability": "nonpayable",
      "type": "function"
    },
    {
      "inputs": [
        {
          "internalType": "contract IERC20",
          "name": "token",
          "type": "address"
        }
      ],
      "name": "withdrawTokens",
      "outputs": [],
      "stateMutability": "nonpayable",
      "type": "function"
    }
  ],
  "transactionHash": "0x80cbb591c0fcebf5506b1dd5481165b090fdecda7fadb2e0b88c5f6a176b7fd2",
  "args": [
    700,
    "https://placeholder.com",
    "0xae92d5aD7583AD66E49A0c67BAd18F6ba52dDDc1"
  ],
  "numDeployments": 1,
  "solcInputHash": "e850cd3ab621e654094ae9bb92f86989",
  "bytecode": "0x60e0604052601360a09081527f41726d6f7572583a20426c75657072696e74730000000000000000000000000060c052600e906200003e9082620003a8565b506040805180820190915260048152630415842560e41b6020820152600f90620000699082620003a8565b503480156200007757600080fd5b5060405162005f3338038062005f338339810160408190526200009a9162000491565b818181818080620000ab33620000ec565b6001600160a01b031660805250620000c59050816200013c565b50620000d7915060009050336200014e565b620000e333846200015a565b50505062000599565b600080546001600160a01b038381166001600160a01b0319831681178455604051919092169283917f8be0079c531659141344cd1fd0a4f28419497f9722a3daafe3b4186f6b6457e09190a35050565b600a6200014a8282620003a8565b5050565b6200014a82826200025f565b6127106001600160601b0382161115620001ce5760405162461bcd60e51b815260206004820152602a60248201527f455243323938313a20726f79616c7479206665652077696c6c206578636565646044820152692073616c65507269636560b01b60648201526084015b60405180910390fd5b6001600160a01b038216620002265760405162461bcd60e51b815260206004820152601960248201527f455243323938313a20696e76616c6964207265636569766572000000000000006044820152606401620001c5565b604080518082019091526001600160a01b039092168083526001600160601b039091166020909201829052600160a01b90910217600b55565b60008281526006602090815260408083206001600160a01b038516845290915290205460ff166200014a5760008281526006602090815260408083206001600160a01b03851684529091529020805460ff19166001179055620002bf3390565b6001600160a01b0316816001600160a01b0316837f2f8788117e7eff1d82e926ec794901d17c78024a50270940304540a733656f0d60405160405180910390a45050565b634e487b7160e01b600052604160045260246000fd5b600181811c908216806200032e57607f821691505b6020821081036200034f57634e487b7160e01b600052602260045260246000fd5b50919050565b601f821115620003a357600081815260208120601f850160051c810160208610156200037e5750805b601f850160051c820191505b818110156200039f578281556001016200038a565b5050505b505050565b81516001600160401b03811115620003c457620003c462000303565b620003dc81620003d5845462000319565b8462000355565b602080601f831160018114620004145760008415620003fb5750858301515b600019600386901b1c1916600185901b1785556200039f565b600085815260208120601f198616915b82811015620004455788860151825594840194600190910190840162000424565b5085821015620004645787850151600019600388901b60f8161c191681555b5050505050600190811b01905550565b80516001600160a01b03811681146200048c57600080fd5b919050565b600080600060608486031215620004a757600080fd5b83516001600160601b0381168114620004bf57600080fd5b602085810151919450906001600160401b0380821115620004df57600080fd5b818701915087601f830112620004f457600080fd5b81518181111562000509576200050962000303565b604051601f8201601f19908116603f0116810190838211818310171562000534576200053462000303565b816040528281528a868487010111156200054d57600080fd5b600093505b8284101562000571578484018601518185018701529285019262000552565b6000868483010152809750505050505050620005906040850162000474565b90509250925092565b608051615946620005ed60003960008181610a3c01528181610c7a01528181611022015281816111420152818161144d01528181611ba401528181611cad015281816121b50152613a2001526159466000f3fe6080604052600436106103c15760003560e01c80636b20c454116101f2578063baf3292d1161010d578063e985e9c5116100a0578063f242432a1161006f578063f242432a14610bf7578063f2fde38b14610c17578063f5298aca14610c37578063f5ecbdbc14610c5757600080fd5b8063e985e9c514610b54578063eab45d9c14610b9d578063eb8d72b714610bbd578063ed629c5c14610bdd57600080fd5b8063d1deba1f116100dc578063d1deba1f14610ae1578063d547741f14610af4578063d81d0a1514610b14578063df2a5b3b14610b3457600080fd5b8063baf3292d14610a5e578063bd85b03914610a7e578063c446183414610aab578063cbed8b9c14610ac157600080fd5b806395d89b4111610185578063a6c3d16511610154578063a6c3d165146109d5578063af3fb21c146109f5578063b253566314610a0a578063b353aaa714610a2a57600080fd5b806395d89b41146109805780639f38369a14610995578063a217fddf146106c6578063a22cb465146109b557600080fd5b80638cfd8f5c116101c15780638cfd8f5c146108d65780638da5cb5b1461090e57806391d1485414610940578063950c8a741461096057600080fd5b80636b20c4541461084c578063715018a61461086c5780637533d788146108815780638608e5f8146108a157600080fd5b806336568abe116102e25780634db8226a116102755780635944c753116102445780635944c7531461079d5780635b8c41e6146107bd5780635e70be341461080c57806366ad5c8a1461082c57600080fd5b80634db8226a1461070e5780634e1273f4146107215780634f558e791461074e57806357884c241461077d57600080fd5b806342d65a8d116102b157806342d65a8d146106a657806344770515146106c657806349df728c146106db5780634ab4e687146106fb57600080fd5b806336568abe146106245780633ccfd60b146106445780633d8b38f6146106595780633f1f4fa41461067957600080fd5b80630e89341c1161035a578063248a9ca311610329578063248a9ca3146105755780632a55205a146105a55780632eb2c2d6146105e45780632f2ff15d1461060457600080fd5b80630e89341c146104ed57806310ddb1371461050d578063149e3e1f1461052d578063156e29f61461055557600080fd5b806304634d8d1161039657806304634d8d1461046b57806306fdde031461048b57806307e0db17146104ad5780630df37483146104cd57600080fd5b80621d3567146103c6578062fdd58e146103e857806301ffc9a71461041b57806302fe53051461044b575b600080fd5b3480156103d257600080fd5b506103e66103e1366004613fae565b610c77565b005b3480156103f457600080fd5b50610408610403366004614061565b610ea8565b6040519081526020015b60405180910390f35b34801561042757600080fd5b5061043b6104363660046140a3565b610f3e565b6040519015158152602001610412565b34801561045757600080fd5b506103e661046636600461416f565b610f49565b34801561047757600080fd5b506103e66104863660046141d6565b610f5d565b34801561049757600080fd5b506104a0610f73565b604051610412919061425b565b3480156104b957600080fd5b506103e66104c836600461426e565b611001565b3480156104d957600080fd5b506103e66104e8366004614289565b61108a565b3480156104f957600080fd5b506104a06105083660046142a5565b6110a9565b34801561051957600080fd5b506103e661052836600461426e565b611121565b34801561053957600080fd5b50610542600281565b60405161ffff9091168152602001610412565b34801561056157600080fd5b506103e66105703660046142be565b611179565b34801561058157600080fd5b506104086105903660046142a5565b60009081526006602052604090206001015490565b3480156105b157600080fd5b506105c56105c03660046142f3565b611199565b604080516001600160a01b039093168352602083019190915201610412565b3480156105f057600080fd5b506103e66105ff3660046143c9565b611247565b34801561061057600080fd5b506103e661061f366004614476565b61128c565b34801561063057600080fd5b506103e661063f366004614476565b6112b1565b34801561065057600080fd5b506103e661132b565b34801561066557600080fd5b5061043b6106743660046144a6565b611362565b34801561068557600080fd5b5061040861069436600461426e565b60036020526000908152604090205481565b3480156106b257600080fd5b506103e66106c13660046144a6565b61142e565b3480156106d257600080fd5b50610408600081565b3480156106e757600080fd5b506103e66106f63660046144f8565b6114b4565b6103e6610709366004614515565b61159b565b6103e661071c366004614604565b6115b5565b34801561072d57600080fd5b5061074161073c366004614719565b6115d5565b60405161041291906147b7565b34801561075a57600080fd5b5061043b6107693660046142a5565b6000908152600d6020526040902054151590565b34801561078957600080fd5b506103e66107983660046147ca565b6116fe565b3480156107a957600080fd5b506103e66107b836600461482b565b611780565b3480156107c957600080fd5b506104086107d8366004614869565b6005602090815260009384526040808520845180860184018051928152908401958401959095209452929052825290205481565b34801561081857600080fd5b506103e66108273660046148bd565b611793565b34801561083857600080fd5b506103e6610847366004613fae565b61180d565b34801561085857600080fd5b506103e661086736600461492c565b6118e1565b34801561087857600080fd5b506103e6611924565b34801561088d57600080fd5b506104a061089c36600461426e565b611938565b3480156108ad57600080fd5b506108c16108bc3660046149ba565b611951565b60408051928352602083019190915201610412565b3480156108e257600080fd5b506104086108f1366004614a54565b600260209081526000928352604080842090915290825290205481565b34801561091a57600080fd5b506000546001600160a01b03165b6040516001600160a01b039091168152602001610412565b34801561094c57600080fd5b5061043b61095b366004614476565b611981565b34801561096c57600080fd5b50600454610928906001600160a01b031681565b34801561098c57600080fd5b506104a06119ac565b3480156109a157600080fd5b506104a06109b036600461426e565b6119b9565b3480156109c157600080fd5b506103e66109d0366004614a7e565b611acf565b3480156109e157600080fd5b506103e66109f03660046144a6565b611ada565b348015610a0157600080fd5b50610542600181565b348015610a1657600080fd5b506108c1610a25366004614aac565b611b63565b348015610a3657600080fd5b506109287f000000000000000000000000000000000000000000000000000000000000000081565b348015610a6a57600080fd5b506103e6610a793660046144f8565b611c31565b348015610a8a57600080fd5b50610408610a993660046142a5565b6000908152600d602052604090205490565b348015610ab757600080fd5b5061040861271081565b348015610acd57600080fd5b506103e6610adc366004614b5e565b611c8e565b6103e6610aef366004613fae565b611d23565b348015610b0057600080fd5b506103e6610b0f366004614476565b611f39565b348015610b2057600080fd5b506103e6610b2f36600461492c565b611f5e565b348015610b4057600080fd5b506103e6610b4f366004614bcc565b611f79565b348015610b6057600080fd5b5061043b610b6f366004614c08565b6001600160a01b03918216600090815260096020908152604080832093909416825291909152205460ff1690565b348015610ba957600080fd5b506103e6610bb8366004614c36565b611fe3565b348015610bc957600080fd5b506103e6610bd83660046144a6565b61202c565b348015610be957600080fd5b5060075461043b9060ff1681565b348015610c0357600080fd5b506103e6610c12366004614c53565b612086565b348015610c2357600080fd5b506103e6610c323660046144f8565b6120cb565b348015610c4357600080fd5b506103e6610c523660046142be565b612141565b348015610c6357600080fd5b506104a0610c72366004614cbb565b612184565b337f00000000000000000000000000000000000000000000000000000000000000006001600160a01b031614610cf45760405162461bcd60e51b815260206004820152601e60248201527f4c7a4170703a20696e76616c696420656e64706f696e742063616c6c6572000060448201526064015b60405180910390fd5b61ffff861660009081526001602052604081208054610d1290614d08565b80601f0160208091040260200160405190810160405280929190818152602001828054610d3e90614d08565b8015610d8b5780601f10610d6057610100808354040283529160200191610d8b565b820191906000526020600020905b815481529060010190602001808311610d6e57829003601f168201915b50505050509050805186869050148015610da6575060008151115b8015610dce575080516020820120604051610dc49088908890614d42565b6040518091039020145b610e295760405162461bcd60e51b815260206004820152602660248201527f4c7a4170703a20696e76616c696420736f757263652073656e64696e6720636f6044820152651b9d1c9858dd60d21b6064820152608401610ceb565b610e9f8787878080601f01602080910402602001604051908101604052809392919081815260200183838082843760009201919091525050604080516020601f8a018190048102820181019092528881528a93509150889088908190840183828082843760009201919091525061223592505050565b50505050505050565b60006001600160a01b038316610f135760405162461bcd60e51b815260206004820152602a60248201527f455243313135353a2061646472657373207a65726f206973206e6f742061207660448201526930b634b21037bbb732b960b11b6064820152608401610ceb565b5060008181526008602090815260408083206001600160a01b03861684529091529020545b92915050565b6000610f38826122ae565b610f516122cb565b610f5a81612325565b50565b610f656122cb565b610f6f8282612331565b5050565b600e8054610f8090614d08565b80601f0160208091040260200160405190810160405280929190818152602001828054610fac90614d08565b8015610ff95780601f10610fce57610100808354040283529160200191610ff9565b820191906000526020600020905b815481529060010190602001808311610fdc57829003601f168201915b505050505081565b6110096122cb565b6040516307e0db1760e01b815261ffff821660048201527f00000000000000000000000000000000000000000000000000000000000000006001600160a01b0316906307e0db17906024015b600060405180830381600087803b15801561106f57600080fd5b505af1158015611083573d6000803e3d6000fd5b5050505050565b6110926122cb565b61ffff909116600090815260036020526040902055565b6000818152600d60205260409020546060906111185760405162461bcd60e51b815260206004820152602860248201527f457874656e6465644f4e4654313135353a20546f6b656e20494420646f65736e60448201526709dd08195e1a5cdd60c21b6064820152608401610ceb565b610f38826123eb565b6111296122cb565b6040516310ddb13760e01b815261ffff821660048201527f00000000000000000000000000000000000000000000000000000000000000006001600160a01b0316906310ddb13790602401611055565b6111948383836040518060200160405280600081525061247f565b505050565b6000828152600c602090815260408083208151808301909252546001600160a01b038116808352600160a01b9091046001600160601b031692820192909252829161120e575060408051808201909152600b546001600160a01b0381168252600160a01b90046001600160601b031660208201525b60208101516000906127109061122d906001600160601b031687614d68565b6112379190614d7f565b91519350909150505b9250929050565b6001600160a01b03851633148061126357506112638533610b6f565b61127f5760405162461bcd60e51b8152600401610ceb90614da1565b6110838585858585612561565b6000828152600660205260409020600101546112a781612706565b6111948383612710565b6001600160a01b03811633146113215760405162461bcd60e51b815260206004820152602f60248201527f416363657373436f6e74726f6c3a2063616e206f6e6c792072656e6f756e636560448201526e103937b632b9903337b91039b2b63360891b6064820152608401610ceb565b610f6f8282612796565b6113336122cb565b6040514790339082156108fc029083906000818181858888f19350505050158015610f6f573d6000803e3d6000fd5b61ffff83166000908152600160205260408120805482919061138390614d08565b80601f01602080910402602001604051908101604052809291908181526020018280546113af90614d08565b80156113fc5780601f106113d1576101008083540402835291602001916113fc565b820191906000526020600020905b8154815290600101906020018083116113df57829003601f168201915b505050505090508383604051611413929190614d42565b60405180910390208180519060200120149150509392505050565b6114366122cb565b6040516342d65a8d60e01b81526001600160a01b037f000000000000000000000000000000000000000000000000000000000000000016906342d65a8d9061148690869086908690600401614e18565b600060405180830381600087803b1580156114a057600080fd5b505af1158015610e9f573d6000803e3d6000fd5b6114bc6122cb565b6040516370a0823160e01b81523060048201526000906001600160a01b038316906370a0823190602401602060405180830381865afa158015611503573d6000803e3d6000fd5b505050506040513d601f19601f820116820180604052508101906115279190614e36565b60405163a9059cbb60e01b8152336004820152602481018290529091506001600160a01b0383169063a9059cbb906044016020604051808303816000875af1158015611577573d6000803e3d6000fd5b505050506040513d601f19601f820116820180604052508101906111949190614e4f565b6115ab88888888888888886127fd565b5050505050505050565b6115ab8888886115c4896129e4565b6115cd896129e4565b8888886127fd565b6060815183511461163a5760405162461bcd60e51b815260206004820152602960248201527f455243313135353a206163636f756e747320616e6420696473206c656e677468604482015268040dad2e6dac2e8c6d60bb1b6064820152608401610ceb565b600083516001600160401b03811115611655576116556140c0565b60405190808252806020026020018201604052801561167e578160200160208202803683370190505b50905060005b84518110156116f6576116c98582815181106116a2576116a2614e6c565b60200260200101518583815181106116bc576116bc614e6c565b6020026020010151610ea8565b8282815181106116db576116db614e6c565b60209081029190910101526116ef81614e82565b9050611684565b509392505050565b6001600160a01b03851633148061171a575061171a8533610b6f565b6117365760405162461bcd60e51b8152600401610ceb90614e9b565b60005b8451811015611778576117688686838151811061175857611758614e6c565b6020026020010151868686612561565b61177181614e82565b9050611739565b505050505050565b6117886122cb565b611194838383612a2f565b6001600160a01b0385163314806117af57506117af8533610b6f565b6117cb5760405162461bcd60e51b8152600401610ceb90614e9b565b60005b8451811015611778576117fd868683815181106117ed576117ed614e6c565b6020026020010151868686612afa565b61180681614e82565b90506117ce565b33301461186b5760405162461bcd60e51b815260206004820152602660248201527f4e6f6e626c6f636b696e674c7a4170703a2063616c6c6572206d7573742062656044820152650204c7a4170760d41b6064820152608401610ceb565b6117788686868080601f01602080910402602001604051908101604052809392919081815260200183838082843760009201919091525050604080516020601f890181900481028201810190925287815289935091508790879081908401838280828437600092019190915250612c2b92505050565b6001600160a01b0383163314806118fd57506118fd8333610b6f565b6119195760405162461bcd60e51b8152600401610ceb90614da1565b611194838383612d78565b61192c6122cb565b6119366000612f19565b565b60016020526000908152604090208054610f8090614d08565b6000806119728888611962896129e4565b61196b896129e4565b8888611b63565b91509150965096945050505050565b60009182526006602090815260408084206001600160a01b0393909316845291905290205460ff1690565b600f8054610f8090614d08565b61ffff81166000908152600160205260408120805460609291906119dc90614d08565b80601f0160208091040260200160405190810160405280929190818152602001828054611a0890614d08565b8015611a555780601f10611a2a57610100808354040283529160200191611a55565b820191906000526020600020905b815481529060010190602001808311611a3857829003601f168201915b505050505090508051600003611aad5760405162461bcd60e51b815260206004820152601d60248201527f4c7a4170703a206e6f20747275737465642070617468207265636f72640000006044820152606401610ceb565b611ac8600060148351611ac09190614ef8565b839190612f69565b9392505050565b610f6f338383613076565b611ae26122cb565b818130604051602001611af793929190614f0b565b60408051601f1981840301815291815261ffff8516600090815260016020522090611b229082614f77565b507f8c0400cfe2d1199b1a725c78960bcc2a344d869b80590d0f2bd005db15a572ce838383604051611b5693929190614e18565b60405180910390a1505050565b6000806000878787604051602001611b7d93929190615036565b60408051601f198184030181529082905263040a7bb160e41b825291506001600160a01b037f000000000000000000000000000000000000000000000000000000000000000016906340a7bb1090611be1908c90309086908b908b90600401615079565b6040805180830381865afa158015611bfd573d6000803e3d6000fd5b505050506040513d601f19601f82011682018060405250810190611c2191906150cd565b9250925050965096945050505050565b611c396122cb565b600480546001600160a01b0319166001600160a01b0383169081179091556040519081527f5db758e995a17ec1ad84bdef7e8c3293a0bd6179bcce400dff5d4c3d87db726b906020015b60405180910390a150565b611c966122cb565b6040516332fb62e760e21b81526001600160a01b037f0000000000000000000000000000000000000000000000000000000000000000169063cbed8b9c90611cea90889088908890889088906004016150f1565b600060405180830381600087803b158015611d0457600080fd5b505af1158015611d18573d6000803e3d6000fd5b505050505050505050565b61ffff86166000908152600560205260408082209051611d469088908890614d42565b90815260408051602092819003830190206001600160401b03871660009081529252902054905080611dc65760405162461bcd60e51b815260206004820152602360248201527f4e6f6e626c6f636b696e674c7a4170703a206e6f2073746f726564206d65737360448201526261676560e81b6064820152608401610ceb565b808383604051611dd7929190614d42565b604051809103902014611e365760405162461bcd60e51b815260206004820152602160248201527f4e6f6e626c6f636b696e674c7a4170703a20696e76616c6964207061796c6f616044820152601960fa1b6064820152608401610ceb565b61ffff87166000908152600560205260408082209051611e599089908990614d42565b90815260408051602092819003830181206001600160401b038916600090815290845282902093909355601f88018290048202830182019052868252611ef1918991899089908190840183828082843760009201919091525050604080516020601f8a018190048102820181019092528881528a935091508890889081908401838280828437600092019190915250612c2b92505050565b7fc264d91f3adc5588250e1551f547752ca0cfa8f6b530d243b9f9f4cab10ea8e58787878785604051611f2895949392919061512a565b60405180910390a150505050505050565b600082815260066020526040902060010154611f5481612706565b6111948383612796565b61119483838360405180602001604052806000815250613156565b611f816122cb565b61ffff83811660008181526002602090815260408083209487168084529482529182902085905581519283528201929092529081018290527f9d5c7c0b934da8fefa9c7760c98383778a12dfbfc0c3b3106518f43fb9508ac090606001611b56565b611feb6122cb565b6007805460ff19168215159081179091556040519081527f1584ad594a70cbe1e6515592e1272a987d922b097ead875069cebe8b40c004a490602001611c83565b6120346122cb565b61ffff83166000908152600160205260409020612052828483615165565b507ffa41487ad5d6728f0b19276fa1eddc16558578f5109fc39d2dc33c3230470dab838383604051611b5693929190614e18565b6001600160a01b0385163314806120a257506120a28533610b6f565b6120be5760405162461bcd60e51b8152600401610ceb90614da1565b6110838585858585612afa565b6120d36122cb565b6001600160a01b0381166121385760405162461bcd60e51b815260206004820152602660248201527f4f776e61626c653a206e6577206f776e657220697320746865207a65726f206160448201526564647265737360d01b6064820152608401610ceb565b610f5a81612f19565b6001600160a01b03831633148061215d575061215d8333610b6f565b6121795760405162461bcd60e51b8152600401610ceb90614da1565b6111948383836132b1565b604051633d7b2f6f60e21b815261ffff808616600483015284166024820152306044820152606481018290526060907f00000000000000000000000000000000000000000000000000000000000000006001600160a01b03169063f5ecbdbc90608401600060405180830381865afa158015612204573d6000803e3d6000fd5b505050506040513d6000823e601f3d908101601f1916820160405261222c9190810190615273565b95945050505050565b6000806122985a60966366ad5c8a60e01b8989898960405160240161225d94939291906152a7565b60408051601f198184030181529190526020810180516001600160e01b03166001600160e01b031990931692909217909152309291906133cd565b9150915081611778576117788686868685613457565b60006001600160e01b031982161580610f385750610f38826134f4565b6000546001600160a01b031633146119365760405162461bcd60e51b815260206004820181905260248201527f4f776e61626c653a2063616c6c6572206973206e6f7420746865206f776e65726044820152606401610ceb565b600a610f6f8282614f77565b6127106001600160601b038216111561235c5760405162461bcd60e51b8152600401610ceb906152e5565b6001600160a01b0382166123b25760405162461bcd60e51b815260206004820152601960248201527f455243323938313a20696e76616c6964207265636569766572000000000000006044820152606401610ceb565b604080518082019091526001600160a01b039092168083526001600160601b039091166020909201829052600160a01b90910217600b55565b6060600a80546123fa90614d08565b80601f016020809104026020016040519081016040528092919081815260200182805461242690614d08565b80156124735780601f1061244857610100808354040283529160200191612473565b820191906000526020600020905b81548152906001019060200180831161245657829003601f168201915b50505050509050919050565b6001600160a01b0384166124a55760405162461bcd60e51b8152600401610ceb9061532f565b3360006124b1856129e4565b905060006124be856129e4565b90506124cf83600089858589613519565b60008681526008602090815260408083206001600160a01b038b16845290915281208054879290612501908490615370565b909155505060408051878152602081018790526001600160a01b03808a1692600092918716917fc3d58168c5ae7397731d063d5bbf3d657854427343f4c083240f7aacaa2d0f62910160405180910390a4610e9f83600089898989613527565b81518351146125825760405162461bcd60e51b8152600401610ceb90615383565b6001600160a01b0384166125a85760405162461bcd60e51b8152600401610ceb906153cb565b336125b7818787878787613519565b60005b84518110156126a05760008582815181106125d7576125d7614e6c565b6020026020010151905060008583815181106125f5576125f5614e6c565b60209081029190910181015160008481526008835260408082206001600160a01b038e1683529093529190912054909150818110156126465760405162461bcd60e51b8152600401610ceb90615410565b60008381526008602090815260408083206001600160a01b038e8116855292528083208585039055908b16825281208054849290612685908490615370565b925050819055505050508061269990614e82565b90506125ba565b50846001600160a01b0316866001600160a01b0316826001600160a01b03167f4a39dc06d4c0dbc64b70af90fd698a233a518aa5d07e595d983b8c0526c8f7fb87876040516126f092919061545a565b60405180910390a4611778818787878787613682565b610f5a813361373d565b61271a8282611981565b610f6f5760008281526006602090815260408083206001600160a01b03851684529091529020805460ff191660011790556127523390565b6001600160a01b0316816001600160a01b0316837f2f8788117e7eff1d82e926ec794901d17c78024a50270940304540a733656f0d60405160405180910390a45050565b6127a08282611981565b15610f6f5760008281526006602090815260408083206001600160a01b0385168085529252808320805460ff1916905551339285917ff6391f5c32d9c69d2a47ea670b442974b53935d1edc7fd64eb21e047a839171b9190a45050565b61280a8888888888613796565b600086868660405160200161282193929190615036565b604051602081830303815290604052905085516001036129265760075460ff161561285957612854886001846000613822565b612878565b8151156128785760405162461bcd60e51b8152600401610ceb9061547f565b6128868882868686346138f7565b8660405161289491906154c3565b6040518091039020896001600160a01b03168961ffff167f968b0d61ebcf43e5d76ed87bd2c4ee2f22b4969b9f4ca49e3373c025eddd5eeb896000815181106128df576128df614e6c565b6020026020010151896000815181106128fa576128fa614e6c565b6020026020010151604051612919929190918252602082015260400190565b60405180910390a4611d18565b600186511115611d185760075460ff161561294e57612949886002846000613822565b61296d565b81511561296d5760405162461bcd60e51b8152600401610ceb9061547f565b61297b8882868686346138f7565b8660405161298991906154c3565b6040518091039020896001600160a01b03168961ffff167fddd15f7cfbd674ac2096d598f1650367f8a8bd72b4e3abd85591099ea3b57e3389896040516129d192919061545a565b60405180910390a4505050505050505050565b60408051600180825281830190925260609160009190602080830190803683370190505090508281600081518110612a1e57612a1e614e6c565b602090810291909101015292915050565b6127106001600160601b0382161115612a5a5760405162461bcd60e51b8152600401610ceb906152e5565b6001600160a01b038216612ab05760405162461bcd60e51b815260206004820152601b60248201527f455243323938313a20496e76616c696420706172616d657465727300000000006044820152606401610ceb565b6040805180820182526001600160a01b0393841681526001600160601b0392831660208083019182526000968752600c90529190942093519051909116600160a01b029116179055565b6001600160a01b038416612b205760405162461bcd60e51b8152600401610ceb906153cb565b336000612b2c856129e4565b90506000612b39856129e4565b9050612b49838989858589613519565b60008681526008602090815260408083206001600160a01b038c16845290915290205485811015612b8c5760405162461bcd60e51b8152600401610ceb90615410565b60008781526008602090815260408083206001600160a01b038d8116855292528083208985039055908a16825281208054889290612bcb908490615370565b909155505060408051888152602081018890526001600160a01b03808b16928c821692918816917fc3d58168c5ae7397731d063d5bbf3d657854427343f4c083240f7aacaa2d0f62910160405180910390a4611d18848a8a8a8a8a613527565b600080600083806020019051810190612c449190615545565b60148301519295509093509150612c5d88828585613a9c565b8251600103612d0657806001600160a01b031687604051612c7e91906154c3565b60405180910390208961ffff167f1bf64e58d19fc43de4c44b3d1bb1fae313979af831a7a39f3297564294329f0f86600081518110612cbf57612cbf614e6c565b602002602001015186600081518110612cda57612cda614e6c565b6020026020010151604051612cf9929190918252602082015260400190565b60405180910390a46115ab565b6001835111156115ab57806001600160a01b031687604051612d2891906154c3565b60405180910390208961ffff167f1ae08edbbcd7baa8d064835de8593ce16b313414525ac89534e349f4da7926e48686604051612d6692919061545a565b60405180910390a45050505050505050565b6001600160a01b038316612d9e5760405162461bcd60e51b8152600401610ceb906155c2565b8051825114612dbf5760405162461bcd60e51b8152600401610ceb90615383565b6000339050612de281856000868660405180602001604052806000815250613519565b60005b8351811015612eaa576000848281518110612e0257612e02614e6c565b602002602001015190506000848381518110612e2057612e20614e6c565b60209081029190910181015160008481526008835260408082206001600160a01b038c168352909352919091205490915081811015612e715760405162461bcd60e51b8152600401610ceb90615605565b60009283526008602090815260408085206001600160a01b038b1686529091529092209103905580612ea281614e82565b915050612de5565b5060006001600160a01b0316846001600160a01b0316826001600160a01b03167f4a39dc06d4c0dbc64b70af90fd698a233a518aa5d07e595d983b8c0526c8f7fb8686604051612efb92919061545a565b60405180910390a46040805160208101909152600090525b50505050565b600080546001600160a01b038381166001600160a01b0319831681178455604051919092169283917f8be0079c531659141344cd1fd0a4f28419497f9722a3daafe3b4186f6b6457e09190a35050565b606081612f7781601f615370565b1015612fb65760405162461bcd60e51b815260206004820152600e60248201526d736c6963655f6f766572666c6f7760901b6044820152606401610ceb565b612fc08284615370565b845110156130045760405162461bcd60e51b8152602060048201526011602482015270736c6963655f6f75744f66426f756e647360781b6044820152606401610ceb565b606082158015613023576040519150600082526020820160405261306d565b6040519150601f8416801560200281840101858101878315602002848b0101015b8183101561305c578051835260209283019201613044565b5050858452601f01601f1916604052505b50949350505050565b816001600160a01b0316836001600160a01b0316036130e95760405162461bcd60e51b815260206004820152602960248201527f455243313135353a2073657474696e6720617070726f76616c20737461747573604482015268103337b91039b2b63360b91b6064820152608401610ceb565b6001600160a01b03838116600081815260096020908152604080832094871680845294825291829020805460ff191686151590811790915591519182527f17307eab39ab6107e8899845ad3d59bd9653f200f220920489ca2b5937696c31910160405180910390a3505050565b6001600160a01b03841661317c5760405162461bcd60e51b8152600401610ceb9061532f565b815183511461319d5760405162461bcd60e51b8152600401610ceb90615383565b336131ad81600087878787613519565b60005b8451811015613249578381815181106131cb576131cb614e6c565b6020026020010151600860008784815181106131e9576131e9614e6c565b602002602001015181526020019081526020016000206000886001600160a01b03166001600160a01b0316815260200190815260200160002060008282546132319190615370565b9091555081905061324181614e82565b9150506131b0565b50846001600160a01b031660006001600160a01b0316826001600160a01b03167f4a39dc06d4c0dbc64b70af90fd698a233a518aa5d07e595d983b8c0526c8f7fb878760405161329a92919061545a565b60405180910390a461108381600087878787613682565b6001600160a01b0383166132d75760405162461bcd60e51b8152600401610ceb906155c2565b3360006132e3846129e4565b905060006132f0846129e4565b905061331083876000858560405180602001604052806000815250613519565b60008581526008602090815260408083206001600160a01b038a168452909152902054848110156133535760405162461bcd60e51b8152600401610ceb90615605565b60008681526008602090815260408083206001600160a01b038b81168086529184528285208a8703905582518b81529384018a90529092908816917fc3d58168c5ae7397731d063d5bbf3d657854427343f4c083240f7aacaa2d0f62910160405180910390a4604080516020810190915260009052610e9f565b6000606060008060008661ffff166001600160401b038111156133f2576133f26140c0565b6040519080825280601f01601f19166020018201604052801561341c576020820181803683370190505b50905060008087516020890160008d8df191503d92508683111561343e578692505b828152826000602083013e909890975095505050505050565b8180519060200120600560008761ffff1661ffff1681526020019081526020016000208560405161348891906154c3565b9081526040805191829003602090810183206001600160401b0388166000908152915220919091557fe183f33de2837795525b4792ca4cd60535bd77c53b7e7030060bfcf5734d6b0c906134e59087908790879087908790615649565b60405180910390a15050505050565b60006001600160e01b0319821663152a902d60e11b1480610f385750610f3882613ab7565b611778868686868686613af7565b6001600160a01b0384163b156117785760405163f23a6e6160e01b81526001600160a01b0385169063f23a6e619061356b908990899088908890889060040161569b565b6020604051808303816000875af19250505080156135a6575060408051601f3d908101601f191682019092526135a3918101906156d5565b60015b613652576135b26156f2565b806308c379a0036135eb57506135c661570e565b806135d157506135ed565b8060405162461bcd60e51b8152600401610ceb919061425b565b505b60405162461bcd60e51b815260206004820152603460248201527f455243313135353a207472616e7366657220746f206e6f6e2d455243313135356044820152732932b1b2b4bb32b91034b6b83632b6b2b73a32b960611b6064820152608401610ceb565b6001600160e01b0319811663f23a6e6160e01b14610e9f5760405162461bcd60e51b8152600401610ceb90615797565b6001600160a01b0384163b156117785760405163bc197c8160e01b81526001600160a01b0385169063bc197c81906136c690899089908890889088906004016157df565b6020604051808303816000875af1925050508015613701575060408051601f3d908101601f191682019092526136fe918101906156d5565b60015b61370d576135b26156f2565b6001600160e01b0319811663bc197c8160e01b14610e9f5760405162461bcd60e51b8152600401610ceb90615797565b6137478282611981565b610f6f5761375481613c70565b61375f836020613c82565b60405160200161377092919061581d565b60408051601f198184030181529082905262461bcd60e51b8252610ceb9160040161425b565b336001600160a01b0386168114806137b357506137b38682610b6f565b6138175760405162461bcd60e51b815260206004820152602f60248201527f4f4e4654313135353a2073656e642063616c6c6572206973206e6f74206f776e60448201526e195c881b9bdc88185c1c1c9bdd9959608a1b6064820152608401610ceb565b611778868484612d78565b600061382d83613e1d565b61ffff8087166000908152600260209081526040808320938916835292905220549091508061389e5760405162461bcd60e51b815260206004820152601a60248201527f4c7a4170703a206d696e4761734c696d6974206e6f74207365740000000000006044820152606401610ceb565b6138a88382615370565b8210156117785760405162461bcd60e51b815260206004820152601b60248201527f4c7a4170703a20676173206c696d697420697320746f6f206c6f7700000000006044820152606401610ceb565b61ffff86166000908152600160205260408120805461391590614d08565b80601f016020809104026020016040519081016040528092919081815260200182805461394190614d08565b801561398e5780601f106139635761010080835404028352916020019161398e565b820191906000526020600020905b81548152906001019060200180831161397157829003601f168201915b5050505050905080516000036139ff5760405162461bcd60e51b815260206004820152603060248201527f4c7a4170703a2064657374696e6174696f6e20636861696e206973206e6f742060448201526f61207472757374656420736f7572636560801b6064820152608401610ceb565b613a0a878751613e79565b60405162c5803160e81b81526001600160a01b037f0000000000000000000000000000000000000000000000000000000000000000169063c5803100908490613a61908b9086908c908c908c908c90600401615892565b6000604051808303818588803b158015613a7a57600080fd5b505af1158015613a8e573d6000803e3d6000fd5b505050505050505050505050565b612f1383838360405180602001604052806000815250613156565b60006001600160e01b03198216636cdb3d1360e11b1480613ae857506001600160e01b031982166303a24d0760e21b145b80610f385750610f3882613eea565b6001600160a01b038516613b7e5760005b8351811015613b7c57828181518110613b2357613b23614e6c565b6020026020010151600d6000868481518110613b4157613b41614e6c565b602002602001015181526020019081526020016000206000828254613b669190615370565b90915550613b75905081614e82565b9050613b08565b505b6001600160a01b0384166117785760005b8351811015610e9f576000848281518110613bac57613bac614e6c565b602002602001015190506000848381518110613bca57613bca614e6c565b602002602001015190506000600d600084815260200190815260200160002054905081811015613c4d5760405162461bcd60e51b815260206004820152602860248201527f455243313135353a206275726e20616d6f756e74206578636565647320746f74604482015267616c537570706c7960c01b6064820152608401610ceb565b6000928352600d602052604090922091039055613c6981614e82565b9050613b8f565b6060610f386001600160a01b03831660145b60606000613c91836002614d68565b613c9c906002615370565b6001600160401b03811115613cb357613cb36140c0565b6040519080825280601f01601f191660200182016040528015613cdd576020820181803683370190505b509050600360fc1b81600081518110613cf857613cf8614e6c565b60200101906001600160f81b031916908160001a905350600f60fb1b81600181518110613d2757613d27614e6c565b60200101906001600160f81b031916908160001a9053506000613d4b846002614d68565b613d56906001615370565b90505b6001811115613dce576f181899199a1a9b1b9c1cb0b131b232b360811b85600f1660108110613d8a57613d8a614e6c565b1a60f81b828281518110613da057613da0614e6c565b60200101906001600160f81b031916908160001a90535060049490941c93613dc7816158f9565b9050613d59565b508315611ac85760405162461bcd60e51b815260206004820181905260248201527f537472696e67733a20686578206c656e67746820696e73756666696369656e746044820152606401610ceb565b6000602282511015613e715760405162461bcd60e51b815260206004820152601c60248201527f4c7a4170703a20696e76616c69642061646170746572506172616d73000000006044820152606401610ceb565b506022015190565b61ffff821660009081526003602052604081205490819003613e9a57506127105b808211156111945760405162461bcd60e51b815260206004820181905260248201527f4c7a4170703a207061796c6f61642073697a6520697320746f6f206c617267656044820152606401610ceb565b60006001600160e01b031982166319abbbbb60e11b1480610f385750610f388260006001600160e01b03198216637965db0b60e01b1480610f3857506301ffc9a760e01b6001600160e01b0319831614610f38565b803561ffff81168114613f5157600080fd5b919050565b60008083601f840112613f6857600080fd5b5081356001600160401b03811115613f7f57600080fd5b60208301915083602082850101111561124057600080fd5b80356001600160401b0381168114613f5157600080fd5b60008060008060008060808789031215613fc757600080fd5b613fd087613f3f565b955060208701356001600160401b0380821115613fec57600080fd5b613ff88a838b01613f56565b909750955085915061400c60408a01613f97565b9450606089013591508082111561402257600080fd5b5061402f89828a01613f56565b979a9699509497509295939492505050565b6001600160a01b0381168114610f5a57600080fd5b8035613f5181614041565b6000806040838503121561407457600080fd5b823561407f81614041565b946020939093013593505050565b6001600160e01b031981168114610f5a57600080fd5b6000602082840312156140b557600080fd5b8135611ac88161408d565b634e487b7160e01b600052604160045260246000fd5b601f8201601f191681016001600160401b03811182821017156140fb576140fb6140c0565b6040525050565b60006001600160401b0382111561411b5761411b6140c0565b50601f01601f191660200190565b600061413483614102565b60405161414182826140d6565b80925084815285858501111561415657600080fd5b8484602083013760006020868301015250509392505050565b60006020828403121561418157600080fd5b81356001600160401b0381111561419757600080fd5b8201601f810184136141a857600080fd5b6141b784823560208401614129565b949350505050565b80356001600160601b0381168114613f5157600080fd5b600080604083850312156141e957600080fd5b82356141f481614041565b9150614202602084016141bf565b90509250929050565b60005b8381101561422657818101518382015260200161420e565b50506000910152565b6000815180845261424781602086016020860161420b565b601f01601f19169290920160200192915050565b602081526000611ac8602083018461422f565b60006020828403121561428057600080fd5b611ac882613f3f565b6000806040838503121561429c57600080fd5b61407f83613f3f565b6000602082840312156142b757600080fd5b5035919050565b6000806000606084860312156142d357600080fd5b83356142de81614041565b95602085013595506040909401359392505050565b6000806040838503121561430657600080fd5b50508035926020909101359150565b60006001600160401b0382111561432e5761432e6140c0565b5060051b60200190565b600082601f83011261434957600080fd5b8135602061435682614315565b60405161436382826140d6565b83815260059390931b850182019282810191508684111561438357600080fd5b8286015b8481101561439e5780358352918301918301614387565b509695505050505050565b600082601f8301126143ba57600080fd5b611ac883833560208501614129565b600080600080600060a086880312156143e157600080fd5b85356143ec81614041565b945060208601356143fc81614041565b935060408601356001600160401b038082111561441857600080fd5b61442489838a01614338565b9450606088013591508082111561443a57600080fd5b61444689838a01614338565b9350608088013591508082111561445c57600080fd5b50614469888289016143a9565b9150509295509295909350565b6000806040838503121561448957600080fd5b82359150602083013561449b81614041565b809150509250929050565b6000806000604084860312156144bb57600080fd5b6144c484613f3f565b925060208401356001600160401b038111156144df57600080fd5b6144eb86828701613f56565b9497909650939450505050565b60006020828403121561450a57600080fd5b8135611ac881614041565b600080600080600080600080610100898b03121561453257600080fd5b61453b89614056565b975061454960208a01613f3f565b965060408901356001600160401b038082111561456557600080fd5b6145718c838d016143a9565b975060608b013591508082111561458757600080fd5b6145938c838d01614338565b965060808b01359150808211156145a957600080fd5b6145b58c838d01614338565b95506145c360a08c01614056565b94506145d160c08c01614056565b935060e08b01359150808211156145e757600080fd5b506145f48b828c016143a9565b9150509295985092959890939650565b600080600080600080600080610100898b03121561462157600080fd5b883561462c81614041565b975061463a60208a01613f3f565b965060408901356001600160401b038082111561465657600080fd5b6146628c838d016143a9565b975060608b0135965060808b0135955060a08b0135915061468282614041565b90935060c08a01359061469482614041565b90925060e08a013590808211156145e757600080fd5b600082601f8301126146bb57600080fd5b813560206146c882614315565b6040516146d582826140d6565b83815260059390931b85018201928281019150868411156146f557600080fd5b8286015b8481101561439e57803561470c81614041565b83529183019183016146f9565b6000806040838503121561472c57600080fd5b82356001600160401b038082111561474357600080fd5b61474f868387016146aa565b9350602085013591508082111561476557600080fd5b5061477285828601614338565b9150509250929050565b600081518084526020808501945080840160005b838110156147ac57815187529582019590820190600101614790565b509495945050505050565b602081526000611ac8602083018461477c565b600080600080600060a086880312156147e257600080fd5b85356147ed81614041565b945060208601356001600160401b038082111561480957600080fd5b61481589838a016146aa565b9550604088013591508082111561441857600080fd5b60008060006060848603121561484057600080fd5b83359250602084013561485281614041565b9150614860604085016141bf565b90509250925092565b60008060006060848603121561487e57600080fd5b61488784613f3f565b925060208401356001600160401b038111156148a257600080fd5b6148ae868287016143a9565b92505061486060408501613f97565b600080600080600060a086880312156148d557600080fd5b85356148e081614041565b945060208601356001600160401b03808211156148fc57600080fd5b61490889838a016146aa565b95506040880135945060608801359350608088013591508082111561445c57600080fd5b60008060006060848603121561494157600080fd5b833561494c81614041565b925060208401356001600160401b038082111561496857600080fd5b61497487838801614338565b9350604086013591508082111561498a57600080fd5b5061499786828701614338565b9150509250925092565b8015158114610f5a57600080fd5b8035613f51816149a1565b60008060008060008060c087890312156149d357600080fd5b6149dc87613f3f565b955060208701356001600160401b03808211156149f857600080fd5b614a048a838b016143a9565b9650604089013595506060890135945060808901359150614a24826149a1565b90925060a08801359080821115614a3a57600080fd5b50614a4789828a016143a9565b9150509295509295509295565b60008060408385031215614a6757600080fd5b614a7083613f3f565b915061420260208401613f3f565b60008060408385031215614a9157600080fd5b8235614a9c81614041565b9150602083013561449b816149a1565b60008060008060008060c08789031215614ac557600080fd5b614ace87613f3f565b955060208701356001600160401b0380821115614aea57600080fd5b614af68a838b016143a9565b96506040890135915080821115614b0c57600080fd5b614b188a838b01614338565b95506060890135915080821115614b2e57600080fd5b614b3a8a838b01614338565b9450614b4860808a016149af565b935060a0890135915080821115614a3a57600080fd5b600080600080600060808688031215614b7657600080fd5b614b7f86613f3f565b9450614b8d60208701613f3f565b93506040860135925060608601356001600160401b03811115614baf57600080fd5b614bbb88828901613f56565b969995985093965092949392505050565b600080600060608486031215614be157600080fd5b614bea84613f3f565b9250614bf860208501613f3f565b9150604084013590509250925092565b60008060408385031215614c1b57600080fd5b8235614c2681614041565b9150602083013561449b81614041565b600060208284031215614c4857600080fd5b8135611ac8816149a1565b600080600080600060a08688031215614c6b57600080fd5b8535614c7681614041565b94506020860135614c8681614041565b9350604086013592506060860135915060808601356001600160401b03811115614caf57600080fd5b614469888289016143a9565b60008060008060808587031215614cd157600080fd5b614cda85613f3f565b9350614ce860208601613f3f565b92506040850135614cf881614041565b9396929550929360600135925050565b600181811c90821680614d1c57607f821691505b602082108103614d3c57634e487b7160e01b600052602260045260246000fd5b50919050565b8183823760009101908152919050565b634e487b7160e01b600052601160045260246000fd5b8082028115828204841417610f3857610f38614d52565b600082614d9c57634e487b7160e01b600052601260045260246000fd5b500490565b6020808252602e908201527f455243313135353a2063616c6c6572206973206e6f7420746f6b656e206f776e60408201526d195c881bdc88185c1c1c9bdd995960921b606082015260800190565b81835281816020850137506000828201602090810191909152601f909101601f19169091010190565b61ffff8416815260406020820152600061222c604083018486614def565b600060208284031215614e4857600080fd5b5051919050565b600060208284031215614e6157600080fd5b8151611ac8816149a1565b634e487b7160e01b600052603260045260246000fd5b600060018201614e9457614e94614d52565b5060010190565b60208082526037908201527f457874656e6465644f4e4654313135353a2063616c6c6572206973206e6f742060408201527f746f6b656e206f776e6572206f7220617070726f766564000000000000000000606082015260800190565b81810381811115610f3857610f38614d52565b8284823760609190911b6bffffffffffffffffffffffff19169101908152601401919050565b601f82111561119457600081815260208120601f850160051c81016020861015614f585750805b601f850160051c820191505b8181101561177857828155600101614f64565b81516001600160401b03811115614f9057614f906140c0565b614fa481614f9e8454614d08565b84614f31565b602080601f831160018114614fd95760008415614fc15750858301515b600019600386901b1c1916600185901b178555611778565b600085815260208120601f198616915b8281101561500857888601518255948401946001909101908401614fe9565b50858210156150265787850151600019600388901b60f8161c191681555b5050505050600190811b01905550565b606081526000615049606083018661422f565b828103602084015261505b818661477c565b9050828103604084015261506f818561477c565b9695505050505050565b61ffff861681526001600160a01b038516602082015260a0604082018190526000906150a79083018661422f565b841515606084015282810360808401526150c1818561422f565b98975050505050505050565b600080604083850312156150e057600080fd5b505080516020909101519092909150565b600061ffff80881683528087166020840152508460408301526080606083015261511f608083018486614def565b979650505050505050565b61ffff86168152608060208201526000615148608083018688614def565b6001600160401b0394909416604083015250606001529392505050565b6001600160401b0383111561517c5761517c6140c0565b6151908361518a8354614d08565b83614f31565b6000601f8411600181146151c457600085156151ac5750838201355b600019600387901b1c1916600186901b178355611083565b600083815260209020601f19861690835b828110156151f557868501358255602094850194600190920191016151d5565b50868210156152125760001960f88860031b161c19848701351681555b505060018560011b0183555050505050565b600082601f83011261523557600080fd5b815161524081614102565b60405161524d82826140d6565b82815285602084870101111561526257600080fd5b61222c83602083016020880161420b565b60006020828403121561528557600080fd5b81516001600160401b0381111561529b57600080fd5b6141b784828501615224565b61ffff851681526080602082015260006152c4608083018661422f565b6001600160401b0385166040840152828103606084015261511f818561422f565b6020808252602a908201527f455243323938313a20726f79616c7479206665652077696c6c206578636565646040820152692073616c65507269636560b01b606082015260800190565b60208082526021908201527f455243313135353a206d696e7420746f20746865207a65726f206164647265736040820152607360f81b606082015260800190565b80820180821115610f3857610f38614d52565b60208082526028908201527f455243313135353a2069647320616e6420616d6f756e7473206c656e677468206040820152670dad2e6dac2e8c6d60c31b606082015260800190565b60208082526025908201527f455243313135353a207472616e7366657220746f20746865207a65726f206164604082015264647265737360d81b606082015260800190565b6020808252602a908201527f455243313135353a20696e73756666696369656e742062616c616e636520666f60408201526939103a3930b739b332b960b11b606082015260800190565b60408152600061546d604083018561477c565b828103602084015261222c818561477c565b60208082526024908201527f4c7a4170703a205f61646170746572506172616d73206d75737420626520656d604082015263383a3c9760e11b606082015260800190565b600082516154d581846020870161420b565b9190910192915050565b600082601f8301126154f057600080fd5b815160206154fd82614315565b60405161550a82826140d6565b83815260059390931b850182019282810191508684111561552a57600080fd5b8286015b8481101561439e578051835291830191830161552e565b60008060006060848603121561555a57600080fd5b83516001600160401b038082111561557157600080fd5b61557d87838801615224565b9450602086015191508082111561559357600080fd5b61559f878388016154df565b935060408601519150808211156155b557600080fd5b50614997868287016154df565b60208082526023908201527f455243313135353a206275726e2066726f6d20746865207a65726f206164647260408201526265737360e81b606082015260800190565b60208082526024908201527f455243313135353a206275726e20616d6f756e7420657863656564732062616c604082015263616e636560e01b606082015260800190565b61ffff8616815260a06020820152600061566660a083018761422f565b6001600160401b03861660408401528281036060840152615687818661422f565b905082810360808401526150c1818561422f565b6001600160a01b03868116825285166020820152604081018490526060810183905260a06080820181905260009061511f9083018461422f565b6000602082840312156156e757600080fd5b8151611ac88161408d565b600060033d111561570b5760046000803e5060005160e01c5b90565b600060443d101561571c5790565b6040516003193d81016004833e81513d6001600160401b03816024840111818411171561574b57505050505090565b82850191508151818111156157635750505050505090565b843d870101602082850101111561577d5750505050505090565b61578c602082860101876140d6565b509095945050505050565b60208082526028908201527f455243313135353a204552433131353552656365697665722072656a656374656040820152676420746f6b656e7360c01b606082015260800190565b6001600160a01b0386811682528516602082015260a06040820181905260009061580b9083018661477c565b8281036060840152615687818661477c565b7f416363657373436f6e74726f6c3a206163636f756e742000000000000000000081526000835161585581601785016020880161420b565b7001034b99036b4b9b9b4b733903937b6329607d1b601791840191820152835161588681602884016020880161420b565b01602801949350505050565b61ffff8716815260c0602082015260006158af60c083018861422f565b82810360408401526158c1818861422f565b6001600160a01b0387811660608601528616608085015283810360a085015290506158ec818561422f565b9998505050505050505050565b60008161590857615908614d52565b50600019019056fea2646970667358221220771f300c2f4d7ace7235cd8f4967b437ffb42de16541ca1c349edeb1f6babb7964736f6c63430008120033",
  "devdoc": {
    "events": {
      "ApprovalForAll(address,address,bool)": {
        "details": "Emitted when `account` grants or revokes permission to `operator` to transfer their tokens, according to `approved`."
      },
      "RoleAdminChanged(bytes32,bytes32,bytes32)": {
        "details": "Emitted when `newAdminRole` is set as ``role``'s admin role, replacing `previousAdminRole` `DEFAULT_ADMIN_ROLE` is the starting admin for all roles, despite {RoleAdminChanged} not being emitted signaling this. _Available since v3.1._"
      },
      "RoleGranted(bytes32,address,address)": {
        "details": "Emitted when `account` is granted `role`. `sender` is the account that originated the contract call, an admin role bearer except when using {AccessControl-_setupRole}."
      },
      "RoleRevoked(bytes32,address,address)": {
        "details": "Emitted when `account` is revoked `role`. `sender` is the account that originated the contract call:   - if using `revokeRole`, it is the admin role bearer   - if using `renounceRole`, it is the role bearer (i.e. `account`)"
      },
      "TransferBatch(address,address,address,uint256[],uint256[])": {
        "details": "Equivalent to multiple {TransferSingle} events, where `operator`, `from` and `to` are the same for all transfers."
      },
      "TransferSingle(address,address,address,uint256,uint256)": {
        "details": "Emitted when `value` tokens of token type `id` are transferred from `from` to `to` by `operator`."
      },
      "URI(string,uint256)": {
        "details": "Emitted when the URI for token type `id` changes to `value`, if it is a non-programmatic URI. If an {URI} event was emitted for `id`, the standard https://eips.ethereum.org/EIPS/eip-1155#metadata-extensions[guarantees] that `value` will equal the value returned by {IERC1155MetadataURI-uri}."
      }
    },
    "kind": "dev",
    "methods": {
      "balanceOf(address,uint256)": {
        "details": "See {IERC1155-balanceOf}. Requirements: - `account` cannot be the zero address."
      },
      "balanceOfBatch(address[],uint256[])": {
        "details": "See {IERC1155-balanceOfBatch}. Requirements: - `accounts` and `ids` must have the same length."
      },
      "exists(uint256)": {
        "details": "Indicates whether any token exist with a given id, or not."
      },
      "getRoleAdmin(bytes32)": {
        "details": "Returns the admin role that controls `role`. See {grantRole} and {revokeRole}. To change a role's admin, use {_setRoleAdmin}."
      },
      "grantRole(bytes32,address)": {
        "details": "Grants `role` to `account`. If `account` had not been already granted `role`, emits a {RoleGranted} event. Requirements: - the caller must have ``role``'s admin role. May emit a {RoleGranted} event."
      },
      "hasRole(bytes32,address)": {
        "details": "Returns `true` if `account` has been granted `role`."
      },
      "isApprovedForAll(address,address)": {
        "details": "See {IERC1155-isApprovedForAll}."
      },
      "mint(address,uint256,uint256)": {
        "details": "Standard mint function."
      },
      "mintBatch(address,uint256[],uint256[])": {
        "details": "Function for batch minting tokens."
      },
      "multiBatchTransferFrom(address,address[],uint256[],uint256[],bytes)": {
        "details": "Batch transfer to multiple recipients."
      },
      "multiTransferFrom(address,address[],uint256,uint256,bytes)": {
        "details": "Transfer to multiple recipients."
      },
      "owner()": {
        "details": "Returns the address of the current owner."
      },
      "renounceOwnership()": {
        "details": "Leaves the contract without owner. It will not be possible to call `onlyOwner` functions. Can only be called by the current owner. NOTE: Renouncing ownership will leave the contract without an owner, thereby disabling any functionality that is only available to the owner."
      },
      "renounceRole(bytes32,address)": {
        "details": "Revokes `role` from the calling account. Roles are often managed via {grantRole} and {revokeRole}: this function's purpose is to provide a mechanism for accounts to lose their privileges if they are compromised (such as when a trusted device is misplaced). If the calling account had been revoked `role`, emits a {RoleRevoked} event. Requirements: - the caller must be `account`. May emit a {RoleRevoked} event."
      },
      "revokeRole(bytes32,address)": {
        "details": "Revokes `role` from `account`. If `account` had been granted `role`, emits a {RoleRevoked} event. Requirements: - the caller must have ``role``'s admin role. May emit a {RoleRevoked} event."
      },
      "royaltyInfo(uint256,uint256)": {
        "details": "Returns how much royalty is owed and to whom, based on a sale price that may be denominated in any unit of exchange. The royalty amount is denominated and should be paid in that same unit of exchange."
      },
      "safeBatchTransferFrom(address,address,uint256[],uint256[],bytes)": {
        "details": "See {IERC1155-safeBatchTransferFrom}."
      },
      "safeTransferFrom(address,address,uint256,uint256,bytes)": {
        "details": "See {IERC1155-safeTransferFrom}."
      },
      "setApprovalForAll(address,bool)": {
        "details": "See {IERC1155-setApprovalForAll}."
      },
      "setDefaultRoyalty(address,uint96)": {
        "details": "Sets the royalty information that all ids in this contract will default to."
      },
      "setTokenRoyalty(uint256,address,uint96)": {
        "details": "Sets the royalty information for a specific token id, overriding the global default."
      },
      "setURI(string)": {
        "details": "Sets a new token metadata URI."
      },
      "supportsInterface(bytes4)": {
        "details": "See {IERC165-supportsInterface}."
      },
      "totalSupply(uint256)": {
        "details": "Total amount of tokens in with a given id."
      },
      "transferOwnership(address)": {
        "details": "Transfers ownership of the contract to a new account (`newOwner`). Can only be called by the current owner."
      },
      "uri(uint256)": {
        "details": "See {IERC1155MetadataURI-uri}. Includes check for token existence."
      },
      "withdraw()": {
        "details": "Function for withdrawing erronously sent NFTs."
      },
      "withdrawTokens(address)": {
        "details": "Function for withdrawing erronously sent tokens."
      }
    },
    "stateVariables": {
      "__gap": {
        "details": "This empty reserved space is put in place to allow future versions to add new variables without shifting down storage in the inheritance chain. See https://docs.openzeppelin.com/contracts/4.x/upgradeable#storage_gaps"
      }
    },
    "version": 1
  },
  "userdoc": {
    "kind": "user",
    "methods": {},
    "version": 1
  },
  "storageLayout": {
    "storage": [
      {
        "astId": 8766,
        "contract": "contracts/token/onft1155/extensions/AXBlueprints.sol:AXBlueprints",
        "label": "_owner",
        "offset": 0,
        "slot": "0",
        "type": "t_address"
      },
      {
        "astId": 25702,
        "contract": "contracts/token/onft1155/extensions/AXBlueprints.sol:AXBlueprints",
        "label": "trustedRemoteLookup",
        "offset": 0,
        "slot": "1",
        "type": "t_mapping(t_uint16,t_bytes_storage)"
      },
      {
        "astId": 25708,
        "contract": "contracts/token/onft1155/extensions/AXBlueprints.sol:AXBlueprints",
        "label": "minDstGasLookup",
        "offset": 0,
        "slot": "2",
        "type": "t_mapping(t_uint16,t_mapping(t_uint16,t_uint256))"
      },
      {
        "astId": 25712,
        "contract": "contracts/token/onft1155/extensions/AXBlueprints.sol:AXBlueprints",
        "label": "payloadSizeLimitLookup",
        "offset": 0,
        "slot": "3",
        "type": "t_mapping(t_uint16,t_uint256)"
      },
      {
        "astId": 25714,
        "contract": "contracts/token/onft1155/extensions/AXBlueprints.sol:AXBlueprints",
        "label": "precrime",
        "offset": 0,
        "slot": "4",
        "type": "t_address"
      },
      {
        "astId": 26244,
        "contract": "contracts/token/onft1155/extensions/AXBlueprints.sol:AXBlueprints",
        "label": "failedMessages",
        "offset": 0,
        "slot": "5",
        "type": "t_mapping(t_uint16,t_mapping(t_bytes_memory_ptr,t_mapping(t_uint64,t_bytes32)))"
      },
      {
        "astId": 8394,
        "contract": "contracts/token/onft1155/extensions/AXBlueprints.sol:AXBlueprints",
        "label": "_roles",
        "offset": 0,
        "slot": "6",
        "type": "t_mapping(t_bytes32,t_struct(RoleData)8389_storage)"
      },
      {
        "astId": 32679,
        "contract": "contracts/token/onft1155/extensions/AXBlueprints.sol:AXBlueprints",
        "label": "useCustomAdapterParams",
        "offset": 0,
        "slot": "7",
        "type": "t_bool"
      },
      {
        "astId": 9012,
        "contract": "contracts/token/onft1155/extensions/AXBlueprints.sol:AXBlueprints",
        "label": "_balances",
        "offset": 0,
        "slot": "8",
        "type": "t_mapping(t_uint256,t_mapping(t_address,t_uint256))"
      },
      {
        "astId": 9018,
        "contract": "contracts/token/onft1155/extensions/AXBlueprints.sol:AXBlueprints",
        "label": "_operatorApprovals",
        "offset": 0,
        "slot": "9",
        "type": "t_mapping(t_address,t_mapping(t_address,t_bool))"
      },
      {
        "astId": 9020,
        "contract": "contracts/token/onft1155/extensions/AXBlueprints.sol:AXBlueprints",
        "label": "_uri",
        "offset": 0,
        "slot": "10",
        "type": "t_string_storage"
      },
      {
        "astId": 13437,
        "contract": "contracts/token/onft1155/extensions/AXBlueprints.sol:AXBlueprints",
        "label": "_defaultRoyaltyInfo",
        "offset": 0,
        "slot": "11",
        "type": "t_struct(RoyaltyInfo)13434_storage"
      },
      {
        "astId": 13442,
        "contract": "contracts/token/onft1155/extensions/AXBlueprints.sol:AXBlueprints",
        "label": "_tokenRoyaltyInfo",
        "offset": 0,
        "slot": "12",
        "type": "t_mapping(t_uint256,t_struct(RoyaltyInfo)13434_storage)"
      },
      {
        "astId": 10451,
        "contract": "contracts/token/onft1155/extensions/AXBlueprints.sol:AXBlueprints",
        "label": "_totalSupply",
        "offset": 0,
        "slot": "13",
        "type": "t_mapping(t_uint256,t_uint256)"
      },
      {
        "astId": 33373,
        "contract": "contracts/token/onft1155/extensions/AXBlueprints.sol:AXBlueprints",
        "label": "name",
        "offset": 0,
        "slot": "14",
        "type": "t_string_storage"
      },
      {
        "astId": 33376,
        "contract": "contracts/token/onft1155/extensions/AXBlueprints.sol:AXBlueprints",
        "label": "symbol",
        "offset": 0,
        "slot": "15",
        "type": "t_string_storage"
      },
      {
        "astId": 33727,
        "contract": "contracts/token/onft1155/extensions/AXBlueprints.sol:AXBlueprints",
        "label": "__gap",
        "offset": 0,
        "slot": "16",
        "type": "t_array(t_uint256)48_storage"
      }
    ],
    "types": {
      "t_address": {
        "encoding": "inplace",
        "label": "address",
        "numberOfBytes": "20"
      },
      "t_array(t_uint256)48_storage": {
        "base": "t_uint256",
        "encoding": "inplace",
        "label": "uint256[48]",
        "numberOfBytes": "1536"
      },
      "t_bool": {
        "encoding": "inplace",
        "label": "bool",
        "numberOfBytes": "1"
      },
      "t_bytes32": {
        "encoding": "inplace",
        "label": "bytes32",
        "numberOfBytes": "32"
      },
      "t_bytes_memory_ptr": {
        "encoding": "bytes",
        "label": "bytes",
        "numberOfBytes": "32"
      },
      "t_bytes_storage": {
        "encoding": "bytes",
        "label": "bytes",
        "numberOfBytes": "32"
      },
      "t_mapping(t_address,t_bool)": {
        "encoding": "mapping",
        "key": "t_address",
        "label": "mapping(address => bool)",
        "numberOfBytes": "32",
        "value": "t_bool"
      },
      "t_mapping(t_address,t_mapping(t_address,t_bool))": {
        "encoding": "mapping",
        "key": "t_address",
        "label": "mapping(address => mapping(address => bool))",
        "numberOfBytes": "32",
        "value": "t_mapping(t_address,t_bool)"
      },
      "t_mapping(t_address,t_uint256)": {
        "encoding": "mapping",
        "key": "t_address",
        "label": "mapping(address => uint256)",
        "numberOfBytes": "32",
        "value": "t_uint256"
      },
      "t_mapping(t_bytes32,t_struct(RoleData)8389_storage)": {
        "encoding": "mapping",
        "key": "t_bytes32",
        "label": "mapping(bytes32 => struct AccessControl.RoleData)",
        "numberOfBytes": "32",
        "value": "t_struct(RoleData)8389_storage"
      },
      "t_mapping(t_bytes_memory_ptr,t_mapping(t_uint64,t_bytes32))": {
        "encoding": "mapping",
        "key": "t_bytes_memory_ptr",
        "label": "mapping(bytes => mapping(uint64 => bytes32))",
        "numberOfBytes": "32",
        "value": "t_mapping(t_uint64,t_bytes32)"
      },
      "t_mapping(t_uint16,t_bytes_storage)": {
        "encoding": "mapping",
        "key": "t_uint16",
        "label": "mapping(uint16 => bytes)",
        "numberOfBytes": "32",
        "value": "t_bytes_storage"
      },
      "t_mapping(t_uint16,t_mapping(t_bytes_memory_ptr,t_mapping(t_uint64,t_bytes32)))": {
        "encoding": "mapping",
        "key": "t_uint16",
        "label": "mapping(uint16 => mapping(bytes => mapping(uint64 => bytes32)))",
        "numberOfBytes": "32",
        "value": "t_mapping(t_bytes_memory_ptr,t_mapping(t_uint64,t_bytes32))"
      },
      "t_mapping(t_uint16,t_mapping(t_uint16,t_uint256))": {
        "encoding": "mapping",
        "key": "t_uint16",
        "label": "mapping(uint16 => mapping(uint16 => uint256))",
        "numberOfBytes": "32",
        "value": "t_mapping(t_uint16,t_uint256)"
      },
      "t_mapping(t_uint16,t_uint256)": {
        "encoding": "mapping",
        "key": "t_uint16",
        "label": "mapping(uint16 => uint256)",
        "numberOfBytes": "32",
        "value": "t_uint256"
      },
      "t_mapping(t_uint256,t_mapping(t_address,t_uint256))": {
        "encoding": "mapping",
        "key": "t_uint256",
        "label": "mapping(uint256 => mapping(address => uint256))",
        "numberOfBytes": "32",
        "value": "t_mapping(t_address,t_uint256)"
      },
      "t_mapping(t_uint256,t_struct(RoyaltyInfo)13434_storage)": {
        "encoding": "mapping",
        "key": "t_uint256",
        "label": "mapping(uint256 => struct ERC2981.RoyaltyInfo)",
        "numberOfBytes": "32",
        "value": "t_struct(RoyaltyInfo)13434_storage"
      },
      "t_mapping(t_uint256,t_uint256)": {
        "encoding": "mapping",
        "key": "t_uint256",
        "label": "mapping(uint256 => uint256)",
        "numberOfBytes": "32",
        "value": "t_uint256"
      },
      "t_mapping(t_uint64,t_bytes32)": {
        "encoding": "mapping",
        "key": "t_uint64",
        "label": "mapping(uint64 => bytes32)",
        "numberOfBytes": "32",
        "value": "t_bytes32"
      },
      "t_string_storage": {
        "encoding": "bytes",
        "label": "string",
        "numberOfBytes": "32"
      },
      "t_struct(RoleData)8389_storage": {
        "encoding": "inplace",
        "label": "struct AccessControl.RoleData",
        "members": [
          {
            "astId": 8386,
            "contract": "contracts/token/onft1155/extensions/AXBlueprints.sol:AXBlueprints",
            "label": "members",
            "offset": 0,
            "slot": "0",
            "type": "t_mapping(t_address,t_bool)"
          },
          {
            "astId": 8388,
            "contract": "contracts/token/onft1155/extensions/AXBlueprints.sol:AXBlueprints",
            "label": "adminRole",
            "offset": 0,
            "slot": "1",
            "type": "t_bytes32"
          }
        ],
        "numberOfBytes": "64"
      },
      "t_struct(RoyaltyInfo)13434_storage": {
        "encoding": "inplace",
        "label": "struct ERC2981.RoyaltyInfo",
        "members": [
          {
            "astId": 13431,
            "contract": "contracts/token/onft1155/extensions/AXBlueprints.sol:AXBlueprints",
            "label": "receiver",
            "offset": 0,
            "slot": "0",
            "type": "t_address"
          },
          {
            "astId": 13433,
            "contract": "contracts/token/onft1155/extensions/AXBlueprints.sol:AXBlueprints",
            "label": "royaltyFraction",
            "offset": 20,
            "slot": "0",
            "type": "t_uint96"
          }
        ],
        "numberOfBytes": "32"
      },
      "t_uint16": {
        "encoding": "inplace",
        "label": "uint16",
        "numberOfBytes": "2"
      },
      "t_uint256": {
        "encoding": "inplace",
        "label": "uint256",
        "numberOfBytes": "32"
      },
      "t_uint64": {
        "encoding": "inplace",
        "label": "uint64",
        "numberOfBytes": "8"
      },
      "t_uint96": {
        "encoding": "inplace",
        "label": "uint96",
        "numberOfBytes": "12"
      }
    }
  }
}